:100000000C9490000C94B8000C94B8000C947413E9
:100010000C94D7130C94B8000C94B8000C94C80F2F
:100020000C94B8000C94B8000C94B8000C94B80070
:100030000C94B8000C94B8000C94B8000C94B80060
:100040000C942E1B0C94B8000C9497180C94C9189F
:100050000C94B8000C94B8000C94B8000C94B80040
:100060000C94C5100C94B800084AD73B3BCE016EE7
:1000700084BCBFFDC12F3D6C74319ABD56833DDAFF
:100080003D00C77F11BED9E4BB4C3E916BAAAABE0E
:10009000000000803F004E414E494E495459494EA0
:1000A00046CDCCCC3D0AD7233C17B7D13877CC2BE3
:1000B000329595E6241FB14F0A000020410000C888
:1000C0004200401C4620BCBE4CCA1B0E5AAEC59D09
:1000D000740102040810204080010204081020016D
:1000E00002040810200404040404040404020202AC
:1000F000020202030303030303000000002300269F
:1001000000290000000000250028002B000000004E
:1001100000240027002A0000C504ED12FE12F91881
:1001200011241FBECFEFD8E0DEBFCDBF12E0A0E0AC
:10013000B1E0E8E6FDE302C005900D92A439B107F5
:10014000D9F725E0A4E9B2E001C01D92AF3CB207A7
:10015000E1F710E0C0E9D0E004C02197FE010E9461
:10016000CA1CCC38D107C9F70E9427190C94B21EBB
:100170000C940000CF93DF93EC0167E071E087E21D
:1001800095E00E947519BE0187E295E00E947519FD
:1001900069EB71E087E295E00E9475194D815E81FF
:1001A0006F81788522E030E087E295E00E942C1B89
:1001B00069EB71E087E295E00E94751949855A85DF
:1001C0006B857C8522E030E087E295E00E942C1B65
:1001D00069EB71E087E295E00E9475194D855E85B7
:1001E0006F85788922E030E087E295E00E942C1B41
:1001F00069EB71E087E295E00E94751949895A8997
:100200006B897C8922E030E087E295E00E942C1B1C
:1002100069EB71E087E295E0DF91CF910C94821950
:10022000CF92DF92EF92FF920F931F93CF93DF93C2
:1002300069EB71E08FEA92E00E94D41CEC016CE063
:1002400071E00E94D91C892BE9F167E371E0CE01CE
:100250000E94D91C892B09F4A2C069E571E0CE0186
:100260000E94D91C892B09F4C1C06BE771E0CE0153
:100270000E94D91C892B09F4B5C061E871E0CE0158
:100280000E94D91C892B09F00CC110920401109214
:10029000FE031092FF0310920004109201041092CA
:1002A000E1031092E2031092E3031092E403109230
:1002B000AE02DF91CF911F910F91FF90EF90DF90F1
:1002C000CF9008956FE071E087E295E00E94821977
:1002D00069EB71E080E090E00E94D41CEC016FE1DA
:1002E00071E00E94D91C892B09F0B7C08DEE93E014
:1002F0009093AD028093AC0287E793E09093AB02BA
:100300008093AA0269EB71E080E090E00E94D41C27
:10031000C091AC02D091AD020E94D01C6D837E834F
:100320008F83988769EB71E080E090E00E94D41C95
:10033000C091AC02D091AD020E94D01C69877A872F
:100340008B879C8769EB71E080E090E00E94D41C71
:10035000C091AC02D091AD020E94D01C6D877E8707
:100360008F87988BE091AC02F091AD02C584D68462
:10037000E784F0880185128523853485458156817F
:10038000678170858091AA029091AB020E94C80A91
:1003900068E271E087E295E00E94821988CF6AE303
:1003A00071E087E295E00E94821969EB71E080E0DC
:1003B00090E00E94D41CEC016FE171E00E94D91C16
:1003C000892B09F05FC08DEE93E09093AD0280938E
:1003D000AC020E94BA006AE471E087E295E00E94F4
:1003E000821965CF81E08093040161CF6CE571E0F3
:1003F00087E295E00E94821969EB71E080E090E06D
:100400000E94D41CEC016FE171E00E94D91C892B81
:1004100009F05AC08DEE93E09093AD028093AC0248
:1004200087E793E09093AB028093AA0269EB71E0B7
:1004300080E090E00E94D41CC091AC02D091AD024B
:100440000E94D01C698B7A8B8B8B9C8B6CE671E045
:1004500087E295E00E9482192ACF62E271E0CE0124
:100460000E94D91C892B09F04BC080ED93E090933A
:10047000AD028093AC028BE393E09093AB02809348
:10048000AA0240CF62E271E0CE010E94D91C892B02
:1004900009F04BC080ED93E09093AD028093AC02E5
:1004A00098CF68E871E0CE010E94D91C892B09F42D
:1004B0004AC06FE871E0CE010E94D91C892B09F077
:1004C00058C01092A902F3CE62E271E0CE010E9400
:1004D000D91C892BE1F165E271E0CE010E94D91CA3
:1004E000892B09F0A3CF83EB93E09093AD02809327
:1004F000AC0287E793E09093AB028093AA0296CF79
:1005000065E271E0CE010E94D91C892B09F0FACE78
:1005100083EB93E09093AD028093AC028FEF92E077
:100520009093AB028093AA02EDCE65E271E0CE011A
:100530000E94D91C892BC1F483EB93E09093AD0208
:100540008093AC0246CF81E08093A902B0CE80EDCB
:1005500093E09093AD028093AC0287E793E0909391
:10056000AB028093AA0262CF8091AC029091AD025F
:1005700030CF67E971E0CE010E94D91C892B21F4AC
:1005800081E08093A80293CE6DE971E0CE010E94D4
:10059000D91C892B19F41092A80289CE64EA71E063
:1005A000CE010E94D91C892B21F481E08093A702FF
:1005B0007ECE6AEA71E0CE010E94D91C892B09F037
:1005C00076CE1092A70273CE8F929F92AF92BF9277
:1005D000CF92DF92EF92FF920F931F93CF93DF930F
:1005E0000E94741B6093A3027093A4028093A502DF
:1005F0009093A602C0909B02D0909C02E0909D0236
:10060000F0909E029B01AC012C193D094E095F0937
:1006100020939F023093A0024093A1025093A20224
:1006200060939B0270939C0280939D0290939E0224
:100630008BE294E00E94020F90932A048093290495
:100640008BE294E00E941D0F90932804809327046E
:100650008BE294E00E94380FEC0190932604809383
:1006600025046091270470912804072E000C880B44
:10067000990B0E9408166B017C016091290470910E
:100680002A04072E000C880B990B0E940816A7015C
:1006900096010E94FA1421EE3EE245E652E40E94E1
:1006A000EC1660931F0470932004809321049093B0
:1006B0002204BE01DD0F880B990B1F921F921F921F
:1006C0002AEF2F9326E0A22EBB24BA94CB2CDB2C4E
:1006D000EE24EA941FE7F12E00E010E020E030E87D
:1006E0004FEF5FEF0E94191C709324046093230462
:1006F000C0912304D091240460919F027091A002C4
:100700008091A1029091A2020E9406166B017C01C9
:10071000BE01DD0F880B990B0E9408169B01AC01EE
:10072000C701B6010E94EC1620E030E04AE754E42D
:100730000E945E1560931B0470931C0480931D043B
:1007400090931E0460911304709114048091150419
:100750009091160420911B0430911C0440911D04BB
:1007600050911E0480901F0490902004A0902104BA
:10077000B09022040E947B1426E73FE44EE75FE33B
:100780000E94EC166B017C0120ED34E448ED5BE344
:10079000C501B4010E94EC169B01AC01C701B60172
:1007A0000E947B14609317047093180480931904BB
:1007B00090931A048091170490911804A091190441
:1007C000B0911A048093130490931404A093150419
:1007D000B09316048091170490911804A091190405
:1007E000B0911A04B0588093C8039093C903A093A2
:1007F000CA03B093CB030F900F900F900F90DF912F
:10080000CF911F910F91FF90EF90DF90CF90BF900D
:10081000AF909F908F9008950F931F9326E040E92B
:1008200050ED63E070E087E295E00E9432186DECD5
:1008300071E087E295E00E9482198BE294E00E94C9
:10084000E10E65EF71E08BE294E00E94530F61E1ED
:1008500076E08BE294E00E94590F68E275E08BE24B
:1008600094E00E945F0F66E970E08BE294E00E94E2
:10087000650F6AEF7FEF8BE294E00E946B0F63E1FC
:1008800070E08BE294E00E94710F66EE71E087E207
:1008900095E00E9482190E9403130E94141360E0E5
:1008A00070E080E090E00E94251361E072E087E252
:1008B00095E00E9482190E945A136BE172E087E270
:1008C00095E00E9482198DEE93E00E94BA0080EDBF
:1008D00093E00E94BA0083EB93E00E94BA006AE0C2
:1008E00070E087E793E00E948B0B00E010E02FE7B9
:1008F00033E440E050E06FE773EC87E793E00E9459
:10090000D90B61E070E087E793E00E94620C6AE037
:1009100070E08BE393E00E948B0B00E010E02FE788
:1009200033E440E050E06FE773EC8BE393E00E9428
:10093000D90B61E070E08BE393E00E94620C6AE007
:1009400070E08FEF92E00E948B0B00E010E02CE152
:1009500032E440E050E06CE172EC8FEF92E00E94F4
:10096000D90B61E070E08FEF92E00E94620C67E3C8
:1009700072E087E295E00E9482196FE472E087E2FC
:1009800095E01F910F910C9482197F928F929F9204
:10099000AF92BF92CF92DF92EF92FF920F931F938D
:1009A000CF93DF932BE430E048E069E08AE394E002
:1009B0000E94770F8BE294E00E94DA0EEDEEF3E0F6
:1009C0008DE490E391838083128240E050E060EAFE
:1009D00071E445835683678370871586168617866C
:1009E000108A80E090E0ACE5B3E481879287A3872A
:1009F000B487118A128A138A148A20ED822E23E08A
:100A0000922E2DE431E3F401318320831282458359
:100A1000568367837087158616861786108A8187A6
:100A20009287A387B487118A128A138A148AC3EB28
:100A3000D3E087E499E6998388831A8280E090E086
:100A4000A0E2B0E48D839E83AF83B8878DEC9CECED
:100A5000ACECBCE38D879E87AF87B88B80E090E0DD
:100A6000A0EBB1E489879A87AB87BC8780E090E0F0
:100A7000A0E0B0EC898B9A8BAB8BBC8B1F921F9242
:100A80001F92772473947F921F921F921F921F923E
:100A9000A12CB12C3CE5C32E33E4D32E7A018B017B
:100AA0002EEF33E046E054E062E074E087E793E045
:100AB0000E943B08F401A184B284C384D484E580FD
:100AC000F680078110851F921F921F927F92808966
:100AD0008F9387858F9386858F9385858F9321EE5E
:100AE00033E049EE53E065EE73E08BE393E00E9460
:100AF0003B08A984BA84CB84DC84ED80FE800F811E
:100B000018851F921F921F927F9288898F938F85DD
:100B10008F938E858F938D858F9324EC33E04CECEF
:100B200053E068EC73E08FEF92E00E943B088DB7D2
:100B30009EB748960FB6F8949EBF0FBE8DBFDF914B
:100B4000CF911F910F91FF90EF90DF90CF90BF90CA
:100B5000AF909F908F907F9008958F929F92AF92C9
:100B6000BF92CF92DF92EF92FF92CF93DF930E94DA
:100B7000801B6093970270939802809399029093E0
:100B80009A020E94741B6B017C0180910F0490916A
:100B90001004A0911104B0911204A7019601281B22
:100BA000390B4A0B5B0B2A3031054105510508F022
:100BB00053C10E94E4028FEF92E00E9436098091B7
:100BC00004018823C1F08091CC039091CD03A091C2
:100BD000CE03B091CF038093FE039093FF03A093C5
:100BE0000004B09301048093E1039093E203A09387
:100BF000E303B093E40387E793E00E9436098BE3B5
:100C000093E00E94360980910A0481113FC08090D0
:100C1000C8039090C903A090CA03B090CB0320E012
:100C200030E040EA50ECC501B4010E94DF1618160E
:100C300004F180910401811140C06091E903709139
:100C4000EA038091EB039091EC030E94D0154B01D5
:100C50005C016091060470910704809108049091F2
:100C600009040E94D015DC01CB01B4010E942513B8
:100C70002CC020E030E040E85FE3C501B4010E94F1
:100C8000591587FFD6CF81E080930A048091040133
:100C9000882399F28090C8039090C903A090CA035A
:100CA000B090CB0320E030E048E452E4C501B40149
:100CB0000E94DF1618160CF0A4C060E070E080E01F
:100CC00090E00E94251310920A0480910B049091E9
:100CD0000C04A0910D04B0910E04A7019601281BED
:100CE000390B4A0B5B0B243631054105510508F4DD
:100CF000A8C0C0920B04D0920C04E0920D04F092B4
:100D00000E048091A902811147C18091A70281112F
:100D10007EC18091A8028111DCC0D1E0CFE487E2DE
:100D200095E00E945D17181619060CF056C08091C8
:100D3000AE028823C1F10E9410010E94801BC09066
:100D40009702D0909802E0909902F0909A02DC010C
:100D5000CB018C199D09AE09BF098093970290932E
:100D60009802A0939902B0939A026BE572E087E231
:100D700095E00E94751940919702509198026091F8
:100D8000990270919A022AE030E087E295E0DF91C3
:100D9000CF91FF90EF90DF90CF90BF90AF909F905A
:100DA0008F900C94F01987E295E00E9477178A30B3
:100DB000E9F090919602E92FF0E0E155FD4F808334
:100DC0009F5F903580F0C093960287E295E00E9485
:100DD0005D17181619060CF4AACF8091AE0288236D
:100DE00009F4ABCFA8CF9093960299CFE0919602E9
:100DF000F0E0E155FD4F108210929602D093AE02C2
:100E00008ECF20E030E048E452ECC501B4010E94EE
:100E1000591587FD52CF20E030E040E250ECC5018B
:100E2000B4010E94DF1618160CF007CF20E030E066
:100E300040EC5FEBC501B4010E94591587FD3DCF21
:100E4000FCCEDF91CF91FF90EF90DF90CF90BF90DD
:100E5000AF909F908F900895C0920F04D09210048D
:100E6000E0921104F0921204C0910201D0910301AA
:100E700060912305709124058091250590912605A8
:100E80000E940816688379838A839B83C09100013E
:100E9000D091010160911F0570912005809121057D
:100EA000909122050E940816688379838A839B8328
:100EB0001092230510922405109225051092260504
:100EC00010921F0510922005109221051092220504
:100ED00070CE61EB71E087E295E00E947519409158
:100EE000020450910304609104047091050422E00F
:100EF00030E087E295E00E942C1B67EB71E087E20F
:100F000095E00E9475194091E5035091E6036091C8
:100F1000E7037091E80322E030E087E295E00E9469
:100F20002C1B67EB71E087E295E00E94751969EB75
:100F300071E087E295E00E9482196BEB71E087E235
:100F400095E00E9475194091060450910704609144
:100F500008047091090422E030E087E295E00E94E5
:100F60002C1B69EB71E087E295E00E9475194091B6
:100F7000E9035091EA036091EB037091EC0322E0E6
:100F800030E087E295E00E942C1B69EB71E087E27C
:100F900095E00E948219C1CE61EC71E087E295E094
:100FA0000E9475196091290470912A044AE050E06A
:100FB00087E295E00E944A1A69EB71E087E295E0CA
:100FC0000E94751960912704709128044AE050E04E
:100FD00087E295E00E944A1A69EB71E087E295E0AA
:100FE0000E94751960912504709126044AE050E032
:100FF00087E295E00E944A1A69EB71E087E295E08A
:101000000E9482198091A702882309F482CE67EC9E
:1010100071E087E295E00E9475194091C8035091F4
:10102000C9036091CA037091CB0322E030E087E2EC
:1010300095E00E942C1B69EB71E087E295E00E942D
:1010400075194091CC035091CD036091CE037091FE
:10105000CF0322E030E087E295E00E942C1B69EB91
:1010600071E087E295E00E9482198091A8028823AE
:1010700009F453CE2ECF4F925F926F927F928F9250
:101080009F92AF92BF92CF92DF92EF92FF920F9317
:101090001F93CF93DF9300D000D0CDB7DEB74C01C4
:1010A000270138010D8D1E8DDC015F965C934E93F8
:1010B0005E975D967C936E935C9791963C932E938E
:1010C0009097DA961C92FC0112AA13AA14AA15AAE8
:1010D00080E090E0AFE7B3E486AB97ABA0AFB1AFF1
:1010E00084E690E0A0E0B0E086A797A7A0ABB1AB04
:1010F000118F008F20E030E0A901C301B2010E94EE
:10110000591587FD61C020E030E0A901C601B50195
:101110000E94591587FD58C020E030E0A9016F8971
:10112000788D898D9A8D0E94591587FD4DC0EB8D64
:10113000FC8DD4015B96FC93EE935A9781E0319736
:1011400009F080E0D401DB968C93DB97F4014082B8
:101150005182628273821496AD92BD92CD92DC92DE
:1011600017978F89988DA98DBA8D80879187A287CF
:10117000B38744865586668677862DEC3CEC4CEC2E
:101180005DE3C601B5010E94EC1669837A838B8307
:101190009C83F401608B718B828B938B2DEC3CECE8
:1011A0004CEC5DE36F89788D898D9A8D0E945E1578
:1011B0006B017C01D40154966D937D938D939C9328
:1011C00057970130110549F10E94741BD4019E9676
:1011D0000D911D912D913C91D197DC01CB01801B8C
:1011E000910BA20BB30BF40182A393A3A4A3B5A309
:1011F0000F900F900F900F90DF91CF911F910F9153
:10120000FF90EF90DF90CF90BF90AF909F908F9026
:101210007F906F905F904F900895A301920160E0DE
:1012200070E0CB010E947A14F40164877587868789
:10123000978729813A814B815C8160E070E0CB0126
:101240000E947A14D40150966D937D938D939C9354
:101250005397A701960160E070E0CB010E947A14D9
:10126000F401648B758B868B978BAECF2F923F9258
:101270004F925F926F927F928F929F92AF92BF92A6
:10128000CF92DF92EF92FF920F931F93CF93DF9352
:10129000CDB7DEB760970FB6F894DEBF0FBECDBFF7
:1012A000DC01DA961C9111111BC010E0812F6096B1
:1012B0000FB6F894DEBF0FBECDBFDF91CF911F9167
:1012C0000F91FF90EF90DF90CF90BF90AF909F90E5
:1012D0008F907F906F905F904F903F902F900895E8
:1012E000988B8F870E94741B6B017C01EF85F889B6
:1012F00082A193A1A4A1B5A1B701A601481B590BD6
:101300006A0B7B0B86A597A5A0A9B1A94817590719
:101310006A077B0750F2048CF58DE02D8081918166
:10132000A281B3818E839F83A887B987AF85B8894F
:101330009096ED91FC9191972E813F81488559853A
:1013400060817181828193810E947A142B013C011A
:10135000EF85F88922A533A544A555A56E817F8127
:10136000888599850E947A144B015C01AF85B88904
:1013700050962D913D914D915C915397C301B201CF
:101380000E94EC16EF85F88926A137A140A551A54A
:101390000E947B14062F372E282E9983862F932D9B
:1013A000A22DB981EF85F88986A397A3A0A7B1A73D
:1013B000F3ADFA87F11122C0AF85B8891C962D9143
:1013C0003D914D915C911F97C501B4010E94EC16AF
:1013D0009B01AC01602F732D822D99810E947A149C
:1013E000062F372E282E9983862F932DA22DB98173
:1013F000EF85F88986A397A3A0A7B1A7AF85B88981
:10140000D696BC91BA83EF85F889F7A9FB83AF859F
:10141000B889D896BC91BC83EF85F889F1ADFD837E
:10142000202F332D422D59816A817B818B2F9F2F55
:101430000E94591587FDA3C0AF85B889D296BC918B
:10144000BB87EF85F889F3A9FC87AF85B889D49667
:10145000BC91BD87EF85F889F5A9FE87202F332D34
:10146000422D59816B857C858B2F9F2F0E94DF1623
:10147000181674F48B859C85AD85BE85EF85F8893B
:1014800086A397A3A0A7B1A7082F392E2A2EB98328
:101490008A85882309F478C0AF85B8891C962D9178
:1014A0003D914D915C911F97C301B2010E94EC16D2
:1014B0002B013C01EF85F8892489358946895789B4
:1014C000C501B4010E94EC169B01AC01602F732D85
:1014D000822D99810E947A14A30192010E947B14AB
:1014E000962EA72EB82E092F262F372F482F592F8B
:1014F0006A817B818C819D810E94591587FD22C064
:10150000AF85B889D296BC91BA83EF85F889F3A9E3
:10151000FB83AF85B889D496BC91BC83EF85F889ED
:10152000F5A9FD832A813B814B2F5F2F692D7A2DF1
:101530008B2D902F0E94591587FD04C09A82AB8293
:10154000BC820D83AF85B8895E96ED91FC915F9763
:101550008A819B81AC81BD8180839183A283B38387
:101560008E819F81A885B985EF85F88982A793A789
:10157000A4A7B5A7C2A2D3A2E4A2F5A297CE8A815E
:101580009B81AC81BD817ACF412C512C320192CF0D
:101590004F925F926F927F928F929F92AF92BF9283
:1015A000CF92DF92EF92FF920F931F93CF93DF932F
:1015B00000D000D000D0CDB7DEB79E838D834A0126
:1015C0005B012801390120E030E0A901C501B40127
:1015D0000E94591587FD60C020E030E0A901C301D9
:1015E000B2010E94591587FD57C020E030E0A901E3
:1015F000C701B6010E94591587FD4EC081E0ED81FB
:10160000FE81228D338D2130310509F080E083AFDA
:1016100080829182A282B3824482558266827782DE
:10162000C086D186E286F38666A577A580A991A9B2
:101630000E94061620E030E04AE754E40E945E155E
:1016400069837A838B839C83ED81FE818486958672
:10165000A686B7869B01AC01C301B2010E94EC16BD
:101660002B013C01ED81FE81608B718B828B938B12
:1016700029813A814B815C81C701B6010E945E15C8
:101680006B017C01ED81FE81648B758B868B978B62
:10169000808D918D0197B9F026960FB6F894DEBF34
:1016A0000FBECDBFDF91CF911F910F91FF90EF90B3
:1016B000DF90CF90BF90AF909F908F907F906F9072
:1016C0005F904F900895A501940160E070E0CB0118
:1016D0000E947A14ED81FE816487758786879787DB
:1016E000A301920160E070E0CB010E947A14ED81C9
:1016F000FE81608B718B828B938BA701960160E0DA
:1017000070E0CB010E947A14ED81FE81648B758BB1
:10171000868B978BC1CF8F929F92AF92BF92CF92C1
:10172000DF92EF92FF92CF93DF9316161706B4F570
:101730006B01EC010D2C000CEE08FF08C701B6018F
:101740000E9408164B015C016EA57FA588A999A986
:101750000E9406169B01AC01C501B4010E945E15F2
:101760004B015C019B01AC01688979898A899B895D
:101770000E94EC16688B798B8A8B9B8BA501940158
:101780006C897D898E899F890E945E156C8B7D8B0B
:101790008E8B9F8BCEA6DFA6E8AAF9AADF91CF9108
:1017A000FF90EF90DF90CF90BF90AF909F908F9081
:1017B00008954F925F926F927F928F929F92AF9215
:1017C000BF92CF92DF92EF92FF920F931F93CF932E
:1017D000DF93EC014A015B0179019801A701C50182
:1017E000B4010E94DF1687FF49C08AAA9BAAACAA4F
:1017F000BDAAC801D7018EAB9FABA8AFB9AF8AAD68
:101800008823E1F1CE8CDF8CF6014080518062802C
:101810007380A3019201B801C7010E94591587FD89
:101820003EC0A3019201C501B4010E94DF16181643
:101830004CF4F60180829182A282B3820EA91FA984
:10184000E8ACF9AC8EA09FA0A8A4B9A49801A70108
:10185000C501B4010E94DF1618166CF1CAA8DBA8F6
:10186000ECA8FDA8A7019601C501B4010E94591575
:1018700087FF04C0CEA2DFA2E8A6F9A6DF91CF9130
:101880001F910F91FF90EF90DF90CF90BF90AF909E
:101890009F908F907F906F905F904F900895C801B8
:1018A000D701F60180839183A283B3830EA91FA978
:1018B000E8ACF9ACC7CFC801D7018EA39FA3A8A7F6
:1018C000B9A7DCCF8F929F92AF92BF92CF92DF9257
:1018D000EF92FF921F93CF93DF93EC0111E0613001
:1018E000710509F010E06130710569F01AAFDF9100
:1018F000CF911F91FF90EF90DF90CF90BF90AF906E
:101900009F908F9008958AAD8111F0CFEE8DFF8D5D
:10191000C080D180E280F380CEA2DFA2E8A6F9A643
:10192000EC8DFD8D80819181A281B3818AA79BA7D7
:10193000ACA7BDA78EA89FA8A8ACB9ACA50194017F
:10194000C701B6010E94DF16181664F08AA89BA88A
:10195000ACA8BDA8A5019401C701B6010E94591504
:1019600087FFC4CF8EA29FA2A8A6B9A6BFCF1F9300
:10197000CF93DF93162FEA01682F8CEB94E00E943F
:10198000D012612F8CEB94E00E9421126D2F8CEB12
:1019900094E00E9421126C2F8CEB94E00E942112A3
:1019A0008CEB94E00E94DA1291E0811190E0892F93
:1019B000DF91CF911F9108952F923F924F925F92A6
:1019C0006F927F928F929F92AF92BF92CF92DF924F
:1019D000EF92FF920F931F93CF93DF9300D000D02D
:1019E00000D0CDB7DEB7D82E6C83C42E7901180194
:1019F0000E94741B4B015C01CC2009F4B2C08C2DF9
:101A000090E09B838A83C98290E29C1508F489C088
:101A100000E010E02101612C712C6D2D8CEB94E025
:101A20000E94D0126C818CEB94E00E9421128CEB0E
:101A300094E00E94DA126D2D8CEB94E00E94D0129B
:101A40004A815B81401B51094132510514F040E24B
:101A500050E06D2D8CEB94E00E94C21221143104F1
:101A600081F053C0C701810F911D17FD9A959E8388
:101A70008D838CEB94E00E94FD11ED81FE818083CB
:101A80001F5F8CEB94E00E94F511892B59F7F981C7
:101A90000F0F0C1510F22114310409F045C0812FED
:101AA00026960FB6F894DEBF0FBECDBFDF91CF9163
:101AB0001F910F91FF90EF90DF90CF90BF90AF906C
:101AC0009F908F907F906F905F904F903F902F905E
:101AD00008950E94741BDC01CB0188199909AA0999
:101AE000BB0984159505A605B70588F6C701810FC2
:101AF000911D17FD9A959E838D838CEB94E00E9437
:101B0000FD11ED81FE8180831F5F8CEB94E00E94CC
:101B1000F511892BF1F6F9810F0F0C1508F47DCF23
:101B2000BACFE0E2E98374CF0E94741BDC01CB01E1
:101B300088199909AA09BB09A10160E070E084171E
:101B40009507A607B70708F4AACF2C2D30E0812F00
:101B5000012E000C990B821793070CF0A0CF1FEFFA
:101B60009ECF10E098CF4F925F926F927F928F92AC
:101B70009F92AF92BF92EF92FF920F931F93CF93DA
:101B8000C82F162F7A0149010E94741B2B013C01BA
:101B90006C2F8CEB94E00E94D012612F8CEB94E0C0
:101BA0000E9421128CEB94E00E94DA126C2F8CEBD5
:101BB00094E00E94D01241E06C2F8CEB94E00E94E4
:101BC000C212C0E08114910469F021C087010C0F9A
:101BD000111DC7FD1A958CEB94E00E94FD11F801D0
:101BE0008083CF5F8CEB94E00E94F511892B71F715
:101BF0008C2FCF911F910F91FF90EF90BF90AF90DE
:101C00009F908F907F906F905F904F900895A12C40
:101C1000B12C19C00E94741BDC01CB0184199509F9
:101C2000A609B70988159905AA05BB0590F487018F
:101C30000C0F111DC7FD1A958CEB94E00E94FD114D
:101C4000F8018083CF5F8CEB94E00E94F511892B23
:101C500009F70E94741BDC01CB0184199509A609C0
:101C6000B70988159905AA05BB0510F21C160CF4D6
:101C7000BFCFCFEFBDCFEF92FF920F931F93CF93C4
:101C8000DF931F92CDB7DEB7F82E062FE42E122F6A
:101C90002091050130910601AE014F5F5F4F0E9418
:101CA000B30D81E090E001C0880FEA94EAF71111CA
:101CB00024C080959981182F192319836F2D8CEBDF
:101CC00094E00E94D012602F8CEB94E00E942112CD
:101CD000612F8CEB94E00E9421128CEB94E00E9427
:101CE000DA1291E0811190E0892F0F90DF91CF916E
:101CF0001F910F91FF90EF9008951981182BDDCF60
:101D0000DF92EF92FF920F931F93CF93DF931F9277
:101D1000CDB7DEB7F82E162FE42ED22E2091050176
:101D200030910601AE014F5F5F4F0E94B30D8111EC
:101D30000BC090E0892F0F90DF91CF911F910F91F1
:101D4000FF90EF90DF9008954E2D50E04D1951090E
:101D50004F5F5F4F81E090E002C0880F991FDA94D7
:101D6000E2F70197042E01C0880F0A94EAF7202FAA
:101D700001C0220F4A95EAF7082F0095998109239F
:101D80008223082B09836F2D8CEB94E00E94D012E4
:101D9000612F8CEB94E00E942112602F8CEB94E079
:101DA0000E9421128CEB94E00E94DA1291E08823C9
:101DB00009F2BFCF28E6FC0120830895FC0160836F
:101DC00008950F93CF93DF93EC0101E023E042E00D
:101DD0006BE688810E94800E00E022E044E06BE127
:101DE00088810E94800E22E044E06CE188810E949C
:101DF000800E20E046E06BE68881DF91CF910F9165
:101E00000C943B0E0F931F93CF93DF93EC01009143
:101E10000501109106019C012F5F3F4F42E06DE3E9
:101E200088810E94DC0C89819A81982789279827CC
:101E3000DF91CF911F910F9108950F931F93CF932F
:101E4000DF93EC0100910501109106019C012F5FC9
:101E50003F4F42E06FE388810E94DC0C89819A81C8
:101E6000982789279827DF91CF911F910F91089587
:101E70000F931F93CF93DF93EC0100910501109115
:101E800006019C012F5F3F4F42E063E488810E947E
:101E9000DC0C89819A81982789279827DF91CF9137
:101EA0001F910F910895AB0166E0FC0180810C94B5
:101EB000B70CAB0168E0FC0180810C94B70CAB015E
:101EC0006AE0FC0180810C94B70CAB0163E1FC017A
:101ED00080810C94B70CAB0165E1FC0180810C940E
:101EE000B70CAB0167E1FC0180810C94B70CDC01FD
:101EF00070E0FB01EF52FF4FE4911496EC931497BE
:101F000050E0FA01EF52FF4FE4911596EC931597CC
:101F10006B517F4FFB018491E82FF0E0EE0FFF1F24
:101F2000ED5FFE4F8591949117969C938E93169733
:101F3000FA01EB51FF4FE491F0E0EE0FFF1FE75085
:101F4000FF4F8591949119969C938E931897FB015E
:101F50006491E62FF0E0EE0FFF1FE35FFE4F8591E7
:101F600094911B969C938E931A972F5F3F4F49E352
:101F7000429FC001439F900D11248E38FFE69F07BA
:101F800010F08DE89FE61D969C938E931C97089504
:101F90001F920F920FB60F9211242F933F934F93DE
:101FA0005F936F937F938F939F93AF93BF93EF93C1
:101FB000FF93E0914C04F0914D040995FF91EF914E
:101FC000BF91AF919F918F917F916F915F914F9151
:101FD0003F912F910F900FBE0F901F901895413297
:101FE00008F043C09091BB049111FCCF91E0909315
:101FF000BB042093B9042FEF20934E041092930456
:10200000240F209392049093BA049091BA04880FFD
:10201000892B8093BA048091B804813061F41092C6
:10202000B8048091BA048093BB008091BC0083FD0A
:10203000F8CF85EC01C085EE8093BC008091BB0495
:102040008130E1F380919304841710F4409193045C
:10205000A4E9B4E0962FFB018E2F891B841718F496
:102060008D918193F9CF842F089580E008950F9387
:10207000413208F04AC09091BB049111FCCF32E08C
:102080003093BB040093B9043FEF30934E04109299
:10209000930440939204562FA4E9B4E0FB013E2F31
:1020A000351B341718F431913D93F9CF1092BA04CF
:1020B0003091BA04880F832B8093BA048091B804BE
:1020C000813061F41092B8048091BA048093BB000F
:1020D0008091BC0083FDF8CF85EC01C085EE809334
:1020E000BC00222321F08091BB048230D1F3809187
:1020F0004E048F3F79F080914E04803241F0809100
:102100004E04803331F094E005C091E003C092E0CA
:1021100001C093E0892F0F91089540917004262FFC
:1021200030E0240F311D21323105DCF42091BB0455
:102130002430C9F4FC0180E090E0861758F4309117
:1021400070042191DC01AE58BB4FA30FB11D2C933D
:102150000196F3CF80917004680F6093700480E063
:10216000089581E0089582E0089585ED8093BC0094
:102170008091BC0084FDFCCF1092BB04089585ECD7
:102180008093BC001092BB0408951F920F920FB66B
:102190000F9211242F933F934F935F936F937F93ED
:1021A0008F939F93AF93BF93EF93FF938091B90069
:1021B000887F803609F49EC078F5883209F45DC0C6
:1021C00090F4803109F456C038F4882309F4F5C03E
:1021D000883009F44FC0F5C0883109F44EC0803210
:1021E00009F45FC0EEC0803409F46AC058F480334B
:1021F00009F457C0883309F0E4C080934E040E946C
:10220000BF10DFC0803509F44FC0883509F45DC0C8
:10221000883409F0D6C0D3C0883909F4C4C0A8F402
:10222000883709F467C038F4883609F463C080370A
:1022300009F460C0C6C0883809F4B5C0803909F413
:102240005FC0803809F0BDC05BC0803B09F483C02B
:1022500038F4803A09F466C0883A09F47CC0B1C009
:10226000803C09F4A4C0883C09F4A1C0883B09F46F
:1022700087C0A7C08091BA0410C090919304809148
:102280009204981770F5E091930481E08E0F80938B
:102290009304F0E0EC56FB4F80818093BB0085EC0B
:1022A00083C080934E048BC0E091930481E08E0F35
:1022B000809393048091BB00F0E0EC56FB4F808349
:1022C00090919304809192046BC0E091930481E01B
:1022D0008E0F809393048091BB00F0E0EC56FB4F8F
:1022E00080838091B90481116AC081E08093B80431
:1022F00084EA5EC083E08093BB0410924F04CFCF8A
:1023000080914F04803208F04EC0E0914F0481E08C
:102310008E0F80934F048091BB00F0E0E05BFB4F99
:102320008083BDCF0E94BF1080914F04803230F473
:10233000E0914F04F0E0E05BFB4F108260914F04AE
:1023400070E0E091B404F091B50480E594E0099563
:1023500010924F0436C084E08093BB041092710445
:1023600010927004E091B604F091B7040995809141
:102370007004811105C081E0809370041092720492
:10238000E091710481E08E0F80937104F0E0EE58CB
:10239000FB4F80818093BB00909171048091700409
:1023A000981708F47CCF85E88093BC000AC085ECC0
:1023B0008093BC001092BB0404C010924E040E9493
:1023C000B510FF91EF91BF91AF919F918F917F9148
:1023D0006F915F914F913F912F910F900FBE0F9092
:1023E0001F90189580E090E008958091EC0490E0B3
:1023F0002091ED04821B910908959091ED04809144
:10240000EC04981758F4E92FF0E0E251FB4F2081DB
:1024100030E09F5F9093ED04C90108952FEF3FEFE7
:10242000FBCFE091ED048091EC04E81730F4F0E08C
:10243000E251FB4F808190E008958FEF9FEF089568
:102440000895CF93DF931F92CDB7DEB7FC01698368
:102450009091C804992301F19091C904903290F4AD
:102460008091CA04E82FF0E0E553FB4F60838F5F53
:102470008093CA048093C90481E090E00F90DF91BB
:10248000CF91089581E090E09383828380E090E093
:102490000F90DF91CF91089561E0CE0101960E94E7
:1024A0008D1081E090E00F90DF91CF9108958F9291
:1024B0009F92AF92BF92CF92DF92EF92FF920F93D3
:1024C0001F93CF93DF931F92CDB7DEB77C01862F8A
:1024D0005A012091C804222309F44FC04115510527
:1024E000A1F1062F172F6801C40ED51E88248394EE
:1024F000912C06C0F70193828282C016D10629F181
:10250000D701ED91FC910190F081E02DD8016D9102
:102510008D01B2E1E132FB0769F569838091C8045E
:10252000882311F18091C904803220F78091CA0478
:10253000E82FF0E0E553FB4F60838F5F8093CA0480
:102540008093C904C016D106D9F6C5010F90DF915A
:10255000CF911F910F91FF90EF90DF90CF90BF90A0
:10256000AF909F908F90089561E0CE0101960E94F8
:102570008D10C3CFC7010995C0CF642F972F0E943C
:102580008D10E3CF862F413208F040E221E06EEE5D
:1025900074E00E94EF0F1092ED048093EC04089514
:1025A00081E08093C8046093EB041092CA041092F7
:1025B000C90408950F9301E021E04091C9046BEC38
:1025C00074E08091EB040E9437101092CA041092BC
:1025D000C9041092C8040F910895ECEBF4E0138243
:1025E000128288EE93E0A0E0B0E084839583A68316
:1025F000B78384E692E091838083089568E68EE055
:1026000095E00C94DE0E0E94251461E085E00E94A6
:10261000DD1B61E086E00E94DD1B0E9441140E94E8
:1026200039145D985E9808950E94491461E08BE02A
:102630000E94DD1B61E083E00E94DD1B0E946E149E
:102640000E9462145B982B9808950F931F93CF9369
:10265000DF938C01EB0197FD23C00E9439145E9833
:102660000E943D14802F0E944714D7FD0CC00E9489
:1026700062142B980E9468148C2FDF91CF911F91C8
:102680000F910C9477140E946E145B980E945C1456
:102690008C2F8195DF91CF911F910F910C94741421
:1026A0000E9441145D980E943514802F81950E94EC
:1026B0004514DBCF62E08FE00E94DD1B62E08EE01C
:1026C0000E94DD1B62E08DE00E94DD1B62E08CE079
:1026D0000E94DD1B83E08093680080E180936B00A3
:1026E00082E080936C0008951F920F920FB60F92B4
:1026F00011242F933F938F939F93AF93BF9323B155
:1027000093B130E0359527953595279535952795E3
:102710003595279535952795892F90E0959587953F
:102720009595879595958795959587958227932774
:1027300080FF23C080911F0590912005A091210565
:10274000B09122050197A109B10980931F059093CB
:102750002005A0932105B093220580911D05880FC7
:1027600080931D05BF91AF919F918F913F912F91C4
:102770000F900FBE0F901F90189580911F0590919C
:102780002005A0912105B09122050196A11DB11D42
:1027900080931F0590932005A0932105B0932205F7
:1027A00080911D05880F816080931D05DBCF1F92EE
:1027B0000F920FB60F9211242F938F939F93AF9385
:1027C000BF9386B126B190E095958795822780FFCB
:1027D00022C08091230590912405A0912505B091F8
:1027E00026050197A109B10980932305909324053B
:1027F000A0932505B093260580911E05880F809330
:102800001E05BF91AF919F918F912F910F900FBE99
:102810000F901F9018958091230590912405A09109
:102820002505B09126050196A11DB11D80932305B4
:1028300090932405A0932505B093260580911E054D
:10284000880F816080931E05DCCFE4E6F0E0808194
:102850008F7D808383EA84BD82E085BD81E08093A3
:102860006E0017BC18BC80E0089584B5806884BDF4
:10287000089584B58F7384BD089584B5806284BD46
:10288000089584B58F7C84BD089587BD089588BD63
:102890000895E4E6F0E080818F7B808383EA809373
:1028A000B00082E08093B100109270001092B300EB
:1028B0001092B40080E00895E0EBF0E08081806841
:1028C00080830895E0EBF0E080818F73808308952A
:1028D000E0EBF0E08081806280830895E0EBF0E03F
:1028E00080818F7C808308958093B30008958093C6
:1028F000B40008955058BB27AA270E9492140C9444
:10290000A5160E94971638F00E949E1620F039F402
:102910009F3F19F426F40C946D160EF4E095E7FB36
:102920000C946716E92F0E94B61658F3BA1762077F
:1029300073078407950720F079F4A6F50C94D81650
:102940000EF4E0950B2EBA2FA02D0B01B9019001CA
:102950000C01CA01A0011124FF27591B99F0593F0E
:1029600050F4503E68F11A16F040A22F232F342F56
:102970004427585FF3CF469537952795A795F040A4
:102980005395C9F77EF41F16BA0B620B730B840BB9
:10299000BAF09150A1F0FF0FBB1F661F771F881F71
:1029A000C2F70EC0BA0F621F731F841F48F48795C9
:1029B00077956795B795F7959E3F08F0B0CF9395BB
:1029C000880F08F09927EE0F9795879508950E9434
:1029D000971660F080E891E009F49EEF0E949E1641
:1029E00028F040E851E071F45EEF0CC00C946D16D5
:1029F0000C94D816E92FE0780E94B61640F3092E01
:102A0000052AB1F3261737074807590738F00E2E65
:102A100007F8E02569F0E025E0640AC0EF6307F8F5
:102A2000009407FADB01B9019D01DC01CA01AD0187
:102A3000EF930E9475150E94A5160E942A155F91BA
:102A4000552339F02BED3FE049E450FD49EC0C945F
:102A50007B140895DF93DD27B92FBF7740E85FE34C
:102A60001616170648075B0718F4D92F0E94E416BC
:102A70009F938F937F936F930E945917E8E6F0E03E
:102A80000E9470160E94A5162F913F914F915F9161
:102A90000E94FF16DD2351F09058A2EA2AED3FE094
:102AA00049EC5FE3D0785D270E949214DF910C948B
:102AB000A5160E94431608F481E008950E9472153D
:102AC0000C94A5160E949E1658F00E94971640F08E
:102AD00029F45F3F29F00C94671651110C94D91614
:102AE0000C946D160E94B61668F39923B1F3552322
:102AF00091F3951B550BBB27AA2762177307840711
:102B000038F09F5F5F4F220F331F441FAA1FA9F3A6
:102B100035D00E2E3AF0E0E832D091505040E69594
:102B2000001CCAF72BD0FE2F29D0660F771F881FF5
:102B3000BB1F261737074807AB07B0E809F0BB0BE8
:102B4000802DBF01FF2793585F4F3AF09E3F5105FC
:102B500078F00C9467160C94D9165F3FE4F3983E16
:102B6000D4F3869577956795B795F7959F5FC9F7E5
:102B7000880F911D9695879597F90895E1E0660F66
:102B8000771F881FBB1F621773078407BA0720F0DF
:102B9000621B730B840BBA0BEE1F88F7E095089548
:102BA0000E94D7156894B1110C94D91608950E940B
:102BB000BE1688F09F5798F0B92F9927B751B0F0FB
:102BC000E1F0660F771F881F991F1AF0BA95C9F7B1
:102BD00014C0B13091F00E94D816B1E008950C9461
:102BE000D816672F782F8827B85F39F0B93FCCF314
:102BF000869577956795B395D9F73EF4909580952E
:102C0000709561957F4F8F4F9F4F0895E89409C04D
:102C100097FB3EF490958095709561957F4F8F4F0F
:102C20009F4F9923A9F0F92F96E9BB279395F69525
:102C3000879577956795B795F111F8CFFAF4BB0FA3
:102C400011F460FF1BC06F5F7F4F8F4F9F4F16C007
:102C5000882311F096E911C0772321F09EE8872F91
:102C6000762F05C0662371F096E8862F70E060E04D
:102C70002AF09A95660F771F881FDAF7880F9695C6
:102C8000879597F90895990F0008550FAA0BE0E86A
:102C9000FEEF16161706E807F907C0F0121613061E
:102CA000E407F50798F0621B730B840B950B39F45E
:102CB0000A2661F0232B242B252B21F408950A26C4
:102CC00009F4A140A6958FEF811D811D089597F904
:102CD0009F6780E870E060E008959FEF80EC0895C2
:102CE000DF93CF931F930F93FF92EF92DF927B01BD
:102CF0008C01689406C0DA2EEF010E94FF16FE01D7
:102D0000E894A5912591359145915591A6F3EF0150
:102D10000E949214FE019701A801DA9469F7DF90EE
:102D2000EF90FF900F911F91CF91DF9108950024B4
:102D30000A941616170618060906089500240A9420
:102D400012161306140605060895092E0394000CA6
:102D500011F4882352F0BB0F40F4BF2B11F460FF35
:102D600004C06F5F7F4F8F4F9F4F089557FD90585E
:102D7000440F551F59F05F3F71F04795880F97FB3F
:102D8000991F61F09F3F79F08795089512161306F9
:102D90001406551FF2CF4695F1DF08C01616170628
:102DA0001806991FF1CF869571056105089408955D
:102DB000E894BB2766277727CB0197F908950E94EF
:102DC000431608F48FEF08959B01AC0160E070E0BA
:102DD00080E89FE30C945E150E94FF160C94A516E4
:102DE0000E94971638F00E949E1620F0952311F04D
:102DF0000C9467160C946D1611240C94D9160E942D
:102E0000B61670F3959FC1F3950F50E0551F629F62
:102E1000F001729FBB27F00DB11D639FAA27F00D33
:102E2000B11DAA1F649F6627B00DA11D661F829F5A
:102E30002227B00DA11D621F739FB00DA11D621F3F
:102E4000839FA00D611D221F749F3327A00D611D5C
:102E5000231F849F600D211D822F762F6A2F11243E
:102E60009F5750409AF0F1F088234AF0EE0FFF1F71
:102E7000BB1F661F771F881F91505040A9F79E3FC8
:102E8000510580F00C9467160C94D9165F3FE4F35B
:102E9000983ED4F3869577956795B795F795E7951E
:102EA0009F5FC1F7FE2B880F911D9695879597F927
:102EB00008959B01AC010C94EC16FC01918D228DC0
:102EC000892F90E0805C9F4F821B91098F73992717
:102ED0000895FC01918D828D981731F0828DE80F55
:102EE000F11D858D90E008958FEF9FEF0895FC010F
:102EF000918D828D981761F0828DDF01A80FB11D31
:102F00005D968C91928D9F5F9F73928F90E0089554
:102F10008FEF9FEF0895FC01538D448D252F30E0F6
:102F2000842F90E0821B930B541710F0CF960895D6
:102F3000019708958FEE98E1892B49F080E090E0A9
:102F4000892B29F00E94EF1881110C94000008953C
:102F5000FC01848DDF01A80FB11DA35ABF4F2C9136
:102F6000848D90E001968F739927848FA689B78905
:102F70002C93A089B1898C9180648C93938D848DDE
:102F8000981306C00288F389E02D80818F7D8083AD
:102F90000895EF92FF920F931F93CF93DF93EC016D
:102FA00081E0888F9B8D8C8D981305C0E889F98905
:102FB000808185FD24C0F62E0B8D10E00F5F1F4F22
:102FC0000F731127E02E8C8DE8120CC00FB607FC92
:102FD000FACFE889F989808185FFF5CFCE010E947B
:102FE000A817F1CF8B8DFE01E80FF11DE35AFF4FBB
:102FF000F0820B8FEA89FB898081806207C0EE89AD
:10300000FF896083E889F98980818064808381E019
:1030100090E0DF91CF911F910F91FF90EF90089575
:10302000CF93DF93EC01888D8823C9F0EA89FB896F
:10303000808185FD05C0A889B9898C9186FD0FC066
:103040000FB607FCF5CF808185FFF2CFA889B9893B
:103050008C9185FFEDCFCE010E94A817E7CFDF91BD
:10306000CF910895CF92DF92EF92FF921F93CF936B
:10307000DF93EC016A017B01122FE889F98982E074
:1030800080834115514E61057105B1F060E079E032
:103090008DE390E0A70196010E946F1CDA01C9013F
:1030A0000197A109B109B695A795979587959C01B8
:1030B000211580E13807A8F0E889F989108260E8D5
:1030C00074E88EE190E0A70196010E946F1CDA017E
:1030D000C9010197A109B109B695A795979587955B
:1030E0009C01EC85FD853083EE85FF852083188E5D
:1030F000EC89FD891083EA89FB8980818061808366
:10310000EA89FB89808188608083EA89FB898081E4
:1031100080688083EA89FB8980818F7D8083DF914D
:10312000CF911F91FF90EF90DF90CF9008951F9265
:103130000F920FB60F9211242F938F939F93EF93BB
:10314000FF93E0913705F09138058081E0913D05CE
:10315000F0913E0582FD12C09081809140058F5F05
:103160008F7320914105821751F0E0914005F0E006
:10317000E95DFA4F958F8093400501C08081FF91F2
:10318000EF919F918F912F910F900FBE0F901F90F5
:1031900018951F920F920FB60F9211242F933F9301
:1031A0004F935F936F937F938F939F93AF93BF934F
:1031B000EF93FF9387E295E00E94A817FF91EF91AC
:1031C000BF91AF919F918F917F916F915F914F913F
:1031D0003F912F910F900FBE0F901F90189587E28F
:1031E00095E00E945D1721E0892B09F420E0822FF1
:1031F0000895E7E2F5E01382128288EE93E0A0E002
:10320000B0E084839583A683B78386E792E09183B9
:10321000808385EC90E09587848784EC90E09787A5
:10322000868780EC90E0918B808B81EC90E0938B93
:10323000828B82EC90E0958B848B86EC90E0978B70
:10324000868B118E128E138E148E089508950E940F
:10325000A21B0E9426190E940C04CAE9D7E10E9411
:10326000AD052097E1F30E949A17F9CFCF92DF9234
:10327000EF92FF920F931F93CF93DF936C017A012C
:103280008B01C0E0D0E0CE15DF0581F0D8016D9153
:103290008D01D601ED91FC910190F081E02DC601E8
:1032A0000995892B11F02196EECF7E01C701DF91A0
:1032B000CF911F910F91FF90EF90DF90CF900895E5
:1032C0006115710579F0FB0101900020E9F7319754
:1032D000AF01461B570BDC01ED91FC910280F3819D
:1032E000E02D099480E090E008950C946019DC01D1
:1032F000ED91FC910190F081E02D099464E872E079
:103300000C9460190F931F93CF93DF93EC010E94ED
:1033100060198C01CE010E947E19800F911FDF91F0
:10332000CF911F910F9108958F929F92AF92BF926C
:10333000EF92FF920F931F93CF93DF93CDB7DEB73A
:10334000A1970FB6F894DEBF0FBECDBF7C01FA0186
:10335000CB0119A2223008F42AE08E010F5D1F4F25
:10336000822E912CA12CB12CBF01A50194010E94A9
:103370006F1CF901CA01015011096A3010F4605D37
:1033800001C0695CD8016C93232B242B252B61F79A
:10339000B801C7010E946019A1960FB6F894DEBF6C
:1033A0000FBECDBFDF91CF911F910F91FF90EF9096
:1033B000BF90AF909F908F9008952115310541F4F3
:1033C000DC01ED91FC910190F081E02D642F0994D6
:1033D0000C9494199A01AB0160E070E00C94DD1933
:1033E0000F931F93CF93DF93EC010E94DD198C01A3
:1033F000CE010E947E19800F911FDF91CF911F9106
:103400000F910895CF92DF92EF92FF920F931F9347
:10341000CF93DF932115310581F4DC01ED91FC910F
:103420000190F081E02D642FDF91CF911F910F91DA
:10343000FF90EF90DF90CF9009942A30310501F58D
:1034400077FF1DC06A017B01EC016DE20E947719D4
:103450008C0144275527BA014C195D096E097F0973
:103460002AE0CE010E949419800F911FDF91CF9125
:103470001F910F91FF90EF90DF90CF9008952AE079
:10348000DF91CF911F910F91FF90EF90DF90CF9040
:103490000C9494199A01AB01770F660B770B0C947F
:1034A000021A7F928F929F92AF92BF92CF92DF9239
:1034B000EF92FF920F931F93CF93DF938C016A01DA
:1034C0007B01722E9A01AB01C701B6010E945A1C02
:1034D000882319F067E872E027C046015701E89495
:1034E000B7F82FEF3FEF4FE75FE7C501B4010E9448
:1034F0005A1C81110DC02FEF3FEF4FE75FE7C50169
:10350000B4010E94591518161CF46BE872E00CC047
:103510002FEF3FEF4FE75FE4C701B6010E94DF16D0
:10352000181694F46FE872E0C801DF91CF911F91F3
:103530000F91FF90EF90DF90CF90BF90AF909F9052
:103540008F907F900C9460192FEF3FEF4FE75FEC67
:10355000C701B6010E94591587FDE4CF20E030E095
:10356000A901C701B6010E94591587FF0AC06DE283
:10357000C8010E947719EC01F7FAF094F7F8F0947B
:1035800002C0C0E0D0E0B12C60E070E080E09FE3DA
:103590007B1441F020E030E040E251E40E945E15EF
:1035A000B394F6CFA70196010E947B146B017C01B6
:1035B0000E94D7154B015C012AE0AB01BC01C80198
:1035C0000E949419C80FD91F7720B9F1C501B40121
:1035D0000E9406169B01AC01C701B6010E947A1435
:1035E0006B017C016EE2C8010E947719C80FD91FD8
:1035F00020E030E040E251E4C701B6010E94EC1641
:103600004B015C010E94D7156B017C014AE050E040
:10361000C8010E94EA19C80FD91FB60180E090E0E6
:103620000E9406169B01AC01C501B4010E947A14E8
:103630006B017C017A947110DBCFCE01DF91CF91C9
:103640001F910F91FF90EF90DF90CF90BF90AF90C0
:103650009F908F907F9008950C94511A1F920F9213
:103660000FB60F9211242F933F938F939F93AF9395
:10367000BF938091C5059091C605A091C705B091F3
:10368000C8053091C40520E1230F2D3728F023E928
:10369000230F0196A11DB11D2093C4058093C5057C
:1036A0009093C605A093C705B093C8058091C9053E
:1036B0009091CA05A091CB05B091CC050196A11DB2
:1036C000B11D8093C9059093CA05A093CB05B09313
:1036D000CC05BF91AF919F918F913F912F910F900A
:1036E0000FBE0F901F9018952FB7F8946091C505E5
:1036F0007091C6058091C7059091C8052FBF0895A8
:103700003FB7F8948091C9059091CA05A091CB0567
:10371000B091CC0526B5A89B05C02F3F19F00196A6
:10372000A11DB11D3FBFBA2FA92F982F8827820F47
:10373000911DA11DB11DBC01CD0196958795779571
:1037400067950895789484B5826084BD84B581605E
:1037500084BD85B5826085BD85B5816085BDEEE699
:10376000F0E0808181608083E1E8F0E01082808178
:1037700082608083808181608083E0E8F0E08081E6
:1037800081608083E1EBF0E0808184608083E0EB06
:10379000F0E0808181608083EAE7F0E080818460EE
:1037A000808380818260808380818160808380814A
:1037B000806880831092C1000895CF93DF9390E0DA
:1037C000FC01EF52FF4F2491FC01EB51FF4F84911C
:1037D000882361F190E0880F991FFC01E35FFE4FA1
:1037E000C591D491FC01ED5FFE4FA591B49161119B
:1037F00009C09FB7F8948881209582238883EC9133
:103800002E230BC0623061F49FB7F8948881322F69
:10381000309583238883EC912E2B2C939FBF06C079
:103820008FB7F894E8812E2B28838FBFDF91CF913B
:1038300008954F925F926F927F92AF92BF92CF9214
:10384000DF92EF92FF920F931F93CF93DF93CDB749
:10385000DEB729013A019B01AC012419350946095B
:10386000570989899A89AB89BC89BC01CD016A193C
:103870007B098C099D090E945F1CA80197012419EE
:103880003509460957090E94911CCA01B9016A0D00
:103890007B1D8C1D9D1DDF91CF911F910F91FF907E
:1038A000EF90DF90CF90BF90AF907F906F905F9040
:1038B0004F9008950E944316880B990B0895DB01E1
:1038C0008F939F930E94BF1CBF91AF91A29F800DC9
:1038D000911DA39F900DB29F900D11240895A1E218
:1038E0001A2EAA1BBB1BFD010DC0AA1FBB1FEE1F7A
:1038F000FF1FA217B307E407F50720F0A21BB30BC5
:10390000E40BF50B661F771F881F991F1A9469F740
:1039100060957095809590959B01AC01BD01CF019C
:103920000895052E97FB1EF400940E94A81C57FDD5
:1039300007D00E946F1C07FC03D04EF40C94A81C07
:1039400050954095309521953F4F4F4F5F4F0895CB
:1039500090958095709561957F4F8F4F9F4F0895FB
:10396000A29FB001B39FC001A39F700D811D1124C0
:10397000911DB29F700D811D1124911D08950E940B
:10398000B01CA59F900DB49F900DA49F800D911D1C
:1039900011240895EE0FFF1F0590F491E02D099476
:1039A000662777270C94091D44E952E00E94E21C27
:1039B0000895FB01DC018D91019080190110D9F36C
:1039C000990B0895FA01A191B081009719F410970D
:1039D000E1F0CD01DC01CD010D90002011F4C0011A
:1039E00013C0FB012191222319F02015D9F7F3CF41
:1039F000FB012191201519F41E92119606C0222375
:103A0000C1F70D900020A1F7D001FA01A193B08376
:103A10000895A0E0B0E0EFE0FDE10C94811EEC0120
:103A20006B016115710519F0FB01918380837E01A3
:103A3000FFEFEF1AFF0A0881802F90E00E94571EC7
:103A4000892B11F0E701F3CF0D3239F47E0182E0CA
:103A5000E80EF11C098111E008C00B3229F47E0147
:103A600092E0E90EF11C098110E0E701219743E0A3
:103A700050E06EE970E0CE010E94601E892BC1F417
:103A8000239645E050E069E970E0CE010E94601E97
:103A9000892B09F42596C114D10419F0F601D183BC
:103AA000C0831111F6C060E070E080E89FE7FAC0C3
:103AB00043E050E066E970E0CE010E94601E892B71
:103AC00059F4C114D10409F4E9C0F2E0EF0EF11C7D
:103AD000F601F182E082E2C020E030E0A901C0E01E
:103AE000D0E0F70180EDA82EA00E89E08A1530F114
:103AF000912F9260B92E812F887012FF04C081111E
:103B000024C0219622C081112197A5E0B0E00E9437
:103B1000BF1CDC01CB01880F991FAA1FBB1F9C0192
:103B2000AD012A0D311D411D511D283989E9380784
:103B3000480789E1580748F0166006C09EEFA912B1
:103B40000AC013FD40C01860B12E8FEFE81AF80AC2
:103B500000811B2DC6CF802F8F7D8534A1F58081FC
:103B60008D3211F4106106C08B3221F0319661E084
:103B700070E004C08181329662E070E080538A3048
:103B800018F0E61BF70B1FC060E070E060389CE0A7
:103B900079075CF4DB01AA0FBB1FAA0FBB1F6A0FDA
:103BA0007B1F660F771F680F711D3196DF0111971C
:103BB0008C9180538A3050F314FF03C07195619546
:103BC0007109C60FD71F11FF08C0C114D10429F015
:103BD000CF010197F60191838083CA01B9010E9448
:103BE0000616212F2370233019F04B015C0106C00B
:103BF0004B015C01B7FAB094B7F8B09420E030E024
:103C0000A901C501B4010E945915882309F43EC0D9
:103C1000D7FF06C0D195C195D10905EB10E002C0D0
:103C20000DEC10E06801F8E1CF1AD10890E2E92E1E
:103C3000F12CCE15DF0574F0F801259135914591F1
:103C40005491C501B4010E94EC164B015C01CE19E0
:103C5000DF09EFCF04501109F594E7940C151D0509
:103C600041F78A2D880F8B2D881F8F3F49F020E068
:103C700030E0A901C501B4010E945915811106C0A7
:103C800082E290E09093CE058093CD05C501B4010A
:103C900009C060E070E080E89FEF04C060E070E081
:103CA00080EC9FE7CDB7DEB7ECE00C949D1E911140
:103CB0000C94781E803219F089508550C8F7089509
:103CC000FB01DC014150504088F08D9181341CF0A3
:103CD0008B350CF4805E659161341CF06B350CF40F
:103CE000605E861B611171F3990B0895881BFCCFF0
:103CF0009927882708952F923F924F925F926F9253
:103D00007F928F929F92AF92BF92CF92DF92EF926B
:103D1000FF920F931F93CF93DF93CDB7DEB7CA1BEC
:103D2000DB0B0FB6F894DEBF0FBECDBF09942A8817
:103D3000398848885F846E847D848C849B84AA84BF
:103D4000B984C884DF80EE80FD800C811B81AA814C
:103D5000B981CE0FD11D0FB6F894DEBF0FBECDBF17
:083D6000ED010895F894FFCF76
:103D6800E503020401E80344443A200053500044A8
:103D7800656275673A205350205374617274004D20
:103D880030004D310047690044656275673A205339
:103D98005020446F6E650047440044656275673A79
:103DA8002047442053746172740044656275673A11
:103DB80020474420446F6E65005353004465627584
:103DC800673A2053532053746172740044656275D6
:103DD800673A20535320446F6E650047435F4F4E48
:103DE8000047435F4F4646004752505F4F4E0047DB
:103DF80052505F4F4646004D505F4F4E004D505F4A
:103E08004F46460047505F4F4E0047505F4F46466B
:103E180000454E433A2000203020005049443A20C3
:103E2800004752443A200047494F3A2000536574EE
:103E380075703A53657269616C20496E697469617D
:103E48006C697A65640053657475703A204D7075B5
:103E58003630353020496E697469616C697A6564F9
:103E68000053657475703A204D6F746F72732049F2
:103E78006E697469616C697A6564005365747570FC
:103E88003A20456E636F6465727320496E69746980
:103E9800616C697A65640053657475703A2050697D
:103EA800647320696E697469616C697A656400532A
:103EB800657475703A20446F6E65004D433A200072
:103EC8000000000021125712F2112012F511FD1105
:103ED800111200000000C91736198B1710185D174A
:103EE800771769170D0A006E616E00696E66006FBC
:043EF80076660000EA
:00000001FF
