S0130000417264754769726F626F742E73726563AF
S11300000C94D3000C94FB000C94FB000C9401158D
S11300100C947E150C94FB000C94FB000C948A1138
S11300200C94FB000C94FB000C94FB000C94FB0060
S11300300C94FB000C94FB000C94FB000C94FB0050
S11300400C943E1D0C94FB000C94F61A0C94281B83
S11300500C94FB000C94FB000C94FB000C94FB0030
S11300600C9487120C94FB0039034A03650378034C
S11300708903A203B503C603D9032704F203F703D4
S1130080000427042704270427042704270405045D
S113009009040C041004130417041A041E04210494
S11300A027042504AA06B706CE06DB06E806F506ED
S11300B00607170724073B154715531547157215EF
S11300C05F153B153B155F157215471553154715FD
S11300D03B15B615C215CE15C215ED15DA15B615B4
S11300E0B615DA15ED15C215CE15C215B615084AA2
S11300F0D73B3BCE016E84BCBFFDC12F3D6C743138
S11301009ABD56833DDA3D00C77F11BED9E4BB4C8E
S11301103E916BAAAABE000000803F004E414E49AA
S11301204E495459494E46CDCCCC3D0AD7233C17B1
S1130130B7D13877CC2B329595E6241FB14F0A00FE
S11301400020410000C84200401C4620BCBE4CCAEE
S11301501B0E5AAEC59D7401020408102040800194
S113016002040810200102040810200404040404FA
S11301700404040202020202020303030303030051
S113018000000023002600290000000000250028AC
S1130190002B0000000000240027002A0000950521
S11301A0D614DA14581B11241FBECFEFD8E0DEBFDB
S11301B0CDBF11E0A0E0B1E0ECE8F3E402C00590AB
S11301C00D92AA3FB107D9F724E0AAEFB1E001C02C
S11301D01D92A133B207E1F710E0C3EDD0E004C0F3
S11301E02197FE010E94C01ECF3CD107C9F70E948F
S11301F0861B0C94C4210C940000AF92BF92DF9232
S1130200EF92FF920F931F93CF93DF93EC017B0147
S11302108B015C0184E0A80EB11CF801D1908F0120
S1130220CE010E947721D81621F06D2DCE010E94B7
S11302307F212196CA15DB0581F7C701DF91CF9194
S11302401F910F91FF90EF90DF90BF90AF900895B2
S1130250CF92DF92EF92FF920F931F93CF93DF938E
S1130260EB017B0124E0E20EF11C8B016C01C61A48
S1130270D70AC601800F911F0E947721F80181934C
S11302808F01EE15FF05A9F7CE01DF91CF911F91E4
S11302900F91FF90EF90DF90CF9008950F931F93ED
S11302A0CF93DF938C01EB010E94FD00BE016C5FD4
S11302B07F4FC80104960E94FD00BE01685F7F4F16
S11302C0C8010896DF91CF911F910F910C94FD0006
S11302D00F931F93CF93DF938C01EB010E942801AE
S11302E0BE016C5F7F4FC80104960E942801BE01C5
S11302F0685F7F4FC8010896DF91CF911F910F91DE
S11303000C942801609160027091610280E090E099
S11303100E94680160915E0270915F028CE090E03F
S11303200E94680160915C0270915D0288E190E036
S11303300C946801609160027091610280E090E029
S11303400E944E0160915E0270915F028CE090E029
S11303500E944E0160915C0270915D0288E190E020
S11303600C944E018F929F92AF92BF92CF92DF92E4
S1130370EF92FF920F931F93CF9388E190E00E9436
S1130380951BFC01C12CD12C80E2E82E82E4F82ECE
S1130390C082D182E282F38210861186128613868D
S11303A0812C912C98ECA92E92E4B92E848295820A
S11303B0A682B7821486158616861786F093610284
S11303C0E093600288E190E00E94951BFC01C082EA
S11303D0D182E282F3821086118612861386848289
S11303E09582A682B7821486158616861786909300
S11303F05F0280935E0288E190E00E94951BFC01FD
S11304008DEC9CECACE4BFE380839183A283B38343
S1130410108611861286138684839583A683B783F8
S113042080E090E0A0E4B0EC84879587A687B78746
S1130430F0935D02E0935C020E9482018CE390E001
S11304400E94951B4C01E0916002F0916102A4802E
S1130450B580C680D780E080F180028113819F013E
S1130460245F3F4FAF014C5E5F4FBF01605F7F4F22
S11304701F921F921F92C1E0CF9383858F93828531
S11304808F9381858F9380858F93C4010E94440E3E
S113049090925B0280925A028CE390E00E94951B3A
S11304A04C01E0915E02F0915F02A480B580C680A9
S11304B0D780E080F180028113819F01245F3F4F48
S11304C0AF014C5E5F4FBF01605F7F4F1F921F9271
S11304D01F92CF9383858F9382858F9381858F938A
S11304E080858F93C4010E94440E90925902809299
S11304F058028CE390E00E94951B4C01E0915C0251
S1130500F0915D02A480B580C680D780E080F18040
S1130510028113819F01245F3F4FAF014C5E5F4F07
S1130520BF01605F7F4F1F921F921F92CF938385FD
S11305308F9382858F9381858F9380858F93C40158
S11305400E94440E909257028092560265E070E039
S113055080915A0290915B020E94DD0C65E070E08C
S113056080915802909159020E94DD0C65E070E080
S113057080915602909157020E94DD0C00E010E039
S11305802FE733E440E050E06FE773EC80915A02C8
S113059090915B020E942B0D00E010E02FE733E402
S11305A040E050E06FE773EC80915802909159025B
S11305B00E942B0D00E010E02CE032E440E050E01B
S11305C06CE072EC80915602909157020E942B0DC0
S11305D061E070E080915A0290915B020E94F10DFB
S11305E061E070E080915802909159020E94F10DEF
S11305F08DB79EB748960FB6F8949EBF0FBE8DBFB9
S113060061E070E08091560290915702CF911F9162
S11306100F91FF90EF90DF90CF90BF90AF909F909D
S11306208F900C94F10D8F929F92AF92BF92CF92C4
S1130630DF92EF92FF920F931F93209115022223D2
S113064009F407C100911602209117022A3031F0F3
S113065087E192E00E940120AB01BC0110E0F801A7
S11306603197EE31F10508F0F2C0EC5CFF4F0C94C9
S1130670C01EE0916002F091610240835183628365
S11306807383C084D184E284F38404811581268138
S1130690378114C0E0916002F09161024483558374
S11306A066837783C084D184E284F38480809180DC
S11306B0A280B3808A019B01B501A40180915A02F2
S11306C090915B020E94C70CC2C0E0916002F0915D
S11306D0610240875187628773870481158126816F
S11306E0378180809180A280B3806A017B01E4CF4E
S11306F0E0915E02F0915F024083518362837383D1
S1130700C084D184E284F3840481158126813781F5
S113071014C0E0915E02F0915F02448355836683C6
S11307207783C084D184E284F38480809180A28022
S1130730B3808A019B01B501A40180915802909174
S11307405902C0CFE0915E02F0915F024087518769
S11307506287738704811581268137818080918027
S1130760A280B3806A017B01E6CFE0915C02F09144
S11307705D024083518362837383C084D184E284A5
S1130780F384048115812681378127C0E0915C02BE
S1130790F0915D024483558366837783C084D1845A
S11307A0E284F38480809180A280B3808A019B01DB
S11307B012C0E0915C02F0915D024087518762872C
S11307C07387048115812681378180809180A2807E
S11307D0B3806A017B01B501A40180915602909116
S11307E0570270CFE0916002F091610204C0E09181
S11307F05E02F0915F02448755876687778727C03A
S1130800E0915C02F0915D02F6CF81E080930B01F0
S11308101EC010920B011BC081E080930A0117C017
S113082010920A0114C081E08093090110C0109253
S113083009010DC081E080930D0109C010920D01E2
S113084006C081E080930C0102C00E949A011092BC
S113085015021F910F91FF90EF90DF90CF90BF9002
S1130860AF909F908F900895CF93DF93C0916002D3
S1130870D09161026091810370918203809183031E
S1130880909184030E946718688B798B8A8B9B8B69
S1130890C0915E02D0915F0260917D0370917E03EE
S11308A080917F03909180030E946718688B798BF5
S11308B08A8B9B8B10928103109282031092830384
S11308C01092840310927D0310927E0310927F0392
S11308D010928003DF91CF9108958F929F92AF92EF
S11308E0BF92CF92DF92EF92FF920F931F93CF9319
S11308F0DF930E94841D60930B0270930C0280931B
S11309000D0290930E02C0900302D0900402E09076
S11309100502F09006029B01AC012C193D094E0919
S11309205F09209307023093080240930902509311
S11309300A02609303027093040280930502909369
S1130940060283E892E00E949B10909382028093B7
S1130950810283E892E00E94B61090938002809313
S11309607F0283E892E00E94D110EC0190937E0212
S113097080937D0260917F0270918002072E000CAB
S1130980880B990B0E9467186B017C0160918102AE
S113099070918202072E000C880B990B0E94671835
S11309A0A70196010E94591721EE3EE245E652E462
S11309B00E944B19609377027093780280937902B6
S11309C090937A02BE01DD0F880B990B1F921F9240
S11309D01F922AEF2F9326E0A22EBB24BA94CB2C8D
S11309E0DB2CEE24EA941FE7F12E00E010E020E077
S11309F030E84FEF5FEF0E94291E70937C026093F2
S1130A007B02C0917B02D0917C02609107027091BD
S1130A1008028091090290910A020E9465186B01F4
S1130A207C01BE01DD0F880B990B0E9467189B01A6
S1130A30AC01C701B6010E944B1920E030E04AE73F
S1130A4054E40E94BD176093730270937402809300
S1130A5075029093760260916B0270916C028091A2
S1130A606D0290916E022091730230917402409154
S1130A707502509176028090770290907802A0904F
S1130A807902B0907A020E94DA1626E73FE44EE734
S1130A905FE30E944B196B017C0120ED34E448EDC7
S1130AA05BE3C501B4010E944B199B01AC01C70172
S1130AB0B6010E94DA1660936F02709370028093FD
S1130AC071029093720280916F0290917002A091D2
S1130AD07102B091720280936B0290936C02A093A6
S1130AE06D02B0936E0280916F0290917002A0919A
S1130AF07102B0917202E0915C02F0915D02B05813
S1130B00808B918BA28BB38B0F900F900F900F90D3
S1130B10DF91CF911F910F91FF90EF90DF90CF90D5
S1130B20BF90AF909F908F9008952BE430E048E001
S1130B3069E082E992E00E94481183E892E00C9413
S1130B407E1085E893E00E94EA1906970CF49DC193
S1130B50809107018093060190910B01992309F478
S1130B6044C08230A9F0833051F18130F1F582E044
S1130B708093070161E085E893E00E94281AE091E0
S1130B806002F0916102408951896289738910C0C1
S1130B9083E08093070162E085E893E00E94281ACD
S1130BA0E0916002F09161024489558966897789F0
S1130BB022E030E085E893E00E942C1D16C063E03B
S1130BC085E893E00E94281AE0916002F0916102A6
S1130BD0448555856685778522E030E085E893E095
S1130BE00E942C1D81E08093070180910A018823D3
S1130BF009F44AC080910701813011F484E043C1B3
S1130C008530A9F0863051F18430F1F585E0809388
S1130C10070164E085E893E00E94281AE0915E02EF
S1130C20F0915F02408951896289738910C086E01E
S1130C308093070165E085E893E00E94281AE0911B
S1130C405E02F0915F02448955896689778922E0C2
S1130C5030E085E893E00E942C1D16C066E085E82C
S1130C6093E00E94281AE0915E02F0915F024485AD
S1130C7055856685778522E030E085E893E00E941B
S1130C802C1D81E08093070180910901882309F4D8
S1130C904AC080910701813011F487E0F4C08830A4
S1130CA0A9F0893051F18730F1F588E0809307018C
S1130CB067E085E893E00E94281AE0915C02F091D5
S1130CC05D02408951896289738910C089E08093EB
S1130CD0070168E085E893E00E94281AE0915C022D
S1130CE0F0915D02448955896689778922E030E074
S1130CF085E893E00E942C1D16C069E085E893E026
S1130D000E94281AE0915C02F0915D0244855585A9
S1130D106685778522E030E085E893E00E942C1D0B
S1130D2081E08093070180910C01882309F4A4C019
S1130D30E0910701E13011F48BE0A5C08E2F90E023
S1130D40FC013B97E930F10508F096C0EE5AFF4FDD
S1130D500C94C01E8CE0809307016BE085E893E05F
S1130D600E94281AE0916002F09161025BC08DE05C
S1130D70809307016CE085E893E00E94281AE091D3
S1130D806002F0916102448155816681778122E09D
S1130D9030E085E893E00E942C1D6EC08EE08093C5
S1130DA007016DE085E893E00E94281AE091600253
S1130DB0F091610226C08FE0809307016EE085E820
S1130DC093E00E94281AE0915E02F0915F022AC02B
S1130DD080E1809307016FE085E893E00E94281A80
S1130DE0E0915E02F0915F02CECF81E18093070132
S1130DF060E185E893E00E94281AE0915E02F09198
S1130E005F024085518562857385C1CF82E18093FD
S1130E10070161E185E893E00E94281AE0915C02F1
S1130E20F0915D024081518162817381B0CF83E191
S1130E308093070162E185E893E00E94281AE0911B
S1130E405C02F0915D029FCF63E185E893E00E942C
S1130E50281AE0915C02F0915D024085518562851B
S1130E60738522E030E085E893E00E942C1D81E048
S1130E708093070110920C01909106018091070163
S1130E80981303C081E0809307010895CF93DF9303
S1130E90EC016FEF85E893E00E94281ABE0185E813
S1130EA093E0DF91CF910C94E11B26E040E052ECFB
S1130EB061E070E085E893E00E94911A80E191E09E
S1130EC00E94460783E892E00E94FE1065EF71E0FD
S1130ED083E892E00E94121161E176E083E892E0F7
S1130EE00E94181168E275E083E892E00E941E11E6
S1130EF066E970E083E892E00E9424116AEF7FEFD4
S1130F0083E892E00E942A1163E170E083E892E0B2
S1130F100E94301189E291E00E9446070E941A164D
S1130F200E942D1660E070E080E090E00E9465165B
S1130F3084E491E00E9446070E94DF148EE591E06C
S1130F400E9446070E94B2018AE791E00E94460788
S1130F5081E991E00E9446076DE971E085E893E03C
S1130F600E94E11B61EB71E085E893E00E94E11BC4
S1130F70E0915E02F0915F02448155816681778140
S1130F8022E030E085E893E00E942A1D66EB71E0E0
S1130F9085E893E00E94E11BE0915E02F0915F021C
S1130FA0408151816281738122E030E085E893E0E1
S1130FB00E942A1D6BEB71E085E893E00E94E11B1F
S1130FC0E0915E02F0915F024085518562857385F0
S1130FD022E030E085E893E00E942A1D60EC71E095
S1130FE085E893E00C94E11BCF93DF93C1E0DFE34A
S1130FF085E893E00E94BC19181619061CF5809127
S1131000150281111FC085E893E00E94D619E09172
S1131010FA018A3071F0AE2FB0E0AA5EBD4F8C9316
S1131020EF5FE03418F4E093FA01E2CFD093FA01D1
S1131030DFCFF0E0EA5EFD4F10821092FA01C09318
S11310401502D6CFDF91CF9108958F929F92AF92E0
S1131050BF92CF92DF92EF92FF920F931F93CF93A1
S1131060DF930E94901D6093FF01709300028093B0
S11310700102909302020E94841D6B017C01809105
S1131080670290916802A0916902B0916A02A70177
S11310909601281B390B4A0B5B0B253031054105A2
S11310A0510550F0C0926702D0926802E092690242
S11310B0F0926A020E9434040E946D04C0911302EB
S11310C0D0911402C2FF3DC000915C0210915D02F8
S11310D0F80184849584A684B78420E030E040E25B
S11310E051ECC501B4010E943E1918166CF42DECA4
S11310F03CEC4CEC5DE3C501B4010E94D916F80147
S1131100648775878687978720E030E040EA51EC52
S1131110F80164897589868997890E943E19181691
S113112084F42DEC3CEC4CE45DE3F80164857585B6
S1131130868597850E94D916F80164877587868706
S11311409787C3FF3DC000915C0210915D02F801D6
S113115084849584A684B78420E030E040E850E499
S1131160C501B4010E94B81787FF0DC02DEC3CECFB
S11311704CEC5DE3C501B4010E94DA16F801648702
S113118075878687978720E030E040EA51E4F801CC
S113119064897589868997890E94B81787FF10C06A
S11311A02DEC3CEC4CE45DE3F801648575858685A3
S11311B097850E94DA16F801648775878687978772
S11311C0CC70DD27CD2BD1F5C0915C02D0915D02AE
S11311D08C849D84AE84BF8420E030E040E05FE3F3
S11311E0C501B4010E943E1918164CF42DEC3CECD8
S11311F04CE45DE3C501B4010E94D91612C020E09D
S113120030E040E05FEBC501B4010E94B81787FFEE
S11312100DC02DEC3CEC4CE45DE3C501B4010E942F
S1131220DA166C877D878E879F8708C080E090E000
S1131230A0E4B0EC8C879D87AE87BF87809156026F
S1131240909157020E948A0AC0911302D09114020D
S1131250C0FF2DC0009160021091610260910801ED
S113126070E080E090E00E9467184B015C019B01F4
S1131270AC01F80160897189828993890E94DA1628
S1131280F801608B718B828B938B00915E021091BD
S11312905F02A5019401F8016089718982899389AB
S11312A00E94D916F801608B718B828B938BC1FFDE
S11312B02AC0C0916002D09161026091080170E07F
S11312C080E090E00E9467184B015C019B01AC0137
S11312D0688979898A899B890E94D916688B798B58
S11312E08A8B9B8BC0915E02D0915F02A501940111
S11312F0688979898A899B890E94DA16688B798B37
S11313008A8B9B8B02C0CD2BC1F00E94841D00915F
S11313100F02109110022091110230911202DC018F
S1131320CB01801B910BA20BB30B8897A105B105D0
S113133020F0109214021092130280910D01882360
S1131340C1F0E0915C02F0915D0284899589A689DF
S1131350B789E0916002F091610284879587A6873E
S1131360B787E0915E02F0915F0284879587A68734
S1131370B78780915A0290915B020E948A0A8091F9
S11313805802909159020E948A0A80916202811146
S11313901EC0E0915C02F0915D0280889188A28871
S11313A0B38820E030E040EC50ECC501B4010E9469
S11313B03E19181664F420E030E0A901C501B40117
S11313C00E94B81787FF03C081E080936202809176
S11313D00D01882309F449C0809162028823A1F198
S11313E0C0915C02D0915D0288889988AA88BB88E4
S11313F020E030E048E452E4C501B4010E943E1903
S1131400181614F120E030E048E452ECC501B401B0
S11314100E94B81787FD18C08C889D88AE88BF8845
S113142020E030E040E85FE3C501B4010E943E19CA
S11314301816DCF420E030E040E85FE3C501B401B5
S11314400E94B81787FF11C060E070E080E090E070
S11314500E946516109262021092FB011092FC0128
S11314601092FD011092FE011BC0E0915E02F0910A
S11314705F0264897589868997890E942F184B01B8
S11314805C01E0916002F09161026489758986894A
S113149097890E942F18DC01CB01B4010E946516C4
S11314A08091630290916402A0916502B0916602FA
S11314B0A7019601281B390B4A0B5B0B253031051C
S11314C041055105D0F0C0926302D0926402E092CB
S11314D06502F09266020E94F4070E941303DF91F2
S11314E0CF911F910F91FF90EF90DF90CF90BF901D
S11314F0AF909F908F900C94A105DF91CF911F9195
S11315000F91FF90EF90DF90CF90BF90AF909F909E
S11315108F9008952F923F924F925F926F927F9295
S11315208F929F92AF92BF92CF92DF92EF92FF92EF
S11315300F931F93CF93DF93CDB7DEB760970FB6AA
S1131540F894DEBF0FBECDBFDC01DA96BC91B9833F
S1131550B11102C019822BC1988B8F870E94841D00
S11315606E837F8388879987EF85F88982A193A109
S1131570A4A1B5A14E815F8168857985481B590B6B
S11315806A0B7B0B86A597A5A0A9B1A94817590793
S11315906A077B07F8F2048CF58DE02D8081918138
S11315A0A281B3818A839B83AC83BD83AF85B889D1
S11315B09096ED91FC9191972A813B814C815D81BC
S11315C060817181828193810E94D9164B015C01F3
S11315D0EF85F88922A533A544A555A56A817B81A9
S11315E08C819D810E94D9166B017C01AF85B889DD
S11315F050962D913D914D915C915397C501B40145
S11316000E944B19EF85F88926A137A140A551A561
S11316100E94DA162B013C01AF85B88996966D932A
S11316207D938D939C939997DB96BC91BA87B11166
S113163018C0EF85F8892485358546855785C70107
S1131640B6010E944B199B01AC01C301B2010E9477
S1131650D916AF85B88996966D937D938D939C9397
S11316609997EF85F88946A057A060A471A416A99C
S113167007A930AC21AC212F302F432D522DC301AB
S1131680B2010E943E1918162CF4812F902FA32D1D
S1131690B22D18C0AF85B889D2968D919D910D90C9
S11316A0BC91A02D8B879C87AD87BE879C01AD0123
S11316B0C301B2010E94B81787FF0AC08B859C85BD
S11316C0AD85BE85EF85F88986A397A3A0A7B1A7AA
S11316D0FA85FF2379F0AF85B8891C962D913D9149
S11316E04D915C911F97C501B4010E944B194B01A8
S11316F05C0103C0812C912C5401EF85F889248965
S1131700358946895789C701B6010E944B199B0147
S1131710AC01AF85B88996966D917D918D919C9120
S113172099970E94D916A50194010E94DA166B01BB
S11317307C019B01AC01612F702F832D922D0E949F
S1131740B81787FD14C0EF85F88912A903A934A836
S113175025A8212F302F432D522DB601C7010E94F9
S1131760B81787FD04C01C2D0D2D3E2C2F2CAF85E2
S1131770B8895E96ED91FC915F97812F902FA32DF0
S1131780B22D80839183A283B3838A819B81AC81B0
S1131790BD81EF85F88982A793A7A4A7B5A78E81F9
S11317A09F81A885B98582A393A3A4A3B5A38981A6
S11317B060960FB6F894DEBF0FBECDBFDF91CF9118
S11317C01F910F91FF90EF90DF90CF90BF90AF905B
S11317D09F908F907F906F905F904F903F902F904D
S11317E008954F925F926F927F928F929F92AF92E1
S11317F0BF92CF92DF92EF92FF920F931F93CF93FA
S1131800DF9300D000D000D0CDB7DEB79E838D83A8
S113181049835A836B837C832801390120E030E0BB
S1131820A90169817A818B819C810E94B81787FD07
S113183097C020E030E0A901C301B2010E94B817AB
S113184087FD8EC020E030E0A901C701B6010E94E7
S1131850B81787FD85C0AD81BE815B96BC92AE9200
S11318605A9781E0AA94AB2809F080E0ED81FE81CB
S113187083AF89819A81AB81BC8180839183A28368
S1131880B3834482558266827782C086D186E2869B
S1131890F38666A577A580A991A90E94651820E022
S11318A030E04AE754E40E94BD174B015C01898192
S11318B09A81AB81BC81ED81FE8184879587A6875F
S11318C0B787A5019401C301B2010E944B192B01F2
S11318D03C01AD81BE8150966D937D938D939C9315
S11318E05397A5019401C701B6010E94BD176B016E
S11318F07C01ED81FE81648B758B868B978B808D4B
S1131900918D019769F529813A814B815C8160E071
S113191070E0CB010E94D916AD81BE811C966D93F7
S11319207D938D939C931F97A301920160E070E0D7
S1131930CB010E94D916ED81FE81608B718B828B65
S1131940938BA701960160E070E0CB010E94D91649
S1131950AD81BE8154966D937D938D939C935797DF
S113196026960FB6F894DEBF0FBECDBFDF91CF91A0
S11319701F910F91FF90EF90DF90CF90BF90AF90A9
S11319809F908F907F906F905F904F900895AF924B
S1131990BF92CF92DF92EF92FF920F931F93FC01BD
S11319A0A28CB38C0E94F10B1F910F91FF90EF90CA
S11319B0DF90CF90BF90AF9008958F929F92AF9297
S11319C0BF92CF92DF92EF92FF92CF93DF931616DE
S11319D01706B4F56B01EC010D2C000CEE08FF08A2
S11319E0C701B6010E9467184B015C016EA57FA573
S11319F088A999A90E9465189B01AC01C501B4018D
S1131A000E94BD174B015C019B01AC016889798977
S1131A108A899B890E944B19688B798B8A8B9B8B53
S1131A20A50194016C897D898E899F890E94BD17C7
S1131A306C8B7D8B8E8B9F8BCEA6DFA6E8AAF9AA32
S1131A40DF91CF91FF90EF90DF90CF90BF90AF9058
S1131A509F908F9008952F923F924F925F926F9232
S1131A607F928F929F92AF92BF92CF92DF92EF922A
S1131A70FF920F931F93CF93DF93EC016A017B01D5
S1131A8048015901A9019801C701B6010E943E19F4
S1131A9087FF4EC0CAAADBAAECAAFDAA8EAA9FAAF7
S1131AA0A8AEB9AE8AAD882309F442C02E8C3F8C0F
S1131AB0F1014080518062807380A3019201C501CD
S1131AC0B4010E94B81787FF06C0F1018082918299
S1131AD0A282B3820DC0A3019201C701B6010E9484
S1131AE03E1918162CF4F101C082D182E282F382ED
S1131AF08EA09FA0A8A4B9A4CEA8DFA8E8ACF9AC96
S1131B00A7019601C501B4010E943E19181664F09C
S1131B10CAA8DBA8ECA8FDA8A7019601C501B401D9
S1131B200E94B81787FF04C0CEA2DFA2E8A6F9A6D8
S1131B30DF91CF911F910F91FF90EF90DF90CF90A5
S1131B40BF90AF909F908F907F906F905F904F90D9
S1131B503F902F9008958F929F92AF92BF92CF9211
S1131B60DF92EF92FF92CF93DF93EC01EE8DFF8D26
S1131B70C080D180E280F380CEA2DFA2E8A6F9A6DD
S1131B80EC8DFD8D80819181A281B3818AA79BA771
S1131B90ACA7BDA78EA89FA8A8ACB9ACA501940119
S1131BA0C701B6010E943E19181664F08AA89BA8C2
S1131BB0ACA8BDA8A5019401C701B6010E94B8173D
S1131BC087FF04C08EA29FA2A8A6B9A6DF91CF91D9
S1131BD0FF90EF90DF90CF90BF90AF909F908F9049
S1131BE008951F93CF93DF93EC0111E061307105E9
S1131BF009F010E06130710531F48AAD811103C040
S1131C00CE010E94AB0D1AAFDF91CF911F910895C1
S1131C100F931F93CF93DF93EC018B018AAD88233D
S1131C2061F1888D998D8617970739F12C853D854B
S1131C304E855F8560E070E0CB010E94D9166C8709
S1131C407D878E879F87288939894A895B8960E0E7
S1131C5070E0CB010E94D916688B798B8A8B9B8BA1
S1131C602C893D894E895F8960E070E0CB010E9438
S1131C70D9166C8B7D8B8E8B9F8B198F088FDF9180
S1131C80CF911F910F9108954F925F926F927F921F
S1131C908F929F92AF92BF92CF92DF92EF92FF9278
S1131CA00F931F93CF93DF9300D000D0CDB7DEB74F
S1131CB04C0127013801A982BA82CB82DC82FC0163
S1131CC0578F468F758F648F31A320A312AE12AA4B
S1131CD013AA14AA15AA80E090E0AFE7B3E486AB98
S1131CE097ABA0AFB1AF84E690E0A0E0B0E086A7E8
S1131CF097A7A0ABB1AB6D8D7E8DC4010E94080E79
S1131D00AB8CBC8CCF88D88CE98CFA8C09811A8175
S1131D102B813C81B301A201C4010E94F10B0E94FA
S1131D20841DF40146A457A460A871A8DC01CB016A
S1131D3084199509A609B70982A393A3A4A3B5A3FB
S1131D400F900F900F900F90DF91CF911F910F91F3
S1131D50FF90EF90DF90CF90BF90AF909F908F90C7
S1131D607F906F905F904F900895FF920F931F9311
S1131D70CF93DF93C62F142FF22E032F682F84E105
S1131D8093E00E944F146C2F84E193E00E9410149E
S1131D90CF2DD02FCE01810F911D8C01C017D107FB
S1131DA031F0699184E193E00E941014F7CF84E14B
S1131DB093E00E94D31491E0811190E0892FDF9188
S1131DC0CF911F910F91FF900895CF93DF931F92AE
S1131DD0CDB7DEB749839E012F5F3F4F41E00E949C
S1131DE0B50E0F90DF91CF910895CF92DF92FF92BD
S1131DF00F931F93CF93DF93C62F042F6901682F8E
S1131E0084E193E00E944F146C2F84E193E00E94DC
S1131E10101410E0000F111FF12CCF2DD0E0C017CB
S1131E20D1078CF4CC0FDD1FCC0DDD1D698184E15D
S1131E3093E00E941014688184E193E00E941014DE
S1131E40F394F394EACF84E193E00E94D31491E0F5
S1131E50811190E0892FDF91CF911F910F91FF9015
S1131E60DF90CF900895CF93DF9300D0CDB7DEB746
S1131E705A8349839E012F5F3F4F41E00E94F50E34
S1131E800F900F90DF91CF9108953F924F925F9200
S1131E906F927F928F929F92AF92BF92CF92DF9276
S1131EA0EF92FF920F931F93CF93DF9300D000D054
S1131EB000D0CDB7DEB7D82EC62E4D8379010E944F
S1131EC0841D4B015C01312C1E829D81892F90E081
S1131ED09C838B832801612C712CED813E16C8F5FF
S1131EE06D2D84E193E00E944F146C2D84E193E006
S1131EF00E94101484E193E00E94D3146D2D84E1B8
S1131F0093E00E944F144B815C8143195109413283
S1131F10510514F040E250E06D2D84E193E00E94FD
S1131F20D01484E193E00E94B713892B09F443C0D1
S1131F300115110569F10E94841DDC01CB0188198A
S1131F409909AA09BB0984159505A605B70500F1E9
S1131F5032C001151105A9F10E94841DDC01CB01D9
S1131F6088199909AA09BB0920E030E08017910774
S1131F70A207B30730F1FD812F2F30E04E81842F6B
S1131F80440F990B82179307E4F48FEF8E8319C0E3
S1131F90F7012E81E20FF11D27FDFA95FA83E983FB
S1131FA084E193E00E94BF13E981FA818083FE817A
S1131FB0FF5FFE83B6CF8D81813208F080E2380E58
S1131FC08CCF8E8126960FB6F894DEBF0FBECDBFA0
S1131FD0DF91CF911F910F91FF90EF90DF90CF9001
S1131FE0BF90AF909F908F907F906F905F904F9035
S1131FF03F9008950F931F9389019A0141E00E9435
S1132000450F1F910F910895EF92FF920F931F9325
S1132010CF93DF931F92CDB7DEB7182F062FF42E80
S1132020E22E20910E0130910F01AE014F5F5F4F00
S11320300E94FA0F898141E050E001C0440FFA94F4
S1132040EAF7EE2011F0482B02C04095482349835B
S1132050602F812F0E94E50E0F90DF91CF911F9189
S11320600F91FF90EF900895DF92EF92FF920F93FC
S11320701F93CF93DF931F92CDB7DEB7182FF62EA1
S1132080E42ED22E20910E0130910F01AE014F5F4C
S11320905F4F0E94FA0F882339F12E2D30E02D195D
S11320A031092F5F3F4F81E090E002C0880F991FF4
S11320B0DA94E2F70197022E01C0880F0A94EAF736
S11320C0402F50E0BA0102C0660F771F2A95E2F74D
S11320D0482F4095998149238623482B49836F2DA6
S11320E0812F0E94E50E01C080E00F90DF91CF9117
S11320F01F910F91FF90EF90DF90089528E6FC0167
S113210020830895FC01608308950F93062F22E035
S113211044E06BE1FC0180810E9434100F9108952A
S11321200F93062F22E044E06CE1FC0180810E94C1
S113213034100F9108950F931F93CF93DF93EC0105
S113214000910E0110910F019C012F5F3F4F42E05F
S11321506DE388810E94450F89819A819827892798
S11321609827DF91CF911F910F9108950F931F939B
S1132170CF93DF93EC0100910E0110910F019C01AC
S11321802F5F3F4F42E06FE388810E94450F8981B2
S11321909A81982789279827DF91CF911F910F91D2
S11321A008950F931F93CF93DF93EC0100910E01D9
S11321B010910F019C012F5F3F4F42E063E488813F
S11321C00E94450F89819A81982789279827DF9152
S11321D0CF911F910F910895262F46E06BE6FC01E5
S11321E080810C9404100F93062F23E042E06BE6E9
S11321F0FC0180810E9434100F910895CF93DF93E6
S1132200EC0161E00E94F31060E0CE010E948510B1
S113221060E0CE010E94901060E0CE01DF91CF918A
S11322200C94EC10AB0166E0FC0180810C94330F3C
S1132230AB0168E0FC0180810C94330FAB016AE0D0
S1132240FC0180810C94330FAB0163E1FC018081BC
S11322500C94330FAB0165E1FC0180810C94330FC6
S1132260AB0167E1FC0180810C94330F6F5F7F4FFA
S113227049E3469F9001479F300D11242E384FE6C5
S1132280340710F02DE83FE6FC01358724870895D4
S1132290DC0170E0FB01E95AFE4FE4911496EC93E3
S11322A0149750E0FA01E95AFE4FE4911596EC9325
S11322B0159765597E4FFB018491E82FF0E0EE0FEE
S11322C0FF1FE757FE4F8591949117969C938E9329
S11322D01697FA01E559FE4FE491F0E0EE0FFF1F67
S11322E0E158FE4F8591949119969C938E9318977B
S11322F0FB016491E62FF0E0EE0FFF1FED56FE4F59
S1132300859194911B969C938E931A97B901CD0154
S11323100C9436111F920F920FB60F9211242F9323
S11323203F934F935F936F937F938F939F93AF9359
S1132330BF93EF93FF93E091A402F091A502099556
S1132340FF91EF91BF91AF919F918F917F916F9189
S11323505F914F913F912F910F900FBE0F901F905F
S11323601895413208F043C0909113039111FCCFAA
S113237091E090931303209311032FEF2093A6026F
S11323801092EB02240F2093EA029093120390918F
S11323901203880F892B80931203809110038130DC
S11323A061F410921003809112038093BB0080911A
S11323B0BC0083FDF8CF85EC01C085EE8093BC00A2
S11323C0809113038130E1F38091EB02841710F4C0
S11323D04091EB02ACEEB2E0962FFB018E2F891BED
S11323E0841718F48D918193F9CF842F089580E098
S11323F008950F93413208F04AC09091130391114C
S1132400FCCF32E030931303009311033FEF30937A
S1132410A6021092EB024093EA02562FACEEB2E011
S1132420FB013E2F351B341718F431913D93F9CF3E
S11324301092120330911203880F832B809312039E
S113244080911003813061F4109210038091120383
S11324508093BB008091BC0083FDF8CF85EC01C064
S113246085EE8093BC00222321F0809113038230F7
S1132470D1F38091A6028F3F79F08091A602803239
S113248041F08091A602803331F094E005C091E0E0
S113249003C092E001C093E0892F0F910895409109
S11324A0C802262F30E0240F311D21323105DCF41F
S11324B0209113032430C9F4FC0180E090E08617D6
S11324C058F43091C8022191DC01A653BD4FA30FEB
S11324D0B11D2C930196F3CF8091C802680F6093CD
S11324E0C80280E0089581E0089582E0089585EDB2
S11324F08093BC008091BC0084FDFCCF1092130338
S1132500089585EC8093BC001092130308951F92E4
S11325100F920FB60F9211242F933F934F935F9313
S11325206F937F938F939F93AF93BF93EF93FF9397
S11325308091B900887F803609F49EC078F588328E
S113254009F45DC090F4803109F456C038F488234E
S113255009F4F5C0883009F44FC0F5C0883109F496
S11325604EC0803209F45FC0EEC0803409F46AC002
S113257058F4803309F457C0883309F0E4C08093D9
S1132580A6020E948112DFC0803509F44FC088354D
S113259009F45DC0883409F0D6C0D3C0883909F481
S11325A0C4C0A8F4883709F467C038F4883609F43D
S11325B063C0803709F460C0C6C0883809F4B5C068
S11325C0803909F45FC0803809F0BDC05BC0803B2E
S11325D009F483C038F4803A09F466C0883A09F4EF
S11325E07CC0B1C0803C09F4A4C0883C09F4A1C0FB
S11325F0883B09F487C0A7C08091120310C0909152
S1132600EB028091EA02981770F5E091EB0281E009
S11326108E0F8093EB02F0E0E451FD4F80818093B4
S1132620BB0085EC83C08093A6028BC0E091EB02D3
S113263081E08E0F8093EB028091BB00F0E0E451C7
S1132640FD4F80839091EB028091EA026BC0E09190
S1132650EB0281E08E0F8093EB028091BB00F0E0EF
S1132660E451FD4F80838091110381116AC081E0A0
S11326708093100384EA5EC083E080931303109276
S1132680A702CFCF8091A702803208F04EC0E0911C
S1132690A70281E08E0F8093A7028091BB00F0E037
S11326A0E855FD4F8083BDCF0E9481128091A7021F
S11326B0803230F4E091A702F0E0E855FD4F10823B
S11326C06091A70270E0E0910C03F0910D0388EA99
S11326D092E009951092A70236C084E08093130318
S11326E01092C9021092C802E0910E03F0910F03F8
S11326F009958091C802811105C081E08093C802C8
S11327001092CA02E091C90281E08E0F8093C9023F
S1132710F0E0E653FD4F80818093BB009091C902A5
S11327208091C802981708F47CCF85E88093BC0098
S11327300AC085EC8093BC001092130304C010926D
S1132740A6020E947712FF91EF91BF91AF919F91E2
S11327508F917F916F915F914F913F912F910F9046
S11327600FBE0F901F90189580E090E0089580911F
S1132770440390E020914503821B910908959091B0
S1132780450380914403981750F4E92FF0E0EA5B85
S1132790FC4F208130E09F5F9093450302C02FEFF0
S11327A03FEFC9010895E091450380914403E81780
S11327B030F4F0E0EA5BFC4F808190E008958FEF05
S11327C09FEF08950895CF92DF92EF92FF920F93B7
S11327D01F93CF93DF937C01CB018A0120912003C7
S11327E0222389F0EB016B01C40ED51ECC15DD0547
S11327F069F06991D701ED91FC910190F081E02D90
S1132800C7010995F3CF642F0E944F12C801DF91CD
S1132810CF911F910F91FF90EF90DF90CF9008958B
S1132820CF93DF931F92CDB7DEB769832091200346
S11328302223D1F020912103203240F021E030E026
S1132840FC013383228380E090E015C08091220351
S1132850E82FF0E0ED5DFC4F998190838F5F8093CA
S113286022038093210305C061E0CE0101960E94FA
S11328704F1281E090E00F90DF91CF910895FC0119
S11328801382128288EE93E0A0E0B0E08483958303
S1132890A683B7838AEC91E091838083089581E0D5
S11328A08093200360934303109222031092210328
S11328B008950F93062F21E04091210363E273E012
S11328C0809143030E94F911109222031092210374
S11328D0109220030F9108954F925F926F927F920E
S11328E0AF92BF92CF92EF92FF920F931F93CF9329
S11328F0DF935C01F62ED42F28013901EE2021F15B
S11329000E944F14CE2DC43008F0C3E0C150C0F073
S113291028E0C29FC0011124A301920104C056956E
S11329204795379527958A95D2F7CA01B901D501FC
S1132930ED91FC910190F081E02DC5010995E6CF60
S113294060E0C5010E9459144D2FD13208F040E2D5
S11329502C2D66E473E08F2D0E94B1111092450373
S113296080934403DF91CF911F910F91FF90EF90DB
S1132970CF90BF90AF907F906F905F904F900895ED
S1132980CF92EF920F931F93C22EE12C00E010E040
S113299098010E946C141F910F91EF90CF900895AD
S11329A021E00C94C01461E00C94591484E193E088
S11329B00C943F1468E686E693E00C94821062E07F
S11329C08FE00E94ED1D62E08EE00E94ED1D62E04A
S11329D08DE00E94ED1D62E08CE00E94ED1D83E01D
S11329E080936800ABE6B0E080E18C93ECE6F0E025
S11329F082E080838C9180628C938081816080836B
S1132A0008951F920F920FB60F9211242F938F9354
S1132A109F93AF93BF93EF93FF9323B125FB22279B
S1132A2020F920937B0383B18295817080937A038C
S1132A3090917C039370211198609093790388237B
S1132A4029F080917903846080937903E09179037C
S1132A508E2F90E0959587959595879580937C0327
S1132A608E2F90E0FC013197EE30F105D8F5E55A50
S1132A70FF4F0C94C01E80917D0390917E03A09122
S1132A807F03B09180030196A11DB11D23C08091E5
S1132A907D0390917E03A0917F03B0918003019701
S1132AA0A109B10917C080917D0390917E03A09183
S1132AB07F03B09180030296A11DB11D0BC08091CC
S1132AC07D0390917E03A0917F03B09180030297D0
S1132AD0A109B10980937D0390937E03A0937F03A2
S1132AE0B0938003FF91EF91BF91AF919F918F912C
S1132AF02F910F900FBE0F901F9018951F920F9259
S1132B000FB60F9211242F938F939F93AF93BF937C
S1132B10EF93FF9396B1969591709093770326B1B6
S1132B2021702093760380917803837091118460DF
S1132B3080937503222329F0809175038860809324
S1132B407503E09175038E2F90E095958795959583
S1132B508795809378038E2F90E0FC013197EE30B7
S1132B60F105D8F5E759FF4F0C94C01E80918103FD
S1132B7090918203A0918303B09184030196A11DD7
S1132B80B11D23C08091810390918203A09183039E
S1132B90B09184030197A109B10917C08091810301
S1132BA090918203A0918303B09184030296A11DA6
S1132BB0B11D0BC08091810390918203A091830386
S1132BC0B09184030297A109B10980938103909382
S1132BD08203A0938303B0938403FF91EF91BF9189
S1132BE0AF919F918F912F910F900FBE0F901F90D7
S1132BF01895CF93C82F0E9494168C2F80950E940D
S1132C00A4160E94A0165D9ACF910895CF93C82F61
S1132C100E94BB168C2F80950E94D3160E94CD165D
S1132C205B9ACF9108950E94A0160E9498165D9811
S1132C305E9808950E94841661E085E00E94ED1D6F
S1132C4061E086E00E94ED1D0C9413160E94CD16DF
S1132C500E94C1165B982B9808950E94A81661E003
S1132C608BE00E94ED1D61E083E00E94ED1D0C9459
S1132C702616CF9381110BC0C62F0E949C168C2F51
S1132C8080950E94A6160E9498165E9A06C081300E
S1132C9021F4862FCF910C94F915CF910895CF93F9
S1132CA081110BC0C62F0E94C7168C2F80950E94DD
S1132CB0D6160E94C1162B9A06C0813021F4862FA5
S1132CC0CF910C940616CF910895CF93DF93EB0127
S1132CD097FD03C00E94F91507C066277727681B74
S1132CE0790B80E00E943916D7FD05C08C2FDF9147
S1132CF0CF910C940616662777276C1B7D0B80E01A
S1132D00DF91CF910C944F16E4E6F0E080818F7D43
S1132D10808383EA84BD82E085BD81E080936E0078
S1132D2017BC18BC80E0089584B5806884BD0895FC
S1132D3084B58F7384BD089584B5806284BD08957D
S1132D4084B58F7C84BD089587BD089588BD08959A
S1132D50E4E6F0E080818F7B808383EA8093B00097
S1132D6082E08093B100109270001092B300109230
S1132D70B40080E00895E0EBF0E080818068808317
S1132D800895E0EBF0E080818F7380830895E0EB99
S1132D90F0E08081806280830895E0EBF0E0808140
S1132DA08F7C808308958093B30008958093B4004A
S1132DB008955058BB27AA270E94F1160C940419B1
S1132DC00E94F61838F00E94FD1820F039F49F3F55
S1132DD019F426F40C94CC180EF4E095E7FB0C944B
S1132DE0C618E92F0E94151958F3BA17620773071A
S1132DF08407950720F079F4A6F50C9437190EF49E
S1132E00E0950B2EBA2FA02D0B01B90190010C01F6
S1132E10CA01A0011124FF27591B99F0593F50F40E
S1132E20503E68F11A16F040A22F232F342F442766
S1132E30585FF3CF469537952795A795F04053955E
S1132E40C9F77EF41F16BA0B620B730B840BBAF02E
S1132E509150A1F0FF0FBB1F661F771F881FC2F799
S1132E600EC0BA0F621F731F841F48F487957795AD
S1132E706795B795F7959E3F08F0B0CF9395880F67
S1132E8008F09927EE0F9795879508950E94F618F4
S1132E9060F080E891E009F49EEF0E94FD1828F0AC
S1132EA040E851E071F45EEF0CC00C94CC180C9423
S1132EB03719E92FE0780E94151940F3092E052AE5
S1132EC0B1F3261737074807590738F00E2E07F8CD
S1132ED0E02569F0E025E0640AC0EF6307F8009498
S1132EE007FADB01B9019D01DC01CA01AD01EF93D1
S1132EF00E94D4170E9404190E9489175F915523D8
S1132F0039F02BED3FE049E450FD49EC0C94DA161E
S1132F100895DF93DD27B92FBF7740E85FE31616E6
S1132F20170648075B0718F4D92F0E9443199F938B
S1132F308F937F936F930E94B819EEEEF0E00E9496
S1132F40CF180E9404192F913F914F915F910E94D5
S1132F505E19DD2351F09058A2EA2AED3FE049ECD6
S1132F605FE3D0785D270E94F116DF910C94041979
S1132F700E94A21808F481E008950E94D1170C94CD
S1132F8004190E94FD1858F00E94F61840F029F424
S1132F905F3F29F00C94C61851110C9438190C9405
S1132FA0CC180E94151968F39923B1F3552391F3B2
S1132FB0951B550BBB27AA2762177307840738F0A4
S1132FC09F5F5F4F220F331F441FAA1FA9F335D001
S1132FD00E2E3AF0E0E832D091505040E695001CB5
S1132FE0CAF72BD0FE2F29D0660F771F881FBB1F6F
S1132FF0261737074807AB07B0E809F0BB0B802D4D
S1133000BF01FF2793585F4F3AF09E3F510578F078
S11330100C94C6180C9438195F3FE4F3983ED4F32B
S1133020869577956795B795F7959F5FC9F7880F4C
S1133030911D9695879597F90895E1E0660F771F9E
S1133040881FBB1F621773078407BA0720F0621B2F
S1133050730B840BBA0BEE1F88F7E09508950E945A
S113306036186894B1110C94381908950E941D19EA
S113307088F09F5798F0B92F9927B751B0F0E1F035
S1133080660F771F881F991F1AF0BA95C9F714C0E5
S1133090B13091F00E943719B1E008950C943719BA
S11330A0672F782F8827B85F39F0B93FCCF386951E
S11330B077956795B395D9F73EF49095809570957B
S11330C061957F4F8F4F9F4F0895E89409C097FBF8
S11330D03EF490958095709561957F4F8F4F9F4FEB
S11330E09923A9F0F92F96E9BB279395F69587952F
S11330F077956795B795F111F8CFFAF4BB0F11F4F2
S113310060FF1BC06F5F7F4F8F4F9F4F16C0882398
S113311011F096E911C0772321F09EE8872F762FCE
S113312005C0662371F096E8862F70E060E02AF00F
S11331309A95660F771F881FDAF7880F96958795FB
S113314097F90895990F0008550FAA0BE0E8FEEFD0
S113315016161706E807F907C0F012161306E40757
S1133160F50798F0621B730B840B950B39F40A2650
S113317061F0232B242B252B21F408950A2609F42E
S1133180A140A6958FEF811D811D089597F99F6732
S113319080E870E060E008959FEF80EC0895DF938D
S11331A0CF931F930F93FF92EF92DF927B018C01D9
S11331B0689406C0DA2EEF010E945E19FE01E894BD
S11331C0A5912591359145915591A6F3EF010E9462
S11331D0F116FE019701A801DA9469F7DF90EF90E8
S11331E0FF900F911F91CF91DF91089500240A94CD
S11331F01616170618060906089500240A941216CE
S11332001306140605060895092E0394000C11F400
S1133210882352F0BB0F40F4BF2B11F460FF04C0AD
S11332206F5F7F4F8F4F9F4F089557FD9058440F06
S1133230551F59F05F3F71F04795880F97FB991F11
S113324061F09F3F79F087950895121613061406CE
S1133250551FF2CF4695F1DF08C01616170618065B
S1133260991FF1CF86957105610508940895E89436
S1133270BB2766277727CB0197F908950E94A218E8
S113328008F48FEF08959B01AC0160E070E080E8E2
S11332909FE30C94BD170E945E190C9404190E94BC
S11332A0F61838F00E94FD1820F0952311F00C94C4
S11332B0C6180C94CC1811240C9438190E941519B2
S11332C070F3959FC1F3950F50E0551F629FF00175
S11332D0729FBB27F00DB11D639FAA27F00DB11D8E
S11332E0AA1F649F6627B00DA11D661F829F222717
S11332F0B00DA11D621F739FB00DA11D621F839F9E
S1133300A00D611D221F749F3327A00D611D231F73
S1133310849F600D211D822F762F6A2F11249F57C1
S113332050409AF0F1F088234AF0EE0FFF1FBB1FC4
S1133330661F771F881F91505040A9F79E3F510583
S113334080F00C94C6180C9438195F3FE4F3983E4F
S1133350D4F3869577956795B795F795E7959F5F2D
S1133360C1F7FE2B880F911D9695879597F90895BF
S11333709B01AC010C944B19FC01918D228D892F7A
S113338090E0805C9F4F821B91098F739927089569
S1133390FC01918D828D981731F0828DE80FF11D1B
S11333A0858D90E008958FEF9FEF0895FC01918D36
S11333B0828D981761F0828DDF01A80FB11D5D9693
S11333C08C91928D9F5F9F73928F90E008958FEF01
S11333D09FEF0895FC01538D448D252F30E0842FF9
S11333E090E0821B930B541710F0CF960895019729
S11333F008958EE49BE1892B49F080E090E0892BCD
S113340029F00E944E1B81110C9400000895FC01C8
S1133410848DDF01A80FB11DA35ABF4F2C91848D59
S113342090E001968F739927848FA689B7892C938E
S1133430A089B1898C9180648C93938D848D981329
S113344006C00288F389E02D80818F7D80830895F2
S1133450EF92FF920F931F93CF93DF93EC0181E0E0
S1133460888F9B8D8C8D981305C0E889F98980819C
S113347085FD24C0F62E0B8D10E00F5F1F4F0F73D8
S11334801127E02E8C8DE8120CC00FB607FCFACF82
S1133490E889F989808185FFF5CFCE010E94071A5A
S11334A0F1CF8B8DFE01E80FF11DE35AFF4FF0823F
S11334B00B8FEA89FB898081806207C0EE89FF89CE
S11334C06083E889F98980818064808381E090E069
S11334D0DF91CF911F910F91FF90EF900895CF93BB
S11334E0DF93EC01888D8823C9F0EA89FB89808108
S11334F085FD05C0A889B9898C9186FD0FC00FB6DA
S113350007FCF5CF808185FFF2CFA889B9898C911A
S113351085FFEDCFCE010E94071AE7CFDF91CF914F
S11335200895CF92DF92EF92FF921F93CF93DF9390
S1133530EC016A017B01122FE889F98982E080831A
S11335404115514E61057105B1F060E079E08DE3FC
S113355090E0A70196010E947F1EDA01C90101973C
S1133560A109B109B695A795979587959C01211551
S113357080E13807A8F0E889F989108260E874E8E6
S11335808EE190E0A70196010E947F1EDA01C90135
S11335900197A109B109B695A795979587959C01BF
S11335A0EC85FD853083EE85FF852083188EEC89BC
S11335B0FD891083EA89FB89808180618083EA899F
S11335C0FB89808188608083EA89FB8980818068A7
S11335D08083EA89FB8980818F7D8083DF91CF910D
S11335E01F91FF90EF90DF90CF9008951F920F925C
S11335F00FB60F9211242F938F939F93EF93FF9302
S1133600E0919503F09196038081E0919B03F09102
S11336109C0382FD12C0908180919E038F5F8F7303
S113362020919F03821751F0E0919E03F0E0EB5745
S1133630FC4F958F80939E0301C08081FF91EF9191
S11336409F918F912F910F900FBE0F901F901895FF
S11336501F920F920FB60F9211242F933F934F9303
S11336605F936F937F938F939F93AF93BF93EF93E6
S1133670FF9385E893E00E94071AFF91EF91BF91B1
S1133680AF919F918F917F916F915F914F913F91F6
S11336902F910F900FBE0F901F90189585E893E01F
S11336A00E94BC1921E0892B09F420E0822F08959F
S11336B0E5E8F3E01382128288EE93E0A0E0B0E044
S11336C084839583A683B7838CED91E09183808373
S11336D085EC90E09587848784EC90E097878687D3
S11336E080EC90E0918B808B81EC90E0938B828BCB
S11336F082EC90E0958B848B86EC90E0978B868BA4
S1133700118E128E138E148E089508950E94B21D88
S11337100E94851B0E945507C9EFD9E10E94250824
S11337202097E1F30E94F919F9CF0C94E01ECF928F
S1133730DF92EF92FF920F931F93CF93DF936C016D
S11337407A018B01C0E0D0E0CE15DF0581F0D8010D
S11337506D918D01D601ED91FC910190F081E02DE8
S1133760C6010995892B11F02196EECF7E01C70180
S1133770DF91CF911F910F91FF90EF90DF90CF9049
S113378008956115710579F0FB0101900020E9F7B6
S11337903197AF01461B570BDC01ED91FC91028080
S11337A0F381E02D099480E090E00895DC01ED912F
S11337B0FC910190F081E02D09946AEE71E00C9483
S11337C0C11B0F931F93CF93DF93EC010E94C11B86
S11337D08C01CE010E94DD1B800F911FDF91CF91E0
S11337E01F910F9108958F929F92AF92BF92EF9283
S11337F0FF920F931F93CF93DF93CDB7DEB7A197BB
S11338000FB6F894DEBF0FBECDBF7C01FA01CB0129
S113381019A2223008F42AE08E010F5D1F4F822E78
S1133820912CA12CB12CBF01A50194010E947F1EF3
S1133830F901CA01015011096A3010F4605D01C038
S1133840695CD8016C93232B242B252B61F7B801D9
S1133850C7010E94C11BA1960FB6F894DEBF0FBE2C
S1133860CDBFDF91CF911F910F91FF90EF90BF904B
S1133870AF909F908F9008952115310541F4DC019C
S1133880ED91FC910190F081E02D642F09940C944A
S1133890F31B9A01AB0160E070E00C943C1C7F9236
S11338A08F929F92AF92BF92CF92DF92EF92FF924C
S11338B00F931F93CF93DF938C016A017B01722EC8
S11338C09A01AB01C701B6010E946A1E882319F050
S11338D06DEE71E027C046015701E894B7F82FEF69
S11338E03FEF4FE75FE7C501B4010E946A1E8111F3
S11338F00DC02FEF3FEF4FE75FE7C501B4010E9412
S1133900B81718161CF461EF71E00CC02FEF3FEFED
S11339104FE75FE4C701B6010E943E19181694F4FC
S113392065EF71E0C801DF91CF911F910F91FF9076
S1133930EF90DF90CF90BF90AF909F908F907F904B
S11339400C94C11B2FEF3FEF4FE75FECC701B601AB
S11339500E94B81787FDE4CF20E030E0A901C70139
S1133960B6010E94B81787FF0AC06DE2C8010E9421
S1133970D61BEC01F7FAF094F7F8F09402C0C0E01B
S1133980D0E0B12C60E070E080E09FE37B1441F074
S113399020E030E040E251E40E94BD17B394F6CF3A
S11339A0A70196010E94DA166B017C010E94361869
S11339B04B015C012AE0AB01BC01C8010E94F31B6E
S11339C0C80FD91F7720B9F1C501B4010E94651849
S11339D09B01AC01C701B6010E94D9166B017C01A1
S11339E06EE2C8010E94D61BC80FD91F20E030E048
S11339F040E251E4C701B6010E944B194B015C013E
S1133A000E9436186B017C014AE050E0C8010E9414
S1133A10491CC80FD91FB60180E090E00E946518C8
S1133A209B01AC01C501B4010E94D9166B017C0154
S1133A307A947110DBCFCE01DF91CF911F910F915A
S1133A40FF90EF90DF90CF90BF90AF909F908F90BA
S1133A507F9008950C944F1C0F931F93CF93DF9383
S1133A60EC010E944F1C8C01CE010E94DD1B800FD3
S1133A70911FDF91CF911F910F9108951F920F9283
S1133A800FB60F9211242F933F938F939F93AF936D
S1133A90BF938091230490912404A0912504B091B4
S1133AA026043091220420E1230F2D3728F023E946
S1133AB0230F0196A11DB11D20932204809323049A
S1133AC090932404A0932504B093260480912704A2
S1133AD090912804A0912904B0912A040196A11D73
S1133AE0B11D8093270490932804A0932904B093D4
S1133AF02A04BF91AF919F918F913F912F910F9085
S1133B000FBE0F901F9018952FB7F894609123045F
S1133B107091240480912504909126042FBF089568
S1133B203FB7F8948091270490912804A091290428
S1133B30B0912A0426B5A89B05C02F3F19F0019621
S1133B40A11DB11D3FBFBA2FA92F982F8827820F1F
S1133B50911DA11DB11DBC01CD0196958795779549
S1133B6067950895789484B5826084BD84B5816036
S1133B7084BD85B5826085BD85B5816085BDEEE671
S1133B80F0E0808181608083E1E8F0E01082808150
S1133B9082608083808181608083E0E8F0E08081BE
S1133BA081608083E1EBF0E0808184608083E0EBDE
S1133BB0F0E0808181608083EAE7F0E080818460C6
S1133BC08083808182608083808181608083808122
S1133BD0806880831092C1000895CF93DF9390E0B2
S1133BE0FC01E95AFE4F2491FC01E559FE4F8491F2
S1133BF0882361F190E0880F991FFC01ED56FE4F78
S1133C00C591D491FC01E757FE4FA591B491611180
S1133C1009C09FB7F8948881209582238883EC910A
S1133C202E230BC0623061F49FB7F8948881322F41
S1133C30309583238883EC912E2B2C939FBF06C051
S1133C408FB7F894E8812E2B28838FBFDF91CF9113
S1133C5008954F925F926F927F92AF92BF92CF92EC
S1133C60DF92EF92FF920F931F93CF93DF93CDB721
S1133C70DEB729013A019B01AC0124193509460933
S1133C80570989899A89AB89BC89BC01CD016A1914
S1133C907B098C099D090E946F1EA80197012419B4
S1133CA03509460957090E94A11ECA01B9016A0DC6
S1133CB07B1D8C1D9D1DDF91CF911F910F91FF9056
S1133CC0EF90DF90CF90BF90AF907F906F905F9018
S1133CD04F9008950E94A218880B990B0895DB0158
S1133CE08F939F930E94C61EBF91AF91A29F800D98
S1133CF0911DA39F900DB29F900D11240895A1E2F0
S1133D001A2EAA1BBB1BFD010DC0AA1FBB1FEE1F51
S1133D10FF1FA217B307E407F50720F0A21BB30B9C
S1133D20E40BF50B661F771F881F991F1A9469F718
S1133D3060957095809590959B01AC01BD01CF0174
S1133D400895052E97FB1EF400940E94B81E57FD9B
S1133D5007D00E947F1E07FC03D04EF40C94B81EBB
S1133D6050954095309521953F4F4F4F5F4F0895A3
S1133D7090958095709561957F4F8F4F9F4F0895D3
S1133D80EE0FFF1F0590F491E02D09940E94D11EBF
S1133D90A59F900DB49F900DA49F800D911D11249B
S1133DA00895A29FB001B39FC001A39F700D811D10
S1133DB01124911DB29F700D811D1124911D089530
S1133DC00F931F93CF93DF938230910510F482E019
S1133DD090E0E0912D04F0912E0420E030E0A0E08A
S1133DE0B0E0309719F14081518102811381481765
S1133DF05907C8F08417950769F4109731F01296A3
S1133E000C93129713961C9327C000932D041093C0
S1133E102E0422C02115310519F04217530718F456
S1133E209A01BD01EF01DF01F801DBCF2115310556
S1133E30F9F0281B390B2430310580F48A819B81E9
S1133E406115710521F0FB019383828304C0909373
S1133E502E0480932D04FE01329644C0FE01E20F2D
S1133E60F31F8193919322503109398328833AC0F7
S1133E7020912B0430912C04232B41F42091020136
S1133E803091030130932C0420932B0420910001E2
S1133E90309101012115310541F42DB73EB7409110
S1133EA0040150910501241B350BE0912B04F09182
S1133EB02C04E217F307A0F42E1B3F0B2817390735
S1133EC078F0AC014E5F5F4F2417350748F04E0F72
S1133ED05F1F50932C0440932B048193919302C051
S1133EE0E0E0F0E0CF01DF91CF911F910F910895B1
S1133EF0CF93DF93009709F481C0FC0132971382BA
S1133F001282A0912D04B0912E04109781F4208187
S1133F103181820F931F20912B0430912C04281798
S1133F20390751F5F0932C04E0932B0467C0ED019D
S1133F3020E030E0CE17DF0740F44A815B819E0128
S1133F4041155105F1F0EA01F5CFD383C2834081D5
S1133F505181840F951FC817D90759F48881998115
S1133F60840F951F0296918380838A819B8193831A
S1133F7082832115310529F4F0932E04E0932D0456
S1133F803DC0E901FB83EA8349915991C40FD51FD0
S1133F90EC17FD0761F480819181840F951F0296CF
S1133FA0E90199838883828193819B838A83E0E0FA
S1133FB0F0E012968D919C911397009719F0FD01F2
S1133FC0DC01F7CF8D919C9111979D012E5F3F4F9E
S1133FD0820F931F20912B0430912C04281739074A
S1133FE069F4309729F410922E0410922D0402C023
S1133FF013821282B0932C04A0932B04DF91CF91EF
S11340000895662777270C940520A0E0B0E0EBE044
S1134010F0E20C949321EC016B016115710519F028
S1134020FB01918380837E01FFEFEF1AFF0A088171
S1134030802F90E00E945321892B11F0E701F3CFE8
S11340400D3239F47E0182E0E80EF11C098111E0A1
S113405008C00B3229F47E0192E0E90EF11C0981BB
S113406010E0E701219743E050E064E271E0CE0103
S11340700E945C21892BC1F4239645E050E06FE156
S113408071E0CE010E945C21892B09F42596C114AC
S1134090D10419F0F601D183C0831111F6C060E098
S11340A070E080E89FE7FAC043E050E06CE171E023
S11340B0CE010E945C21892B59F4C114D10409F466
S11340C0E9C0F2E0EF0EF11CF601F182E082E2C0F9
S11340D020E030E0A901C0E0D0E0F70180EDA82E97
S11340E0A00E89E08A1530F1912F9260B92E812FAC
S11340F0887012FF04C0811124C0219622C081114E
S11341002197A5E0B0E00E94C61EDC01CB01880F18
S1134110991FAA1FBB1F9C01AD012A0D311D411D12
S1134120511D283989E93807480789E1580748F0BB
S1134130166006C09EEFA9120AC013FD40C01860A5
S1134140B12E8FEFE81AF80A00811B2DC6CF802FFD
S11341508F7D8534A1F580818D3211F4106106C004
S11341608B3221F0319661E070E004C08181329697
S113417062E070E080538A3018F0E61BF70B1FC032
S113418060E070E060389CE079075CF4DB01AA0F22
S1134190BB1FAA0FBB1F6A0F7B1F660F771F680F19
S11341A0711D3196DF0111978C9180538A3050F341
S11341B014FF03C0719561957109C60FD71F11FFD4
S11341C008C0C114D10429F0CF010197F6019183ED
S11341D08083CA01B9010E946518212F23702330FE
S11341E019F04B015C0106C04B015C01B7FAB094B5
S11341F0B7F8B09420E030E0A901C501B4010E94F1
S1134200B817882309F43EC0D7FF06C0D195C195DD
S1134210D1090BE311E002C003E511E06801F8E104
S1134220CF1AD10890E2E92EF12CCE15DF0574F0F7
S1134230F8012591359145915491C501B4010E942D
S11342404B194B015C01CE19DF09EFCF0450110962
S1134250F594E7940C151D0541F78A2D880F8B2DD5
S1134260881F8F3F49F020E030E0A901C501B40167
S11342700E94B817811106C082E290E09093300446
S113428080932F04C501B40109C060E070E080E8A8
S11342909FEF04C060E070E080EC9FE7CDB7DEB72D
S11342A0ECE00C94AF2191110C947421803219F03C
S11342B089508550C8F70895FB01DC0141505040F6
S11342C088F08D9181341CF08B350CF4805E6591FF
S11342D061341CF06B350CF4605E861B611171F364
S11342E0990B0895881BFCCF992788270895F9997D
S11342F0FECF92BD81BDF89A992780B50895262FE7
S1134300F999FECF1FBA92BD81BD20BD0FB6F894B6
S1134310FA9AF99A0FBE019608952F923F924F92FE
S11343205F926F927F928F929F92AF92BF92CF9241
S1134330DF92EF92FF920F931F93CF93DF93CDB74A
S1134340DEB7CA1BDB0B0FB6F894DEBF0FBECDBFC2
S113435009942A88398848885F846E847D848C8493
S11343609B84AA84B984C884DF80EE80FD800C819C
S11343701B81AA81B981CE0FD11D0FB6F894DEBF7F
S10F43800FBECDBFED010895F894FFCFEF
S113438C0000310420000101030101010101E803D3
S113439C53657475703A53657269616C20496E6922
S11343AC7469616C697A65640053657475703A203C
S11343BC4D70753630353020496E697469616C699D
S11343CC7A65640053657475703A204D6F746F721E
S11343DC7320496E697469616C697A65640053650C
S11343EC7475703A20456E636F6465727320496E00
S11343FC697469616C697A65640053657475703AA3
S113440C2050494420696E697469616C697A6564E9
S113441C0053657475703A20446F6E65005069647E
S113442C20636F6E66696720666F722050313A2084
S113443C004B693A20004B703A20004B643A200040
S113444C446F6E652100000000001014E313B413D4
S113445CE213B713BF13D31300000000281A971BE1
S113446CEA196F1ABC19D619C8190D0A006E616EB7
S10D447C00696E66006F76660000AA
S9030000FC
