S0130000417264754769726F626F742E73726563AF
S11300000C94AC000C94D4000C94D4000C9465149F
S11300100C94E2140C94D4000C94D4000C94EE10C0
S11300200C94D4000C94D4000C94D4000C94D400FC
S11300300C94D4000C94D4000C94D4000C94D400EC
S11300400C94E11C0C94D4000C945A1A0C948C1A41
S11300500C94D4000C94D4000C94D4000C94D400CC
S11300600C94EB110C94D4009F14AB14B714AB1480
S1130070D614C3149F149F14C314D614AB14B7140A
S1130080AB149F141A1526153215261551153E1555
S11300901A151A153E1551152615321526151A1559
S11300A0084AD73B3BCE016E84BCBFFDC12F3D6CDB
S11300B074319ABD56833DDA3D00C77F11BED9E441
S11300C0BB4C3E916BAAAABE000000803F004E418B
S11300D04E494E495459494E46CDCCCC3D0AD723BE
S11300E03C17B7D13877CC2B329595E6241FB14F06
S11300F00A000020410000C84200401C4620BCBE4B
S11301004CCA1B0E5AAEC59D74010204081020404F
S113011080010204081020010204081020040404D1
S1130120040404040402020202020203030303039C
S11301300300000000230026002900000000002521
S11301400028002B0000000000240027002A0000E3
S11301503C073A143E14BC1A11241FBECFEFD8E05A
S1130160DEBFCDBF12E0A0E0B1E0EAE6F3E402C0F6
S113017005900D92AA39B107D9F724E0AAE9B2E0B3
S113018001C01D92AA3DB207E1F710E0CCEAD0E02D
S113019004C02197FE010E94631EC83AD107C9F723
S11301A00E94EA1A0C94B3210C9400008F929F923F
S11301B0AF92BF92CF92DF92EF92FF920F931F9371
S11301C0CF93DF938DE190E00E94F91AEC016AE08D
S11301D071E00E94D41FC12CD12C80E2E82E82E46D
S11301E0F82ECD82DE82EF82F8861D861E861F865B
S11301F0188A812C912C98ECA92E92E4B92E898628
S11302009A86AB86BC86198A1A8A1B8A1C8AD09362
S11302100A03C09309038DE190E00E94F91AEC01EE
S11302206DE071E00E94D41FCD82DE82EF82F886F9
S11302301D861E861F86188A89869A86AB86BC868A
S1130240198A1A8A1B8A1C8AD0930803C09307034D
S11302508DE190E00E94F91AEC0160E171E00E94E6
S1130260D41F8DEC9CECACE4BFE38D839E83AF8301
S1130270B8871D861E861F86188A89879A87AB874A
S1130280BC8780E090E0A0E4B0EC898B9A8BAB8BC8
S1130290BC8BD0930603C09305038CE390E00E94CB
S11302A0F91A4C01E0910903F0910A03A184B28484
S11302B0C384D484E580F680078110859F012F5E76
S11302C03F4FAF01475E5F4FBF016B5E7F4F1F9291
S11302D01F921F92C1E0CF9380898F9387858F935C
S11302E086858F9385858F93C4010E94A80D909273
S11302F00403809203038CE390E00E94F91A4C01FA
S1130300E0910703F0910803A184B284C384D484E8
S1130310E580F680078110859F012F5E3F4FAF0176
S1130320475E5F4FBF016B5E7F4F1F921F921F920C
S1130330CF9380898F9387858F9386858F938585C7
S11303408F93C4010E94A80D90920203809201032E
S11303508CE390E00E94F91A4C01E0910503F091BE
S11303600603A184B284C384D484E580F680078123
S113037010859F012F5E3F4FAF01475E5F4FBF0166
S11303806B5E7F4F1F921F921F92CF9380898F9332
S113039087858F9386858F9385858F93C4010E946B
S11303A0A80D909200038092FF0265E070E08091B6
S11303B00303909104030E94410C65E070E0809176
S11303C00103909102030E94410C65E070E080916A
S11303D0FF02909100030E94410C00E010E02FE71F
S11303E033E440E050E06FE773EC809103039091B5
S11303F004030E948F0C00E010E02FE733E440E098
S113040050E06FE773EC80910103909102030E9426
S11304108F0C00E010E02CE032E440E050E06CE0AF
S113042072EC8091FF02909100030E948F0C61E0B6
S113043070E080910303909104030E94550D61E0E4
S113044070E080910103909102030E94550D8DB7D5
S11304509EB748960FB6F8949EBF0FBE8DBF61E05D
S113046070E08091FF0290910003DF91CF911F9182
S11304700F91FF90EF90DF90CF90BF90AF909F903F
S11304808F900C94550DCF93DF93EC0163E171E0F1
S11304908EE294E00E943A1BBE018EE294E00E9438
S11304A03A1B60E271E08EE294E00E943A1B4D81B7
S11304B05E816F81788522E030E08EE294E00E94D4
S11304C0DF1C60E271E08EE294E00E943A1B4985F1
S11304D05A856B857C8522E030E08EE294E00E94B0
S11304E0DF1C60E271E08EE294E00E943A1B4D85CD
S11304F05E856F85788922E030E08EE294E00E9488
S1130500DF1C60E271E08EE294E00E943A1B4989AC
S11305105A896B897C8922E030E08EE294E00E9463
S1130520DF1C60E271E08EE294E0DF91CF910C94E5
S1130530471B68E171E08EE294E00E943A1BE0916F
S11305400903F0910A03458956896789708D22E071
S113055030E08EE294E00E94DF1C6EE171E08EE2F6
S113056094E00E943A1BE0910703F0910803458947
S113057056896789708D22E030E08EE294E00E9413
S1130580DF1C6EE171E08EE294E00E943A1B60E2AF
S113059071E08EE294E00C94471B62E271E08EE21B
S11305A094E00E943A1BE0910903F0910A03418D03
S11305B0528D638D748D22E030E08EE294E00E94CF
S11305C0DF1C60E271E08EE294E00E943A1BE0914D
S11305D00703F0910803418D528D638D748D22E0E1
S11305E030E08EE294E00E94DF1C60E271E08EE273
S11305F094E00E94471B68E271E08EE294E00E945E
S11306003A1BE0910903F0910A03418952896389F5
S1130610748922E030E08EE294E00E94DF1C60E204
S113062071E08EE294E00E943A1BE0910703F0919E
S11306300803418952896389748922E030E08EE29B
S113064094E00E94DF1C60E271E08EE294E00C947E
S1130650471BCF92DF92EF92FF920F931F93CF939A
S1130660DF938091BE02882309F4C3C160E271E084
S11306708FEB92E00E94C61FEC016EE271E00E94D3
S1130680CB1F892BB9F460E271E080E090E00E9416
S1130690C61F0E94A81F9093B6028093B5020E94C1
S11306A0271D6093B1027093B2028093B3029093BA
S11306B0B4029DC161E371E0CE010E94CB1F892B7E
S11306C009F094C064E371E08EE294E00E94471B59
S11306D060E271E080E090E00E94C61FEC016AE0F5
S11306E071E00E94CB1F892B69F4809109039091DA
S11306F00A039093BD028093BC02809103039091FE
S1130700040327C06DE071E0CE010E94CB1F892B4A
S113071069F480910703909108039093BD0280933C
S1130720BC02809101039091020313C060E171E067
S1130730CE010E94CB1F892B81F4809105039091F7
S113074006039093BD028093BC028091FF029091B6
S113075000039093BB028093BA0260E271E080E0F0
S113076090E00E94C61FC091BC02D091BD020E94BD
S1130770A41F6D837E838F83988760E271E080E09D
S113078090E00E94C61FC091BC02D091BD020E949D
S1130790A41F69877A878B879C8760E271E080E079
S11307A090E00E94C61FC091BC02D091BD020E947D
S11307B0A41F6D877E878F87988BE091BC02F09190
S11307C0BD02C584D684E784F0880185128523851B
S11307D0348545815681678170858091BA029091F4
S11307E0BB020E942B0C64E471E043C063E571E03A
S11307F0CE010E94CB1F892B09F040C066E571E051
S11308008EE294E00E94471B60E271E080E090E099
S11308100E94C61FEC016AE071E00E94CB1F892B85
S113082029F48091090390910A0317C06DE071E0E7
S1130830CE010E94CB1F892B29F48091070390914C
S113084008030BC060E171E0CE010E94CB1F892B2D
S113085041F480910503909106039093BD02809327
S1130860BC028091BC029091BD020E94430266E6E4
S113087071E08EE294E00E94471BB9C065E771E025
S1130880CE010E94CB1F892B09F04EC068E771E0AE
S11308908EE294E00E94471B60E271E080E090E009
S11308A00E94C61FEC016AE071E00E94CB1F892BF5
S11308B029F48091090390910A0317C06DE071E057
S11308C0CE010E94CB1F892B29F4809107039091BC
S11308D008030BC060E171E0CE010E94CB1F892B9D
S11308E081F480910503909106039093BD02809357
S11308F0BC0280910303909104039093BB02809304
S1130900BA0260E271E080E090E00E94C61FC091EC
S1130910BC02D091BD020E94A41F698B7A8B8B8B81
S11309209C8B68E871E0A5CF67E971E0CE010E9475
S1130930CB1F892B21F481E08093070158C06DE916
S113094071E0CE010E94CB1F892B99F4109207010C
S1130950E0910903F0910A03118A128A138A148A16
S1130960E0910703F0910803118A128A138A148A0A
S11309703EC064EA71E0CE010E94CB1F892B21F4B2
S113098081E08093B90233C06BEA71E0CE010E942A
S1130990CB1F892B19F41092B90229C063EB71E0C3
S11309A0CE010E94CB1F892B21F481E08093B802F1
S11309B01EC069EB71E0CE010E94CB1F892B19F494
S11309C01092B80214C060EC71E0CE010E94CB1FFB
S11309D0892B21F481E08093B70209C066EC71E0B1
S11309E0CE010E94CB1F892B11F41092B7021092F2
S11309F0BE02DF91CF911F910F91FF90EF90DF9096
S1130A00CF900895CF93DF93C0910903D0910A0347
S1130A1060912A0470912B0480912C0490912D04F0
S1130A200E94CB176D8B7E8B8F8B988FC0910703A1
S1130A30D0910803609126047091270480912804C2
S1130A40909129040E94CB176D8B7E8B8F8B988F8E
S1130A5010922A0410922B0410922C0410922D044C
S1130A60109226041092270410922804109229044C
S1130A70DF91CF9108958F929F92AF92BF92CF92C0
S1130A80DF92EF92FF920F931F93CF93DF930E9415
S1130A90271D6093AD027093AE028093AF029093D2
S1130AA0B002C090A502D090A602E090A702F090F8
S1130AB0A8029B01AC012C193D094E095F09209342
S1130AC0A9023093AA024093AB025093AC02609304
S1130AD0A5027093A6028093A7029093A8028CE2C9
S1130AE093E00E94FF0F90932B0380932A038CE2E0
S1130AF093E00E941A1090932903809328038CE2B8
S1130B0093E00E943510EC01909327038093260311
S1130B106091280370912903072E000C880B990B10
S1130B200E94CB176B017C0160912A0370912B0307
S1130B30072E000C880B990B0E94CB17A701960176
S1130B400E94BD1621EE3EE245E652E40E94AF1833
S1130B5060932003709321038093220390932303D3
S1130B60BE01DD0F880B990B1F921F921F922AEF73
S1130B702F9326E0A22EBB24BA94CB2CDB2CEE249C
S1130B80EA941FE7F12E00E010E020E030E84FEF98
S1130B905FEF0E94CC1D7093250360932403C091E2
S1130BA02403D09125036091A9027091AA02809137
S1130BB0AB029091AC020E94C9176B017C01BE018B
S1130BC0DD0F880B990B0E94CB179B01AC01C70169
S1130BD0B6010E94AF1820E030E04AE754E40E94D6
S1130BE0211760931C0370931D0380931E0390933D
S1130BF01F03609114037091150380911603909163
S1130C00170320911C0330911D0340911E03509142
S1130C101F038090200390902103A0902203B090A2
S1130C2023030E943E1626E73FE44EE75FE30E945B
S1130C30AF186B017C0120ED34E448ED5BE3C501A2
S1130C40B4010E94AF189B01AC01C701B6010E9418
S1130C503E16609318037093190380931A039093BC
S1130C601B038091180390911903A0911A03B0916A
S1130C701B038093140390931503A0931603B0935E
S1130C8017038091180390911903A0911A03B0914E
S1130C901B03E0910503F0910603B058858B968BF6
S1130CA0A78BB08F0F900F900F900F90DF91CF9183
S1130CB01F910F91FF90EF90DF90CF90BF90AF9076
S1130CC09F908F9008956DEC71E08EE294E00E9405
S1130CD03A1B60912A0370912B034AE050E08EE2A4
S1130CE094E00E94FD1B60E271E08EE294E00E94B9
S1130CF03A1B60912803709129034AE050E08EE288
S1130D0094E00E94FD1B60E271E08EE294E00E9498
S1130D103A1B60912603709127034AE050E08EE26B
S1130D2094E00E94FD1B60E271E08EE294E00C947A
S1130D30471B63ED71E08EE294E00E943A1BE09160
S1130D400503F0910603458956896789708D22E071
S1130D5030E08EE294E00E94DF1C60E271E08EE2FB
S1130D6094E00E943A1BE0910503F0910603418D43
S1130D70528D638D748D22E030E08EE294E00E9407
S1130D80DF1C60E271E08EE294E00C94471B26E0E5
S1130D9040E052EC61E070E08EE294E00E94F519CC
S1130DA069ED71E08EE294E00E94471B8CE293E0CF
S1130DB00E94621065EF71E08CE293E00E9476106D
S1130DC061E176E08CE293E00E947C1068E275E0D9
S1130DD08CE293E00E94821066E970E08CE293E07A
S1130DE00E9488106AEF7FEF8CE293E00E948E10DD
S1130DF063E170E08CE293E00E94941062EF71E092
S1130E008EE294E00E94471B0E947E150E94911579
S1130E1060E070E080E090E00E94C9156DE072E04F
S1130E208EE294E00E94471B0E94431467E272E042
S1130E308EE294E00E94471B0E94D6008091090331
S1130E4090910A030E944302809107039091080342
S1130E500E94430280910503909106030E9443027D
S1130E6063E472E08EE294E00E94471B6BE572E05B
S1130E708EE294E00C94471B2BE430E048E069E0F8
S1130E808BE393E00E94AC108CE293E00C94E20FAD
S1130E90CF93DF93C1E0DFE38EE294E00E94201958
S1130EA0181619061CF58091BE0281111FC08EE22E
S1130EB094E00E943A19E0919C028A3071F0AE2FBE
S1130EC0B0E0A154BD4F8C93EF5FE03418F4E0938D
S1130ED09C02E2CFD0939C02DFCFF0E0E154FD4FBF
S1130EE0108210929C02C093BE02D6CFDF91CF91A4
S1130EF008958F929F92AF92BF92CF92DF92EF921A
S1130F00FF920F931F93CF93DF930E94331D60933F
S1130F10A1027093A2028093A3029093A4020E9460
S1130F20271D6B017C018091100390911103A09106
S1130F301203B0911303A7019601281B390B4A0B26
S1130F405B0B253031054105510550F0C09210036B
S1130F50D0921103E0921203F09213030E9402054F
S1130F600E943B05C091B502D091B602C2FF3DC0BC
S1130F700091050310910603F80181889288A388E3
S1130F80B48820E030E040E251ECC501B4010E9495
S1130F90A21818166CF42DEC3CEC4CEC5DE3C50186
S1130FA0B4010E943D16F801618B728B838B948B84
S1130FB020E030E040EA51ECF801618D728D838DC0
S1130FC0948D0E94A218181684F42DEC3CEC4CE489
S1130FD05DE3F80161897289838994890E943D16D1
S1130FE0F801618B728B838B948BC3FF3DC000919E
S1130FF0050310910603F80181889288A388B488B8
S113100020E030E040E850E4C501B4010E941C1720
S113101087FF0DC02DEC3CEC4CEC5DE3C501B40145
S11310200E943E16F801618B728B838B948B20E0B7
S113103030E040EA51E4F801618D728D838D948D26
S11310400E941C1787FF10C02DEC3CEC4CE45DE3C0
S1131050F80161897289838994890E943E16F80196
S1131060618B728B838B948BCC70DD27CD2BD1F568
S1131070C0910503D091060389889A88AB88BC88FF
S113108020E030E040E05FE3C501B4010E94A21813
S113109018164CF42DEC3CEC4CE45DE3C501B401B2
S11310A00E943D1612C020E030E040E05FEBC50135
S11310B0B4010E941C1787FF0DC02DEC3CEC4CE4DE
S11310C05DE3C501B4010E943E16698B7A8B8B8B5C
S11310D09C8B08C080E090E0A0E4B0EC898B9A8BF4
S11310E0AB8BBC8B8091FF02909100030E94EE09B0
S11310F0C091B502D091B602C0FF2DC00091090382
S113110010910A036091060170E080E090E00E9473
S1131110CB174B015C019B01AC01F8016589768911
S11311208789908D0E943E16F801658B768B878B9C
S1131130908F0091070310910803A5019401F80111
S1131140658976898789908D0E943D16F801658BA3
S1131150768B878B908FC1FF2AC0C0910903D091F1
S11311600A036091060170E080E090E00E94CB17D2
S11311704B015C019B01AC016D897E898F89988D3F
S11311800E943D166D8B7E8B8F8B988FC0910703C9
S1131190D0910803A50194016D897E898F89988D6A
S11311A00E943E166D8B7E8B8F8B988F02C0CD2B49
S11311B0C1F00E94271D0091B1021091B20220914A
S11311C0B3023091B402DC01CB01801B910BA20B62
S11311D0B30B8897A105B10520F01092B6021092C6
S11311E0B502809107018823C1F0E0910503F091D5
S11311F00603818D928DA38DB48DE0910903F09146
S11312000A03818B928BA38BB48BE0910703F0913B
S11312100803818B928BA38BB48B809103039091F1
S113122004030E94EE0980910103909102030E943D
S1131230EE0980910B0381111EC0E0910503F0912A
S1131240060385889688A788B08C20E030E040ECBF
S113125050ECC501B4010E94A218181664F420E0F1
S113126030E0A901C501B4010E941C1787FF03C027
S113127081E080930B0380910701882309F449C01E
S113128080910B038823A1F1C0910503D09106033B
S11312908D889E88AF88B88C20E030E048E452E422
S11312A0C501B4010E94A218181614F120E030E020
S11312B048E452ECC501B4010E941C1787FD18C014
S11312C0898C9A8CAB8CBC8C20E030E040E85FE3E6
S11312D0C501B4010E94A2181816DCF420E030E025
S11312E040E85FE3C501B4010E941C1787FF11C0E9
S11312F060E070E080E090E00E94C91510920B035A
S113130010929D0210929E0210929F021092A002CF
S11313101BC0E0910703F0910803618D728D838DEA
S1131320948D0E9493174B015C01E0910903F091A5
S11313300A03618D728D838D948D0E949317DC0155
S1131340CB01B4010E94C91580910C0390910D0347
S1131350A0910E03B0910F03A7019601281B390B2E
S11313604A0B5B0B243631054105510550F1C092FF
S11313700C03D0920D03E0920E03F0920F038091C0
S1131380B90281110E9463068091B70281110E9403
S113139099068091B802882321F00E9499020E9444
S11313A0CD020E944807DF91CF911F910F91FF90CA
S11313B0EF90DF90CF90BF90AF909F908F900C9460
S11313C02903DF91CF911F910F91FF90EF90DF9050
S11313D0CF90BF90AF909F908F9008952F923F929F
S11313E04F925F926F927F928F929F92AF92BF9231
S11313F0CF92DF92EF92FF920F931F93CF93DF93DD
S1131400CDB7DEB760970FB6F894DEBF0FBECDBF81
S1131410DC01DA96BC91B983B11102C019822BC1E7
S1131420988B8F870E94271D6E837F838887998777
S1131430EF85F88982A193A1A4A1B5A14E815F8112
S113144068857985481B590B6A0B7B0B86A597A584
S1131450A0A9B1A9481759076A077B07F8F2048CB9
S1131460F58DE02D80819181A281B3818A839B8354
S1131470AC83BD83AF85B8899096ED91FC9191972B
S11314802A813B814C815D8160817181828193815C
S11314900E943D164B015C01EF85F88922A533A516
S11314A044A555A56A817B818C819D810E943D164E
S11314B06B017C01AF85B88950962D913D914D917A
S11314C05C915397C501B4010E94AF18EF85F88968
S11314D026A137A140A551A50E943E162B013C012F
S11314E0AF85B88996966D937D938D939C939997C8
S11314F0DB96BC91BA87B11118C0EF85F8892485B1
S1131500358546855785C701B6010E94AF189B01F2
S1131510AC01C301B2010E943D16AF85B88996960D
S11315206D937D938D939C939997EF85F88946A04D
S113153057A060A471A416A907A930AC21AC212F2F
S1131540302F432D522DC301B2010E94A218181648
S11315502CF4812F902FA32DB22D18C0AF85B889FC
S1131560D2968D919D910D90BC91A02D8B879C87D7
S1131570AD87BE879C01AD01C301B2010E941C1757
S113158087FF0AC08B859C85AD85BE85EF85F8896C
S113159086A397A3A0A7B1A7FA85FF2379F0AF8507
S11315A0B8891C962D913D914D915C911F97C50171
S11315B0B4010E94AF184B015C0103C0812C912C33
S11315C05401EF85F8892489358946895789C701EB
S11315D0B6010E94AF189B01AC01AF85B8899696FD
S11315E06D917D918D919C9199970E943D16A501D5
S11315F094010E943E166B017C019B01AC01612F9A
S1131600702F832D922D0E941C1787FD14C0EF8527
S1131610F88912A903A934A825A8212F302F432D16
S1131620522DB601C7010E941C1787FD04C01C2D52
S11316300D2D3E2C2F2CAF85B8895E96ED91FC9133
S11316405F97812F902FA32DB22D80839183A28346
S1131650B3838A819B81AC81BD81EF85F88982A7A0
S113166093A7A4A7B5A78E819F81A885B98582A3D6
S113167093A3A4A3B5A3898160960FB6F894DEBFA3
S11316800FBECDBFDF91CF911F910F91FF90EF90CF
S1131690DF90CF90BF90AF909F908F907F906F908E
S11316A05F904F903F902F9008954F925F926F926A
S11316B07F928F929F92AF92BF92CF92DF92EF92DE
S11316C0FF920F931F93CF93DF9300D000D000D0ED
S11316D0CDB7DEB79E838D8349835A836B837C8326
S11316E02801390120E030E0A90169817A818B81E8
S11316F09C810E941C1787FD97C020E030E0A9015F
S1131700C301B2010E941C1787FD8EC020E030E0A7
S1131710A901C701B6010E941C1787FD85C0AD81D0
S1131720BE815B96BC92AE925A9781E0AA94AB2894
S113173009F080E0ED81FE8183AF89819A81AB81DC
S1131740BC8180839183A283B38344825582668261
S11317507782C086D186E286F38666A577A580A9BE
S113176091A90E94C91720E030E04AE754E40E949E
S113177021174B015C0189819A81AB81BC81ED8188
S1131780FE8184879587A687B787A5019401C30145
S1131790B2010E94AF182B013C01AD81BE8150966D
S11317A06D937D938D939C935397A5019401C701E9
S11317B0B6010E9421176B017C01ED81FE81648BCF
S11317C0758B868B978B808D918D019769F5298117
S11317D03A814B815C8160E070E0CB010E943D1650
S11317E0AD81BE811C966D937D938D939C931F97C1
S11317F0A301920160E070E0CB010E943D16ED81EF
S1131800FE81608B718B828B938BA701960160E0C4
S113181070E0CB010E943D16AD81BE8154966D935C
S11318207D938D939C93579726960FB6F894DEBFBD
S11318300FBECDBFDF91CF911F910F91FF90EF901D
S1131840DF90CF90BF90AF909F908F907F906F90DC
S11318505F904F900895AF92BF92CF92DF92EF9234
S1131860FF920F931F93FC01A28CB38C0E94550B23
S11318701F910F91FF90EF90DF90CF90BF90AF90AA
S113188008958F929F92AF92BF92CF92DF92EF9280
S1131890FF92CF93DF9316161706B4F56B01EC0194
S11318A00D2C000CEE08FF08C701B6010E94CB17EF
S11318B04B015C016EA57FA588A999A90E94C9174F
S11318C09B01AC01C501B4010E9421174B015C01CD
S11318D09B01AC01688979898A899B890E94AF1828
S11318E0688B798B8A8B9B8BA50194016C897D898C
S11318F08E899F890E9421176C8B7D8B8E8B9F8B89
S1131900CEA6DFA6E8AAF9AADF91CF91FF90EF90C7
S1131910DF90CF90BF90AF909F908F9008952F92BB
S11319203F924F925F926F927F928F929F92AF926B
S1131930BF92CF92DF92EF92FF920F931F93CF93B8
S1131940DF93EC016A017B0148015901A901980167
S1131950C701B6010E94A21887FF4EC0CAAADBAA1B
S1131960ECAAFDAA8EAA9FAAA8AEB9AE8AAD882316
S113197009F442C02E8C3F8CF1014080518062807A
S11319807380A3019201C501B4010E941C1787FF53
S113199006C0F10180829182A282B3820DC0A301AC
S11319A09201C701B6010E94A21818162CF4F10185
S11319B0C082D182E282F3828EA09FA0A8A4B9A49F
S11319C0CEA8DFA8E8ACF9ACA7019601C501B40123
S11319D00E94A218181664F0CAA8DBA8ECA8FDA8F7
S11319E0A7019601C501B4010E941C1787FF04C01A
S11319F0CEA2DFA2E8A6F9A6DF91CF911F910F91A5
S1131A00FF90EF90DF90CF90BF90AF909F908F901A
S1131A107F906F905F904F903F902F9008958F929A
S1131A209F92AF92BF92CF92DF92EF92FF92CF93A9
S1131A30DF93EC01EE8DFF8DC080D180E280F380D6
S1131A40CEA2DFA2E8A6F9A6EC8DFD8D808191815E
S1131A50A281B3818AA79BA7ACA7BDA78EA89FA884
S1131A60A8ACB9ACA5019401C701B6010E94A218A3
S1131A70181664F08AA89BA8ACA8BDA8A501940177
S1131A80C701B6010E941C1787FF04C08EA29FA243
S1131A90A8A6B9A6DF91CF91FF90EF90DF90CF90E9
S1131AA0BF90AF909F908F9008951F93CF93DF9333
S1131AB0EC0111E06130710509F010E0613071054D
S1131AC031F48AAD811103C0CE010E940F0D1AAF0B
S1131AD0DF91CF911F9108950F931F93CF93DF93BD
S1131AE0EC018B018AAD882361F1888D998D86176D
S1131AF0970739F12C853D854E855F8560E070E060
S1131B00CB010E943D166C877D878E879F8728892D
S1131B1039894A895B8960E070E0CB010E943D16F7
S1131B20688B798B8A8B9B8B2C893D894E895F8945
S1131B3060E070E0CB010E943D166C8B7D8B8E8B38
S1131B409F8B198F088FDF91CF911F910F9108956B
S1131B504F925F926F927F928F929F92AF92BF92B9
S1131B60CF92DF92EF92FF920F931F93CF93DF9365
S1131B7000D000D0CDB7DEB74C0127013801A982CF
S1131B80BA82CB82DC82FC01578F468F758F648FBB
S1131B9031A320A312AE12AA13AA14AA15AA80E094
S1131BA090E0AFE7B3E486AB97ABA0AFB1AF84E608
S1131BB090E0A0E0B0E086A797A7A0ABB1AB6D8D95
S1131BC07E8DC4010E946C0DAB8CBC8CCF88D88CEC
S1131BD0E98CFA8C09811A812B813C81B301A20121
S1131BE0C4010E94550B0E94271DF40146A457A46A
S1131BF060A871A8DC01CB0184199509A609B7096D
S1131C0082A393A3A4A3B5A30F900F900F900F905A
S1131C10DF91CF911F910F91FF90EF90DF90CF90C4
S1131C20BF90AF909F908F907F906F905F904F90F8
S1131C300895FF920F931F93CF93DF93C62F142F12
S1131C40F22E032F682F8DEB93E00E94B3136C2FB9
S1131C508DEB93E00E947413CF2DD02FCE01810F12
S1131C60911D8C01C017D10731F069918DEB93E080
S1131C700E947413F7CF8DEB93E00E94371491E028
S1131C80811190E0892FDF91CF911F910F91FF90E7
S1131C900895CF93DF931F92CDB7DEB749839E019A
S1131CA02F5F3F4F41E00E94190E0F90DF91CF91BB
S1131CB00895CF92DF92FF920F931F93CF93DF93F8
S1131CC0C62F042F6901682F8DEB93E00E94B31394
S1131CD06C2F8DEB93E00E94741310E0000F111F22
S1131CE0F12CCF2DD0E0C017D1078CF4CC0FDD1F21
S1131CF0CC0DDD1D69818DEB93E00E947413688126
S1131D008DEB93E00E947413F394F394EACF8DEB7C
S1131D1093E00E94371491E0811190E0892FDF91C4
S1131D20CF911F910F91FF90DF90CF900895CF93A3
S1131D30DF9300D0CDB7DEB75A8349839E012F5F6E
S1131D403F4F41E00E94590E0F900F90DF91CF91C9
S1131D5008953F924F925F926F927F928F929F92DB
S1131D60AF92BF92CF92DF92EF92FF920F931F93A5
S1131D70CF93DF9300D000D000D0CDB7DEB7D82EFC
S1131D80C62E4D8379010E94271D4B015C01312C25
S1131D901E829D81892F90E09C838B832801612C76
S1131DA0712CED813E16C8F56D2D8DEB93E00E94EC
S1131DB0B3136C2D8DEB93E00E9474138DEB93E0C1
S1131DC00E9437146D2D8DEB93E00E94B3134B8169
S1131DD05C81431951094132510514F040E250E04D
S1131DE06D2D8DEB93E00E9434148DEB93E00E94F3
S1131DF01B13892B09F443C00115110569F10E94D5
S1131E00271DDC01CB0188199909AA09BB0984158E
S1131E109505A605B70500F132C001151105A9F114
S1131E200E94271DDC01CB0188199909AA09BB0965
S1131E3020E030E080179107A207B30730F1FD815D
S1131E402F2F30E04E81842F440F990B8217930774
S1131E50E4F48FEF8E8319C0F7012E81E20FF11D98
S1131E6027FDFA95FA83E9838DEB93E00E9423130F
S1131E70E981FA818083FE81FF5FFE83B6CF8D8185
S1131E80813208F080E2380E8CCF8E8126960FB610
S1131E90F894DEBF0FBECDBFDF91CF911F910F919C
S1131EA0FF90EF90DF90CF90BF90AF909F908F9076
S1131EB07F906F905F904F903F9008950F931F9382
S1131EC089019A0141E00E94A90E1F910F91089582
S1131ED0EF92FF920F931F93CF93DF931F92CDB78F
S1131EE0DEB7182F062FF42EE22E20910801309130
S1131EF00901AE014F5F5F4F0E945E0F898141E08F
S1131F0050E001C0440FFA94EAF7EE2011F0482B98
S1131F1002C0409548234983602F812F0E94490EB7
S1131F200F90DF91CF911F910F91FF90EF90089543
S1131F30DF92EF92FF920F931F93CF93DF931F9241
S1131F40CDB7DEB7182FF62EE42ED22E209108013D
S1131F5030910901AE014F5F5F4F0E945E0F8823ED
S1131F6039F12E2D30E02D1931092F5F3F4F81E0DB
S1131F7090E002C0880F991FDA94E2F70197022ECD
S1131F8001C0880F0A94EAF7402F50E0BA0102C05A
S1131F90660F771F2A95E2F7482F409599814923C8
S1131FA08623482B49836F2D812F0E94490E01C03F
S1131FB080E00F90DF91CF911F910F91FF90EF90F0
S1131FC0DF90089528E6FC0120830895FC016083D6
S1131FD008950F93062F22E044E06BE1FC01808119
S1131FE00E94980F0F9108950F93062F22E044E06A
S1131FF06CE1FC0180810E94980F0F9108950F936A
S11320001F93CF93DF93EC01009108011091090114
S11320109C012F5F3F4F42E06DE388810E94A90E2F
S113202089819A81982789279827DF91CF911F91D9
S11320300F9108950F931F93CF93DF93EC010091B9
S11320400801109109019C012F5F3F4F42E06FE3AB
S113205088810E94A90E89819A81982789279827C7
S1132060DF91CF911F910F9108950F931F93CF93F9
S1132070DF93EC0100910801109109019C012F5F8D
S11320803F4F42E063E488810E94A90E89819A81CE
S1132090982789279827DF91CF911F910F91089551
S11320A0262F46E06BE6FC0180810C94680F0F93A9
S11320B0062F23E042E06BE6FC0180810E94980F2A
S11320C00F910895CF93DF93EC0161E00E945710C4
S11320D060E0CE010E94E90F60E0CE010E94F40F9F
S11320E060E0CE01DF91CF910C945010AB0166E01B
S11320F0FC0180810C94970EAB0168E0FC018081A7
S11321000C94970EAB016AE0FC0180810C94970E4D
S1132110AB0163E1FC0180810C94970EAB0165E196
S1132120FC0180810C94970EAB0167E1FC01808176
S11321300C94970E6F5F7F4F49E3469F9001479F32
S1132140300D11242E384FE6340710F02DE83FE609
S1132150FC01358724870895DC0170E0FB01E75F0B
S1132160FE4FE4911496EC93149750E0FA01E75F64
S1132170FE4FE4911596EC931597635E7E4FFB0139
S11321808491E82FF0E0EE0FFF1FE55CFE4F859190
S1132190949117969C938E931697FA01E35EFE4FE3
S11321A0E491F0E0EE0FFF1FEF5CFE4F85919491F8
S11321B019969C938E931897FB016491E62FF0E097
S11321C0EE0FFF1FEB5BFE4F859194911B969C9342
S11321D08E931A97B901CD010C949A101F920F9205
S11321E00FB60F9211242F933F934F935F936F93E6
S11321F07F938F939F93AF93BF93EF93FF93E0915C
S11322004D03F0914E030995FF91EF91BF91AF916A
S11322109F918F917F916F915F914F913F912F91FA
S11322200F900FBE0F901F901895413208F043C0D5
S11322309091BC039111FCCF91E09093BC03209347
S1132240BA032FEF20934F0310929403240F20938B
S113225093039093BB039091BB03880F892B8093C6
S1132260BB038091B903813061F41092B90380916A
S1132270BB038093BB008091BC0083FDF8CF85EC49
S113228001C085EE8093BC008091BC038130E1F3F2
S113229080919403841710F440919403A5E9B3E06A
S11322A0962FFB018E2F891B841718F48D9181932F
S11322B0F9CF842F089580E008950F93413208F0F8
S11322C04AC09091BC039111FCCF32E03093BC031F
S11322D00093BA033FEF30934F031092940340935B
S11322E09303562FA5E9B3E0FB013E2F351B3417AA
S11322F018F431913D93F9CF1092BB033091BB0395
S1132300880F832B8093BB038091B903813061F4E0
S11323101092B9038091BB038093BB008091BC00F1
S113232083FDF8CF85EC01C085EE8093BC002223A9
S113233021F08091BC038230D1F380914F038F3F11
S113234079F080914F03803241F080914F038033C4
S113235031F094E005C091E003C092E001C093E045
S1132360892F0F91089540917103262F30E0240F97
S1132370311D21323105DCF42091BC032430C9F431
S1132380FC0180E090E0861758F4309171032191AC
S1132390DC01AD58BC4FA30FB11D2C930196F3CFB4
S11323A080917103680F6093710380E0089581E068
S11323B0089582E0089585ED8093BC008091BC006F
S11323C084FDFCCF1092BC03089585EC8093BC007F
S11323D01092BC0308951F920F920FB60F9211240E
S11323E02F933F934F935F936F937F938F939F9319
S11323F0AF93BF93EF93FF938091B900887F8036AA
S113240009F49EC078F5883209F45DC090F48031F7
S113241009F456C038F4882309F4F5C0883009F467
S11324204FC0F5C0883109F44EC0803209F45FC052
S1132430EEC0803409F46AC058F4803309F457C0FC
S1132440883309F0E4C080934F030E94E511DFC094
S1132450803509F44FC0883509F45DC0883409F02B
S1132460D6C0D3C0883909F4C4C0A8F4883709F4A5
S113247067C038F4883609F463C0803709F460C053
S1132480C6C0883809F4B5C0803909F45FC0803803
S113249009F0BDC05BC0803B09F483C038F4803AC6
S11324A009F466C0883A09F47CC0B1C0803C09F4E0
S11324B0A4C0883C09F4A1C0883B09F487C0A7C024
S11324C08091BB0310C0909194038091930398175B
S11324D070F5E091940381E08E0F80939403F0E013
S11324E0EB56FC4F80818093BB0085EC83C08093C6
S11324F04F038BC0E091940381E08E0F809394038B
S11325008091BB00F0E0EB56FC4F808390919403E4
S1132510809193036BC0E091940381E08E0F8093CC
S113252094038091BB00F0E0EB56FC4F80838091D4
S1132530BA0381116AC081E08093B90384EA5EC062
S113254083E08093BC0310925003CFCF809150035B
S1132550803208F04EC0E091500381E08E0F8093EA
S113256050038091BB00F0E0EF5AFC4F8083BDCF55
S11325700E94E51180915003803230F4E0915003C1
S1132580F0E0EF5AFC4F10826091500370E0E0914C
S1132590B503F091B60381E593E0099510925003D9
S11325A036C084E08093BC031092720310927103CE
S11325B0E091B703F091B8030995809171038111FB
S11325C005C081E08093710310927303E09172035C
S11325D081E08E0F80937203F0E0ED58FC4F808110
S11325E08093BB009091720380917103981708F453
S11325F07CCF85E88093BC000AC085EC8093BC0046
S11326001092BC0304C010924F030E94DB11FF918F
S1132610EF91BF91AF919F918F917F916F915F9156
S11326204F913F912F910F900FBE0F901F901895CF
S113263080E090E008958091ED0390E02091EE0316
S1132640821B910908959091EE038091ED039817F0
S113265050F4E92FF0E0E151FC4F208130E09F5F1E
S11326609093EE0302C02FEF3FEFC9010895E0916C
S1132670EE038091ED03E81730F4F0E0E151FC4FF4
S1132680808190E008958FEF9FEF08950895CF9291
S1132690DF92EF92FF920F931F93CF93DF937C010E
S11326A0CB018A012091C903222389F0EB016B013C
S11326B0C40ED51ECC15DD0569F06991D701ED91E5
S11326C0FC910190F081E02DC7010995F3CF642FAF
S11326D00E94B311C801DF91CF911F910F91FF9018
S11326E0EF90DF90CF900895CF93DF931F92CDB7F3
S11326F0DEB769832091C9032223D1F02091CA0354
S1132700203240F021E030E0FC013383228380E07A
S113271090E015C08091CB03E82FF0E0E453FC4F28
S1132720998190838F5F8093CB038093CA0305C004
S113273061E0CE0101960E94B31181E090E00F9018
S1132740DF91CF910895FC011382128288EE93E009
S1132750A0E0B0E084839583A683B7838BE692E000
S113276091838083089581E08093C9036093EC038F
S11327701092CB031092CA0308950F93062F21E001
S11327804091CA036CEC73E08091EC030E945D11EC
S11327901092CB031092CA031092C9030F910895AB
S11327A04F925F926F927F92AF92BF92CF92EF92CD
S11327B0FF920F931F93CF93DF935C01F62ED42FD8
S11327C028013901EE2021F10E94B313CE2DC4302B
S11327D008F0C3E0C150C0F028E0C29FC00111243A
S11327E0A301920104C056954795379527958A957C
S11327F0D2F7CA01B901D501ED91FC910190F081A4
S1132800E02DC5010995E6CF60E0C5010E94BD1326
S11328104D2FD13208F040E22C2D6FEE73E08F2D56
S11328200E9415111092EE038093ED03DF91CF9176
S11328301F910F91FF90EF90CF90BF90AF907F903A
S11328406F905F904F900895CF92EF920F931F93E4
S1132850C22EE12C00E010E098010E94D0131F91D9
S11328600F91EF90CF90089521E00C94241461E02F
S11328700C94BD138DEB93E00C94A31368E68FE0E6
S113288094E00C94E60F62E08FE00E94901D62E0F9
S11328908EE00E94901D62E08DE00E94901D62E037
S11328A08CE00E94901D83E080936800ABE6B0E06A
S11328B080E18C93ECE6F0E082E080838C9180628E
S11328C08C9380818160808308951F920F920FB64C
S11328D00F9211242F938F939F93AF93BF93EF93F2
S11328E0FF9323B125FB222720F92093240483B1ED
S11328F08295817080932304909125049370211113
S1132900986090932204882329F0809122048460A3
S113291080932204E09122048E2F90E09595879570
S113292095958795809325048E2F90E0FC0131972F
S1132930EE30F105D8F5EC5CFF4F0C94631E8091EA
S1132940260490912704A0912804B09129040196AB
S1132950A11DB11D23C08091260490912704A0914C
S11329602804B09129040197A109B10917C08091E5
S1132970260490912704A0912804B091290402967A
S1132980A11DB11D0BC08091260490912704A09134
S11329902804B09129040297A109B109809326045F
S11329A090932704A0932804B0932904FF91EF91F6
S11329B0BF91AF919F918F912F910F900FBE0F9068
S11329C01F9018951F920F920FB60F9211242F93F8
S11329D08F939F93AF93BF93EF93FF9396B1969585
S11329E091709093200426B1217020931F0480914C
S11329F0210483709111846080931E04222329F0A2
S1132A0080911E04886080931E04E0911E048E2F22
S1132A1090E09595879595958795809321048E2FC1
S1132A2090E0FC013197EE30F105D8F5EE5BFF4FF5
S1132A300C94631E80912A0490912B04A0912C0481
S1132A40B0912D040196A11DB11D23C080912A04CB
S1132A5090912B04A0912C04B0912D040197A1090D
S1132A60B10917C080912A0490912B04A0912C04E1
S1132A70B0912D040296A11DB11D0BC080912A04B2
S1132A8090912B04A0912C04B0912D040297A109DC
S1132A90B10980932A0490932B04A0932C04B0933F
S1132AA02D04FF91EF91BF91AF919F918F912F9141
S1132AB00F900FBE0F901F901895CF93C82F0E94B0
S1132AC0F8158C2F80950E9408160E9404165D9AB2
S1132AD0CF910895CF93C82F0E941F168C2F8095F5
S1132AE00E9437160E9431165B9ACF9108950E9476
S1132AF004160E94FC155D985E9808950E94E815DE
S1132B0061E085E00E94901D61E086E00E94901DD6
S1132B100C9477150E9431160E9425165B982B9809
S1132B2008950E940C1661E08BE00E94901D61E004
S1132B3083E00E94901D0C948A15CF9381110BC0E1
S1132B40C62F0E9400168C2F80950E940A160E94A0
S1132B50FC155E9A06C0813021F4862FCF910C9427
S1132B605D15CF910895CF9381110BC0C62F0E949C
S1132B702B168C2F80950E943A160E9425162B9AAC
S1132B8006C0813021F4862FCF910C946A15CF9121
S1132B900895CF93DF93EB0197FD03C00E945D1569
S1132BA007C066277727681B790B80E00E949D1574
S1132BB0D7FD05C08C2FDF91CF910C946A15662741
S1132BC077276C1B7D0B80E0DF91CF910C94B315BC
S1132BD0E4E6F0E080818F7D808383EA84BD82E037
S1132BE085BD81E080936E0017BC18BC80E0089519
S1132BF084B5806884BD089584B58F7384BD0895B9
S1132C0084B5806284BD089584B58F7C84BD0895A5
S1132C1087BD089588BD0895E4E6F0E080818F7B48
S1132C20808383EA8093B00082E08093B1001092A5
S1132C3070001092B3001092B40080E00895E0EBAD
S1132C40F0E08081806880830895E0EBF0E080818B
S1132C508F7380830895E0EBF0E08081806280834D
S1132C600895E0EBF0E080818F7C80830895809369
S1132C70B30008958093B40008955058BB27AA2741
S1132C800E9455160C9468180E945A1838F00E9435
S1132C90611820F039F49F3F19F426F40C9430188D
S1132CA00EF4E095E7FB0C942A18E92F0E9479189A
S1132CB058F3BA17620773078407950720F079F46D
S1132CC0A6F50C949B180EF4E0950B2EBA2FA02DAC
S1132CD00B01B90190010C01CA01A0011124FF27C5
S1132CE0591B99F0593F50F4503E68F11A16F040C0
S1132CF0A22F232F342F4427585FF3CF46953795BF
S1132D002795A795F0405395C9F77EF41F16BA0B83
S1132D10620B730B840BBAF09150A1F0FF0FBB1F31
S1132D20661F771F881FC2F70EC0BA0F621F731F7A
S1132D30841F48F4879577956795B795F7959E3FD7
S1132D4008F0B0CF9395880F08F09927EE0F979568
S1132D50879508950E945A1860F080E891E009F47C
S1132D609EEF0E94611828F040E851E071F45EEF94
S1132D700CC00C9430180C949B18E92FE0780E9436
S1132D80791840F3092E052AB1F3261737074807A7
S1132D90590738F00E2E07F8E02569F0E025E064C5
S1132DA00AC0EF6307F8009407FADB01B9019D013B
S1132DB0DC01CA01AD01EF930E9438170E94681824
S1132DC00E94ED165F91552339F02BED3FE049E465
S1132DD050FD49EC0C943E160895DF93DD27B92F7E
S1132DE0BF7740E85FE31616170648075B0718F439
S1132DF0D92F0E94A7189F938F937F936F930E945C
S1132E001C19E0EAF0E00E9433180E9468182F9120
S1132E103F914F915F910E94C218DD2351F0905869
S1132E20A2EA2AED3FE049EC5FE3D0785D270E94F7
S1132E305516DF910C9468180E94061808F481E076
S1132E4008950E9435170C9468180E94611858F070
S1132E500E945A1840F029F45F3F29F00C942A1874
S1132E6051110C949C180C9430180E94791868F332
S1132E709923B1F3552391F3951B550BBB27AA272F
S1132E8062177307840738F09F5F5F4F220F331F69
S1132E90441FAA1FA9F335D00E2E3AF0E0E832D031
S1132EA091505040E695001CCAF72BD0FE2F29D034
S1132EB0660F771F881FBB1F261737074807AB0706
S1132EC0B0E809F0BB0B802DBF01FF2793585F4F7B
S1132ED03AF09E3F510578F00C942A180C949C18F3
S1132EE05F3FE4F3983ED4F3869577956795B7955D
S1132EF0F7959F5FC9F7880F911D9695879597F968
S1132F000895E1E0660F771F881FBB1F62177307E0
S1132F108407BA0720F0621B730B840BBA0BEE1FF5
S1132F2088F7E09508950E949A176894B1110C945B
S1132F309C1808950E94811888F09F5798F0B92F23
S1132F409927B751B0F0E1F0660F771F881F991FDA
S1132F501AF0BA95C9F714C0B13091F00E949B18C9
S1132F60B1E008950C949B18672F782F8827B85FD9
S1132F7039F0B93FCCF3869577956795B395D9F732
S1132F803EF490958095709561957F4F8F4F9F4F3C
S1132F900895E89409C097FB3EF490958095709548
S1132FA061957F4F8F4F9F4F9923A9F0F92F96E991
S1132FB0BB279395F695879577956795B795F11106
S1132FC0F8CFFAF4BB0F11F460FF1BC06F5F7F4FA3
S1132FD08F4F9F4F16C0882311F096E911C07723B5
S1132FE021F09EE8872F762F05C0662371F096E8BE
S1132FF0862F70E060E02AF09A95660F771F881F8D
S1133000DAF7880F9695879597F90895990F000830
S1133010550FAA0BE0E8FEEF16161706E807F907A6
S1133020C0F012161306E407F50798F0621B730B41
S1133030840B950B39F40A2661F0232B242B252BC2
S113304021F408950A2609F4A140A6958FEF811D65
S1133050811D089597F99F6780E870E060E0089506
S11330609FEF80EC0895DF93CF931F930F93FF920C
S1133070EF92DF927B018C01689406C0DA2EEF0197
S11330800E94C218FE01E894A591259135914591BD
S11330905591A6F3EF010E945516FE019701A80170
S11330A0DA9469F7DF90EF90FF900F911F91CF9121
S11330B0DF91089500240A941616170618060906C7
S11330C0089500240A94121613061406050608959A
S11330D0092E0394000C11F4882352F0BB0F40F422
S11330E0BF2B11F460FF04C06F5F7F4F8F4F9F4F62
S11330F0089557FD9058440F551F59F05F3F71F0E4
S11331004795880F97FB991F61F09F3F79F087954A
S11331100895121613061406551FF2CF4695F1DFD3
S113312008C0161617061806991FF1CF8695710563
S1133130610508940895E894BB2766277727CB0197
S113314097F908950E94061808F48FEF08959B01DB
S1133150AC0160E070E080E89FE30C9421170E94CA
S1133160C2180C9468180E945A1838F00E9461180A
S113317020F0952311F00C942A180C943018112483
S11331800C949C180E94791870F3959FC1F3950FC5
S113319050E0551F629FF001729FBB27F00DB11DD7
S11331A0639FAA27F00DB11DAA1F649F6627B00D67
S11331B0A11D661F829F2227B00DA11D621F739F50
S11331C0B00DA11D621F839FA00D611D221F749F5E
S11331D03327A00D611D231F849F600D211D822FA5
S11331E0762F6A2F11249F5750409AF0F1F08823CC
S11331F04AF0EE0FFF1FBB1F661F771F881F9150F9
S11332005040A9F79E3F510580F00C942A180C9465
S11332109C185F3FE4F3983ED4F3869577956795C1
S1133220B795F795E7959F5FC1F7FE2B880F911D22
S11332309695879597F908959B01AC010C94AF1866
S1133240FC01918D228D892F90E0805C9F4F821B21
S113325091098F7399270895FC01918D828D981798
S113326031F0828DE80FF11D858D90E008958FEF88
S11332709FEF0895FC01918D828D981761F0828DE6
S1133280DF01A80FB11D5D968C91928D9F5F9F7396
S1133290928F90E008958FEF9FEF0895FC01538D76
S11332A0448D252F30E0842F90E0821B930B54171C
S11332B010F0CF9608950197089582EB9AE1892B37
S11332C049F080E090E0892B29F00E94B21A811124
S11332D00C9400000895FC01848DDF01A80FB11D3A
S11332E0A35ABF4F2C91848D90E001968F73992738
S11332F0848FA689B7892C93A089B1898C91806425
S11333008C93938D848D981306C00288F389E02DE5
S113331080818F7D80830895EF92FF920F931F9396
S1133320CF93DF93EC0181E0888F9B8D8C8D981374
S113333005C0E889F989808185FD24C0F62E0B8DAE
S113334010E00F5F1F4F0F731127E02E8C8DE812D2
S11333500CC00FB607FCFACFE889F989808185FF94
S1133360F5CFCE010E946B19F1CF8B8DFE01E80FD2
S1133370F11DE35AFF4FF0820B8FEA89FB898081AC
S1133380806207C0EE89FF896083E889F9898081BA
S11333908064808381E090E0DF91CF911F910F9151
S11333A0FF90EF900895CF93DF93EC01888D8823ED
S11333B0C9F0EA89FB89808185FD05C0A889B9899E
S11333C08C9186FD0FC00FB607FCF5CF808185FF79
S11333D0F2CFA889B9898C9185FFEDCFCE010E94E7
S11333E06B19E7CFDF91CF910895CF92DF92EF92DF
S11333F0FF921F93CF93DF93EC016A017B01122F9D
S1133400E889F98982E080834115514E610571058F
S1133410B1F060E079E08DE390E0A70196010E94AD
S1133420221EDA01C9010197A109B109B695A79530
S1133430979587959C01211580E13807A8F0E889C4
S1133440F989108260E874E88EE190E0A7019601A2
S11334500E94221EDA01C9010197A109B109B6959A
S1133460A795979587959C01EC85FD853083EE851E
S1133470FF852083188EEC89FD891083EA89FB89F6
S1133480808180618083EA89FB8980818860808370
S1133490EA89FB89808180688083EA89FB8980814D
S11334A08F7D8083DF91CF911F91FF90EF90DF900C
S11334B0CF9008951F920F920FB60F9211242F935D
S11334C08F939F93EF93FF93E0913E04F0913F0419
S11334D08081E0914404F091450482FD12C0908102
S11334E0809147048F5F8F7320914804821751F0B5
S11334F0E0914704F0E0E25DFB4F958F8093470431
S113350001C08081FF91EF919F918F912F910F9036
S11335100FBE0F901F9018951F920F920FB60F9227
S113352011242F933F934F935F936F937F938F93C4
S11335309F93AF93BF93EF93FF938EE294E00E9427
S11335406B19FF91EF91BF91AF919F918F917F91F3
S11335506F915F914F913F912F910F900FBE0F90FC
S11335601F9018958EE294E00E94201921E0892B87
S113357009F420E0822F0895EEE2F4E0138212822F
S113358088EE93E0A0E0B0E084839583A683B783BC
S11335908DE792E09183808385EC90E09587848722
S11335A084EC90E09787868780EC90E0918B808B09
S11335B081EC90E0938B828B82EC90E0958B848BF2
S11335C086EC90E0978B868B118E128E138E148E60
S11335D0089508950E94551D0E94E91A0E94C70685
S11335E0CDE5D9E10E9479072097E1F30E945D19A6
S11335F0F9CF0C94831ECF92DF92EF92FF920F9338
S11336001F93CF93DF936C017A018B01C0E0D0E06C
S1133610CE15DF0581F0D8016D918D01D601ED91B4
S1133620FC910190F081E02DC6010995892B11F0E0
S11336302196EECF7E01C701DF91CF911F910F91AB
S1133640FF90EF90DF90CF9008956115710579F0A8
S1133650FB0101900020E9F73197AF01461B570B9E
S1133660DC01ED91FC910280F381E02D099480E06E
S113367090E008950C94251BDC01ED91FC910190E0
S1133680F081E02D09946BE872E00C94251B0F93F4
S11336901F93CF93DF93EC010E94251B8C01CE0175
S11336A00E94431B800F911FDF91CF911F910F91B7
S11336B008958F929F92AF92BF92EF92FF920F93D1
S11336C01F93CF93DF93CDB7DEB7A1970FB6F894CE
S11336D0DEBF0FBECDBF7C01FA01CB0119A222309F
S11336E008F42AE08E010F5D1F4F822E912CA12C2D
S11336F0B12CBF01A50194010E94221EF901CA0147
S1133700015011096A3010F4605D01C0695CD80190
S11337106C93232B242B252B61F7B801C7010E943E
S1133720251BA1960FB6F894DEBF0FBECDBFDF9167
S1133730CF911F910F91FF90EF90BF90AF909F900A
S11337408F9008952115310541F4DC01ED91FC9130
S11337500190F081E02D642F09940C94591B9A0177
S1133760AB0160E070E00C94A21BCF92DF92EF9269
S1133770FF920F931F93CF93DF932115310581F4AB
S1133780DC01ED91FC910190F081E02D642FDF913B
S1133790CF911F910F91FF90EF90DF90CF900994FC
S11337A02A30310501F577FF1DC06A017B01EC0168
S11337B06DE20E943C1B8C0144275527BA014C1929
S11337C05D096E097F092AE0CE010E94591B800F12
S11337D0911FDF91CF911F910F91FF90EF90DF9098
S11337E0CF9008952AE0DF91CF911F910F91FF9020
S11337F0EF90DF90CF900C94591B9A01AB01770F97
S1133800660B770B0C94B51B7F928F929F92AF92AD
S1133810BF92CF92DF92EF92FF920F931F93CF93B9
S1133820DF938C016A017B01722E9A01AB01C701FF
S1133830B6010E940D1E882319F06EE872E027C0BD
S113384046015701E894B7F82FEF3FEF4FE75FE7E2
S1133850C501B4010E940D1E81110DC02FEF3FEF71
S11338604FE75FE7C501B4010E941C1718161CF44A
S113387062E972E00CC02FEF3FEF4FE75FE4C7014E
S1133880B6010E94A218181694F466E972E0C80101
S1133890DF91CF911F910F91FF90EF90DF90CF9028
S11338A0BF90AF909F908F907F900C94251B2FEF2B
S11338B03FEF4FE75FECC701B6010E941C1787FD7D
S11338C0E4CF20E030E0A901C701B6010E941C1733
S11338D087FF0AC06DE2C8010E943C1BEC01F7FAA5
S11338E0F094F7F8F09402C0C0E0D0E0B12C60E0AE
S11338F070E080E09FE37B1441F020E030E040E2A0
S113390051E40E942117B394F6CFA70196010E94B7
S11339103E166B017C010E949A174B015C012AE060
S1133920AB01BC01C8010E94591BC80FD91F7720E5
S1133930B9F1C501B4010E94C9179B01AC01C701CB
S1133940B6010E943D166B017C016EE2C8010E9423
S11339503C1BC80FD91F20E030E040E251E4C7010E
S1133960B6010E94AF184B015C010E949A176B01CB
S11339707C014AE050E0C8010E94AF1BC80FD91F68
S1133980B60180E090E00E94C9179B01AC01C5011B
S1133990B4010E943D166B017C017A947110DBCF57
S11339A0CE01DF91CF911F910F91FF90EF90DF90A7
S11339B0CF90BF90AF909F908F907F9008950C947C
S11339C0041C1F920F920FB60F9211242F933F9352
S11339D08F939F93AF93BF938091CC049091CD0428
S11339E0A091CE04B091CF043091CB0420E1230FF9
S11339F02D3728F023E9230F0196A11DB11D209333
S1133A00CB048093CC049093CD04A093CE04B093C4
S1133A10CF048091D0049091D104A091D204B091AC
S1133A20D3040196A11DB11D8093D0049093D104B9
S1133A30A093D204B093D304BF91AF919F918F917F
S1133A403F912F910F900FBE0F901F9018952FB795
S1133A50F8946091CC047091CD048091CE0490913F
S1133A60CF042FBF08953FB7F8948091D00490916C
S1133A70D104A091D204B091D30426B5A89B05C06B
S1133A802F3F19F00196A11DB11D3FBFBA2FA92FD9
S1133A90982F8827820F911DA11DB11DBC01CD0156
S1133AA096958795779567950895789484B58260FF
S1133AB084BD84B5816084BD85B5826085BD85B5CE
S1133AC0816085BDEEE6F0E0808181608083E1E87D
S1133AD0F0E01082808182608083808181608083B5
S1133AE0E0E8F0E0808181608083E1EBF0E08081B8
S1133AF084608083E0EBF0E0808181608083EAE78A
S1133B00F0E0808184608083808182608083808112
S1133B10816080838081806880831092C1000895D1
S1133B20CF93DF9390E0FC01E75FFE4F2491FC010B
S1133B30E35EFE4F8491882361F190E0880F991F22
S1133B40FC01EB5BFE4FC591D491FC01E55CFE4F9B
S1133B50A591B491611109C09FB7F894888120950B
S1133B6082238883EC912E230BC0623061F49FB7CB
S1133B70F8948881322F309583238883EC912E2BFF
S1133B802C939FBF06C08FB7F894E8812E2B28830F
S1133B908FBFDF91CF9108954F925F926F927F9282
S1133BA0AF92BF92CF92DF92EF92FF920F931F9347
S1133BB0CF93DF93CDB7DEB729013A019B01AC0166
S1133BC0241935094609570989899A89AB89BC8919
S1133BD0BC01CD016A197B098C099D090E94121E42
S1133BE0A801970124193509460957090E94441E62
S1133BF0CA01B9016A0D7B1D8C1D9D1DDF91CF91FA
S1133C001F910F91FF90EF90DF90CF90BF90AF90F6
S1133C107F906F905F904F9008950E940618880BD4
S1133C20990B0895DB018F939F930E94691EBF91A6
S1133C30AF91A29F800D911DA39F900DB29F900DF7
S1133C4011240895A1E21A2EAA1BBB1BFD010DC06D
S1133C50AA1FBB1FEE1FFF1FA217B307E407F50738
S1133C6020F0A21BB30BE40BF50B661F771F881F14
S1133C70991F1A9469F760957095809590959B01AA
S1133C80AC01BD01CF010895052E97FB1EF40094ED
S1133C900E945B1E57FD07D00E94221E07FC03D022
S1133CA04EF40C945B1E50954095309521953F4FF2
S1133CB04F4F5F4F089590958095709561957F4F14
S1133CC08F4F9F4F0895EE0FFF1F0590F491E02D45
S1133CD009940E94741EA59F900DB49F900DA49FFB
S1133CE0800D911D11240895A29FB001B39FC001BE
S1133CF0A39F700D811D1124911DB29F700D811D14
S1133D001124911D08950F931F93CF93DF93823055
S1133D10910510F482E090E0E091D604F091D7048C
S1133D2020E030E0A0E0B0E0309719F1408151810B
S1133D300281138148175907C8F08417950769F45D
S1133D40109731F012960C93129713961C9327C078
S1133D500093D6041093D70422C02115310519F01D
S1133D604217530718F49A01BD01EF01DF01F8016E
S1133D70DBCF21153105F9F0281B390B243031052F
S1133D8080F48A819B816115710521F0FB01938385
S1133D90828304C09093D7048093D604FE013296A4
S1133DA044C0FE01E20FF31F819391932250310925
S1133DB0398328833AC02091D4043091D504232B2D
S1133DC041F420910201309103013093D5042093F2
S1133DD0D40420910001309101012115310541F4F1
S1133DE02DB73EB74091040150910501241B350BBA
S1133DF0E091D404F091D504E217F307A0F42E1B4C
S1133E003F0B2817390778F0AC014E5F5F4F24173A
S1133E10350748F04E0F5F1F5093D5044093D404E8
S1133E208193919302C0E0E0F0E0CF01DF91CF9164
S1133E301F910F910895CF93DF93009709F481C0E8
S1133E40FC01329713821282A091D604B091D70458
S1133E50109781F420813181820F931F2091D40423
S1133E603091D5042817390751F5F093D504E09320
S1133E70D40467C0ED0120E030E0CE17DF0740F442
S1133E804A815B819E0141155105F1F0EA01F5CFAC
S1133E90D383C28340815181840F951FC817D907EA
S1133EA059F488819981840F951F029691838083A8
S1133EB08A819B81938382832115310529F4F093B0
S1133EC0D704E093D6043DC0E901FB83EA8349911A
S1133ED05991C40FD51FEC17FD0761F480819181BE
S1133EE0840F951F0296E9019983888382819381C7
S1133EF09B838A83E0E0F0E012968D919C91139766
S1133F00009719F0FD01DC01F7CF8D919C91119779
S1133F109D012E5F3F4F820F931F2091D404309157
S1133F20D5042817390769F4309729F41092D70477
S1133F301092D60402C013821282B093D504A093C7
S1133F40D404DF91CF910895662777270C940A2033
S1133F50FC0188279927E89421912032E9F329303C
S1133F6010F02E30C8F32B3241F02D3239F468941E
S1133F7004C00E940220820F911D219120532A30F7
S1133F80C0F31EF4909581959F4F08954AE952E03D
S1133F900E94DB1F0895FB01DC018D9101908019C3
S1133FA00110D9F3990B0895FB01DC0101900D92E6
S1133FB00020E1F70895FA01A191B081009719F466
S1133FC01097E1F0CD01DC01CD010D90002011F43A
S1133FD0C00113C0FB012191222319F02015D9F748
S1133FE0F3CFFB012191201519F41E92119606C0FE
S1133FF02223C1F70D900020A1F7D001FA01A1936B
S1134000B08308957AE0979F902D879F802D910D1E
S113401011240895A0E0B0E0E0E1F0E20C948221E4
S1134020EC016B016115710519F0FB01918380832B
S11340307E01FFEFEF1AFF0A0881802F90E00E94B3
S11340405821892B11F0E701F3CF0D3239F47E01A9
S113405082E0E80EF11C098111E008C00B3229F45A
S11340607E0192E0E90EF11C098110E0E70121973D
S113407043E050E066ED70E0CE010E946121892B9F
S1134080C1F4239645E050E061ED70E0CE010E945A
S11340906121892B09F42596C114D10419F0F60184
S11340A0D183C0831111F6C060E070E080E89FE71F
S11340B0FAC043E050E06EEC70E0CE010E94612152
S11340C0892B59F4C114D10409F4E9C0F2E0EF0ECC
S11340D0F11CF601F182E082E2C020E030E0A901A7
S11340E0C0E0D0E0F70180EDA82EA00E89E08A158B
S11340F030F1912F9260B92E812F887012FF04C085
S1134100811124C0219622C081112197A5E0B0E03D
S11341100E94691EDC01CB01880F991FAA1FBB1FD7
S11341209C01AD012A0D311D411D511D283989E91C
S11341303807480789E1580748F0166006C09EEF23
S1134140A9120AC013FD40C01860B12E8FEFE81AFF
S1134150F80A00811B2DC6CF802F8F7D8534A1F5F1
S113416080818D3211F4106106C08B3221F03196BA
S113417061E070E004C08181329662E070E08053B7
S11341808A3018F0E61BF70B1FC060E070E060385F
S11341909CE079075CF4DB01AA0FBB1FAA0FBB1FCD
S11341A06A0F7B1F660F771F680F711D3196DF0141
S11341B011978C9180538A3050F314FF03C071958A
S11341C061957109C60FD71F11FF08C0C114D1042E
S11341D029F0CF010197F60191838083CA01B901C7
S11341E00E94C917212F2370233019F04B015C0161
S11341F006C04B015C01B7FAB094B7F8B09420E064
S113420030E0A901C501B4010E941C17882309F4F8
S11342103EC0D7FF06C0D195C195D1090DEE10E07F
S113422002C005E011E06801F8E1CF1AD10890E27C
S1134230E92EF12CCE15DF0574F0F80125913591A6
S113424045915491C501B4010E94AF184B015C0122
S1134250CE19DF09EFCF04501109F594E7940C153A
S11342601D0541F78A2D880F8B2D881F8F3F49F03C
S113427020E030E0A901C501B4010E941C1781119E
S113428006C082E290E09093D9048093D804C501DB
S1134290B40109C060E070E080E89FEF04C060E012
S11342A070E080EC9FE7CDB7DEB7ECE00C949E2184
S11342B091110C947921803219F089508550C8F7F6
S11342C00895FB01DC014150504088F08D91813408
S11342D01CF08B350CF4805E659161341CF06B35F9
S11342E00CF4605E861B611171F3990B0895881BB1
S11342F0FCCF9927882708952F923F924F925F927F
S11343006F927F928F929F92AF92BF92CF92DF92E1
S1134310EF92FF920F931F93CF93DF93CDB7DEB746
S1134320CA1BDB0B0FB6F894DEBF0FBECDBF0994DA
S11343302A88398848885F846E847D848C849B8431
S1134340AA84B984C884DF80EE80FD800C811B813F
S1134350AA81B981CE0FD11D0FB6F894DEBF0FBE6E
S10D4360CDBFED010895F894FFCFDE
S113436A0000DA0420000301E8034D30004D310057
S113437A47690044443A2000454E433A200020301D
S113438A20005049443A20005345543A2000433A05
S113439A0053500044656275673A205350205374A1
S11343AA6172740044656275673A20535020446F01
S11343BA6E650047440044656275673A20474420A5
S11343CA53746172740044656275673A20474420E5
S11343DA446F6E650053530044656275673A20530F
S11343EA532053746172740044656275673A2053AA
S11343FA5320446F6E650047435F4F4E0047435F47
S113440A4F4646004752505F4F4E004752505F4F47
S113441A4646004D505F4F4E004D505F4F46460092
S113442A47505F4F4E0047505F4F4646004752443D
S113443A3A200047494F3A200053657475703A533D
S113444A657269616C20496E697469616C697A651F
S113445A640053657475703A204D70753630353082
S113446A20496E697469616C697A6564005365747C
S113447A75703A204D6F746F727320496E6974694E
S113448A616C697A65640053657475703A20456E87
S113449A636F6465727320496E697469616C697AC1
S11344AA65640053657475703A20506964732069B1
S11344BA6E697469616C697A6564005365747570B0
S11344CA3A20446F6E650000000000741347131805
S11344DA1346131B1323133713000000008C19FB14
S11344EA1A4E19D31920193A192C190D0A006E619A
S10D44FA6E00696E66006F766600BE
S9030000FC
