S0130000417264754769726F626F742E73726563AF
S11300000C94AC000C94D4000C94D4000C94B41351
S11300100C9431140C94D4000C94D4000C943D1022
S11300200C94D4000C94D4000C94D4000C94D400FC
S11300300C94D4000C94D4000C94D4000C94D400EC
S11300400C94301C0C94D4000C94A9190C94DB1956
S11300500C94D4000C94D4000C94D4000C94D400CC
S11300600C943A110C94D400EE13FA130614FA13F8
S113007025141214EE13EE1312142514FA13061495
S1130080FA13EE136914751481147514A0148D14E5
S1130090691469148D14A0147514811475146914E9
S11300A0084AD73B3BCE016E84BCBFFDC12F3D6CDB
S11300B074319ABD56833DDA3D00C77F11BED9E441
S11300C0BB4C3E916BAAAABE000000803F004E418B
S11300D04E494E495459494E46CDCCCC3D0AD723BE
S11300E03C17B7D13877CC2B329595E6241FB14F06
S11300F00A000020410000C84200401C4620BCBE4B
S11301004CCA1B0E5AAEC59D74010204081020404F
S113011080010204081020010204081020040404D1
S1130120040404040402020202020203030303039C
S11301300300000000230026002900000000002521
S11301400028002B0000000000240027002A0000E3
S11301504A0789138D130B1A11241FBECFEFD8E061
S1130160DEBFCDBF12E0A0E0B1E0ECEBF1E402C0F1
S113017005900D92A23AB107D9F724E0A2EAB2E0C1
S113018001C01D92A43EB207E1F710E0CCEAD0E032
S113019004C02197FE010E94B21DC83AD107C9F7D5
S11301A00E94391A0C94DC200C9400008F929F92C8
S11301B0AF92BF92CF92DF92EF92FF920F931F9371
S11301C0CF93DF938DE190E00E94481AEC0169E03F
S11301D071E00E94051FC12CD12C80E2E82E82E43C
S11301E0F82ECD82DE82EF82F8861D861E861F865B
S11301F0188A812C912C98ECA92E92E4B92E898628
S11302009A86AB86BC86198A1A8A1B8A1C8AD09362
S11302101403C09313038DE190E00E94481AEC018B
S11302206CE071E00E94051FCD82DE82EF82F886C9
S11302301D861E861F86188A89869A86AB86BC868A
S1130240198A1A8A1B8A1C8AD0931203C093110339
S11302508DE190E00E94481AEC016FE071E00E9489
S1130260051F8DEC9CECACE4BFE38D839E83AF83D0
S1130270B8871D861E861F86188A89879A87AB874A
S1130280BC8780E090E0A0E4B0EC898B9A8BAB8BC8
S1130290BC8BD0931003C0930F038CE390E00E94B7
S11302A0481A4C01E0911303F0911403A184B28421
S11302B0C384D484E580F680078110859F012F5E76
S11302C03F4FAF01475E5F4FBF016B5E7F4F1F9291
S11302D01F921F92C1E0CF9380898F9387858F935C
S11302E086858F9385858F93C4010E94F70C909225
S11302F00E0380920D038CE390E00E94481A4C0197
S1130300E0911103F0911203A184B284C384D484D4
S1130310E580F680078110859F012F5E3F4FAF0176
S1130320475E5F4FBF016B5E7F4F1F921F921F920C
S1130330CF9380898F9387858F9386858F938585C7
S11303408F93C4010E94F70C90920C0380920B03CC
S11303508CE390E00E94481A4C01E0910F03F09165
S11303601003A184B284C384D484E580F680078119
S113037010859F012F5E3F4FAF01475E5F4FBF0166
S11303806B5E7F4F1F921F921F92CF9380898F9332
S113039087858F9386858F9385858F93C4010E946B
S11303A0F70C90920A038092090365E070E0809153
S11303B00D0390910E030E94900B65E070E0809114
S11303C00B0390910C030E94900B65E070E0809108
S11303D0090390910A030E94900B00E010E02FE7BC
S11303E033E440E050E06FE773EC80910D039091AB
S11303F00E030E94DE0B00E010E02FE733E440E040
S113040050E06FE773EC80910B0390910C030E9412
S1130410DE0B00E010E02CE032E440E050E06CE061
S113042072EC8091090390910A030E94DE0B61E053
S113043070E080910D0390910E030E94A40C61E082
S113044070E080910B0390910C030E94A40C8DB773
S11304509EB748960FB6F8949EBF0FBE8DBF61E05D
S113046070E08091090390910A03DF91CF911F916D
S11304700F91FF90EF90DF90CF90BF90AF909F903F
S11304808F900C94A40CCF93DF93EC0162E171E0A4
S113049088E394E00E94891ABE0188E394E00E94F4
S11304A0891A6FE171E088E394E00E94891A4D8112
S11304B05E816F81788522E030E088E394E00E94D9
S11304C02E1C6FE171E088E394E00E94891A49854B
S11304D05A856B857C8522E030E088E394E00E94B5
S11304E02E1C6FE171E088E394E00E94891A4D8527
S11304F05E856F85788922E030E088E394E00E948D
S11305002E1C6FE171E088E394E00E94891A498906
S11305105A896B897C8922E030E088E394E00E9468
S11305202E1C6FE171E088E394E0DF91CF910C948D
S1130530961A67E171E088E394E00E94891AE091D9
S11305401303F0911403458956896789708D22E05D
S113055030E088E394E00E942E1C6DE171E088E3B2
S113056094E00E94891AE0911103F09112034589E5
S113057056896789708D22E030E088E394E00E9418
S11305802E1C6DE171E088E394E00E94891A6FE10A
S113059071E088E394E00C94961A61E271E088E3D8
S11305A094E00E94891AE0911303F0911403418DA1
S11305B0528D638D748D22E030E088E394E00E94D4
S11305C02E1C6FE171E088E394E00E94891AE091A7
S11305D01103F0911203418D528D638D748D22E0CD
S11305E030E088E394E00E942E1C6FE171E088E320
S11305F094E00E94961A67E271E088E394E00E9416
S1130600891AE0911303F091140341895289638993
S1130610748922E030E088E394E00E942E1C6FE1AC
S113062071E088E394E00E94891AE0911103F0914B
S11306301203418952896389748922E030E088E396
S113064094E00E942E1C6FE171E088E394E00C9426
S1130650961ACF92DF92EF92FF920F931F93CF934C
S1130660DF938091C802882309F4D1C16FE171E05E
S113067089EC92E00E94F71EEC016DE271E00E94A9
S1130680FC1E892B09F094C060E371E088E394E0D8
S11306900E94961A6FE171E080E090E00E94F71EDC
S11306A0EC0169E071E00E94FC1E892B69F48091E1
S11306B01303909114039093C7028093C602809110
S11306C00D0390910E0327C06CE071E0CE010E94EF
S11306D0FC1E892B69F4809111039091120390936D
S11306E0C7028093C60280910B0390910C0313C040
S11306F06FE071E0CE010E94FC1E892B81F4809191
S11307000F03909110039093C7028093C6028091C7
S1130710090390910A039093C5028093C4026FE188
S113072071E080E090E00E94F71EC091C602D09173
S1130730C7020E94F31E6D837E838F8398876FE1C7
S113074071E080E090E00E94F71EC091C602D09153
S1130750C7020E94F31E69877A878B879C876FE1A3
S113076071E080E090E00E94F71EC091C602D09133
S1130770C7020E94F31E6D877E878F87988BE09156
S1130780C602F091C702C584D684E784F088018547
S113079012852385348545815681678170858091D2
S11307A0C4029091C5020E947A0B60E471E043C0D8
S11307B06FE471E0CE010E94FC1E892B09F040C059
S11307C062E571E088E394E00E94961A6FE171E0BB
S11307D080E090E00E94F71EEC0169E071E00E9465
S11307E0FC1E892B29F4809113039091140317C0E4
S11307F06CE071E0CE010E94FC1E892B29F48091EB
S11308001103909112030BC06FE071E0CE010E94BE
S1130810FC1E892B41F480910F0390911003909357
S1130820C7028093C6028091C6029091C7020E94BB
S1130830430262E671E088E394E00E94961AE5C000
S113084061E771E0CE010E94FC1E892B09F04EC0C5
S113085064E771E088E394E00E94961A6FE171E026
S113086080E090E00E94F71EEC0169E071E00E94D4
S1130870FC1E892B29F4809113039091140317C053
S11308806CE071E0CE010E94FC1E892B29F480915A
S11308901103909112030BC06FE071E0CE010E942E
S11308A0FC1E892B81F480910F0390911003909387
S11308B0C7028093C60280910D0390910E0390931A
S11308C0C5028093C4026FE171E080E090E00E9471
S11308D0F71EC091C602D091C7020E94F31E698B15
S11308E07A8B8B8B9C8B64E871E0A5CF63E971E014
S11308F0CE010E94FC1E892B21F481E08093060125
S113090084C069E971E0CE010E94FC1E892B99F430
S113091010920601E0911303F0911403118A128AD4
S1130920138A148AE0911103F0911203118A128A36
S1130930138A148A6AC060EA71E0CE010E94FC1E28
S1130940892B21F481E08093C3025FC067EA71E0E0
S1130950CE010E94FC1E892B19F41092C30255C0CB
S11309606FEA71E0CE010E94FC1E892B21F481E024
S11309708093C2024AC065EB71E0CE010E94FC1E66
S1130980892B19F41092C20240C06CEB71E0CE01C5
S11309900E94FC1E892B21F481E08093C10235C0A2
S11309A062EC71E0CE010E94FC1E892B19F41092B6
S11309B0C1022BC069EC71E0CE010E94FC1E892BA0
S11309C021F481E08093C00220C06CEC71E0CE0180
S11309D00E94FC1E892B21F481E08093BF0215C084
S11309E06FEC71E0CE010E94FC1E892B21F481E0A2
S11309F08093BE020AC062ED71E0CE010E94FC1E2B
S1130A00892B19F481E08093BD021092C802DF9112
S1130A10CF911F910F91FF90EF90DF90CF900895A9
S1130A20CF93DF93C0911303D091140360913404E6
S1130A307091350480913604909137040E941A17FE
S1130A406D8B7E8B8F8B988FC0911103D091120385
S1130A506091300470913104809132049091330498
S1130A600E941A176D8B7E8B8F8B988F1092340493
S1130A701092350410923604109237041092300408
S1130A80109231041092320410923304DF91CF910A
S1130A9008958F929F92AF92BF92CF92DF92EF927E
S1130AA0FF920F931F93CF93DF930E94761C609362
S1130AB0B9027093BA028093BB029093BC02C090B7
S1130AC0B102D090B202E090B302F090B4029B0164
S1130AD0AC012C193D094E095F092093B5023093EE
S1130AE0B6024093B7025093B8026093B102709378
S1130AF0B2028093B3029093B40286E393E00E941F
S1130B004E0F909335038093340386E393E00E9461
S1130B10690F909333038093320386E393E00E943A
S1130B20840FEC019093310380933003609132037E
S1130B3070913303072E000C880B990B0E941A172F
S1130B406B017C016091340370913503072E000C16
S1130B50880B990B0E941A17A70196010E940C1684
S1130B6021EE3EE245E652E40E94FE1760932A031A
S1130B7070932B0380932C0390932D03BE01DD0F00
S1130B80880B990B1F921F921F922AEF2F9326E036
S1130B90A22EBB24BA94CB2CDB2CEE24EA941FE7C0
S1130BA0F12E00E010E020E030E84FEF5FEF0E940C
S1130BB01B1D70932F0360932E03C0912E03D091BD
S1130BC02F036091B5027091B6028091B7029091A3
S1130BD0B8020E9418176B017C01BE01DD0F880B5F
S1130BE0990B0E941A179B01AC01C701B6010E9420
S1130BF0FE1720E030E04AE754E40E947016609348
S1130C00260370932703809328039093290360910C
S1130C101E0370911F038091200390912103209162
S1130C202603309127034091280350912903809093
S1130C302A0390902B03A0902C03B0902D030E94C4
S1130C408D1526E73FE44EE75FE30E94FE176B0134
S1130C507C0120ED34E448ED5BE3C501B4010E945E
S1130C60FE179B01AC01C701B6010E948D1560936C
S1130C70220370932303809324039093250380918C
S1130C80220390912303A0912403B0912503809320
S1130C901E0390931F03A0932003B093210380911C
S1130CA0220390912303A0912403B0912503E091A2
S1130CB00F03F0911003B058858B968BA78BB08FE0
S1130CC00F900F900F900F90DF91CF911F910F9184
S1130CD0FF90EF90DF90CF90BF90AF909F908F9058
S1130CE0089565ED71E088E394E00E94891A6091AB
S1130CF03403709135034AE050E088E394E00E94A5
S1130D004C1B6FE171E088E394E00E94891A6091C2
S1130D103203709133034AE050E088E394E00E9488
S1130D204C1B6FE171E088E394E00E94891A6091A2
S1130D303003709131034AE050E088E394E00E946C
S1130D404C1B6FE171E088E394E00C94961A6BED10
S1130D5071E088E394E00E94891AE0910F03F09116
S1130D601003458956896789708D22E030E088E355
S1130D7094E00E942E1C6FE171E088E394E00E94ED
S1130D80891AE0910F03F0911003418D528D638D08
S1130D90748D22E030E088E394E00E942E1C6FE121
S1130DA071E088E394E00C94961A26E040E052EC5B
S1130DB061E070E088E394E00E94441961EE71E020
S1130DC088E394E00E94961A86E393E00E94B10FB0
S1130DD065EF71E086E393E00E94C50F61E176E080
S1130DE086E393E00E94CB0F68E275E086E393E02C
S1130DF00E94D10F66E970E086E393E00E94D70F6A
S1130E006AEF7FEF86E393E00E94DD0F63E170E019
S1130E1086E393E00E94E30F6AEF71E088E394E0D5
S1130E200E94961A0E94CD140E94E01460E070E0C3
S1130E3080E090E00E94181565E172E088E394E098
S1130E400E94961A0E9492136FE272E088E394E083
S1130E500E94961A0E94D600809113039091140365
S1130E600E94430280911103909112030E94430255
S1130E7080910F03909110030E9443026BE472E08F
S1130E8088E394E00E94961A63E672E088E394E0B3
S1130E900C94961A2BE430E048E069E085E493E092
S1130EA00E94FB0F86E393E00C94310FCF93DF9302
S1130EB0C1E0DFE388E394E00E946F181816190676
S1130EC01CF58091C80281111FC088E394E00E9440
S1130ED08918E091A4028A3071F0AE2FB0E0A753D4
S1130EE0BD4F8C93EF5FE03418F4E093A402E2CF9B
S1130EF0D093A402DFCFF0E0E753FD4F10821092AD
S1130F00A402C093C802D6CFDF91CF9108958F92E7
S1130F109F92AF92BF92CF92DF92EF92FF92CF93C4
S1130F20DF930E94821C6093AD027093AE028093A3
S1130F30AF029093B0020E94761C6B017C018091F9
S1130F401A0390911B03A0911C03B0911D03A701E8
S1130F509601281B390B4A0B5B0B253031054105E3
S1130F60510550F0C0921A03D0921B03E0921C0367
S1130F70F0921D030E9410050E9449058091C00251
S1130F808823F9F00E94761C6093A5027093A60250
S1130F908093A7029093A802C0910F03D0911003ED
S1130FA020E030E040E251E469897A898B899C89A8
S1130FB00E948D15698B7A8B8B8B9C8B1092C0024F
S1130FC022C08091BF028823F1F00E94761C6093B6
S1130FD0A5027093A6028093A7029093A802C091E1
S1130FE00F03D091100320E030E040E251E469891E
S1130FF07A898B899C890E948C15698B7A8B8B8B5F
S11310009C8B1092BF020E94761C8090A502909047
S1131010A602A090A702B090A802DC01CB01881917
S11310209909AA09BB09C0910F03D09110038D3D02
S11310309540A105B10580F01092A5021092A60278
S11310401092A7021092A80280E090E0A0E4B0EC15
S1131050898B9A8BAB8BBC8B2091A9023091AA020D
S11310604091AB025091AC026D897E898F89988D35
S11310700E948D156D8B7E8B8F8B988F80910903C9
S113108090910A030E943D09809106018823C1F0D2
S1131090E0910F03F0911003818D928DA38DB48D97
S11310A0E0911303F0911403818B928BA38BB48B87
S11310B0E0911103F0911203818B928BA38BB48B7B
S11310C080910D0390910E030E943D0980910B03C2
S11310D090910C030E943D098091150381111EC05B
S11310E0E0910F03F091100385889688A788B08C4F
S11310F020E030E040EC50ECC501B4010E94F1174F
S1131100181664F420E030E0A901C501B4010E947E
S11311106B1687FF03C081E080931503809106015D
S1131120882309F449C0809115038823A1F1C09153
S11311300F03D09110038D889E88AF88B88C20E06F
S113114030E048E452E4C501B4010E94F1171816D6
S113115014F120E030E048E452ECC501B4010E94EF
S11311606B1687FD18C0898C9A8CAB8CBC8C20E0E4
S113117030E040E85FE3C501B4010E94F11718169E
S1131180DCF420E030E040E85FE3C501B4010E94F4
S11311906B1687FF11C060E070E080E090E00E9471
S11311A01815109215031092A9021092AA02109217
S11311B0AB021092AC021BC0E0911103F091120338
S11311C0618D728D838D948D0E94E2164B015C01BA
S11311D0E0911303F0911403618D728D838D948DCE
S11311E00E94E216DC01CB01B4010E941815809123
S11311F0160390911703A0911803B0911903A70146
S11312009601281B390B4A0B5B0B2436310541052B
S1131210510540F1C0921603D0921703E0921803CF
S1131220F09219038091C30281110E94710680918A
S1131230C10281110E94A7068091C202882321F075
S11312400E9499020E94CD020E945607DF91CF911D
S1131250FF90EF90DF90CF90BF90AF909F908F90D2
S11312600C942903DF91CF91FF90EF90DF90CF9002
S1131270BF90AF909F908F9008952F923F924F927E
S11312805F926F927F928F929F92AF92BF92CF9212
S1131290DF92EF92FF920F931F93CF93DF93CDB71B
S11312A0DEB760970FB6F894DEBF0FBECDBFDC018A
S11312B0DA96BC91B983B11102C019822BC1988B03
S11312C08F870E94761C6E837F8388879987EF853A
S11312D0F88982A193A1A4A1B5A14E815F816885FB
S11312E07985481B590B6A0B7B0B86A597A5A0A98A
S11312F0B1A9481759076A077B07F8F2048CF58DE2
S1131300E02D80819181A281B3818A839B83AC8308
S1131310BD83AF85B8899096ED91FC9191972A8110
S11313203B814C815D8160817181828193810E94C6
S11313308C154B015C01EF85F88922A533A544A5E2
S113134055A56A817B818C819D810E948C156B01DE
S11313507C01AF85B88950962D913D914D915C915A
S11313605397C501B4010E94FE17EF85F88926A1A1
S113137037A140A551A50E948D152B013C01AF85D5
S1131380B88996966D937D938D939C939997DB96EC
S1131390BC91BA87B11118C0EF85F88924853585C9
S11313A046855785C701B6010E94FE179B01AC0113
S11313B0C301B2010E948C15AF85B88996966D93CE
S11313C07D938D939C939997EF85F88946A057A0B8
S11313D060A471A416A907A930AC21AC212F302F29
S11313E0432D522DC301B2010E94F11718162CF49B
S11313F0812F902FA32DB22D18C0AF85B889D29616
S11314008D919D910D90BC91A02D8B879C87AD876C
S1131410BE879C01AD01C301B2010E946B1687FF18
S11314200AC08B859C85AD85BE85EF85F88986A32A
S113143097A3A0A7B1A7FA85FF2379F0AF85B88950
S11314401C962D913D914D915C911F97C501B4015E
S11314500E94FE174B015C0103C0812C912C5401A6
S1131460EF85F8892489358946895789C701B601EA
S11314700E94FE179B01AC01AF85B88996966D91C9
S11314807D918D919C9199970E948C15A501940151
S11314900E948D156B017C019B01AC01612F702FA3
S11314A0832D922D0E946B1687FD14C0EF85F88959
S11314B012A903A934A825A8212F302F432D522D7A
S11314C0B601C7010E946B1687FD04C01C2D0D2DAB
S11314D03E2C2F2CAF85B8895E96ED91FC915F97D9
S11314E0812F902FA32DB22D80839183A283B38368
S11314F08A819B81AC81BD81EF85F88982A793A7FE
S1131500A4A7B5A78E819F81A885B98582A393A33B
S1131510A4A3B5A3898160960FB6F894DEBF0FBE6D
S1131520CDBFDF91CF911F910F91FF90EF90DF908E
S1131530CF90BF90AF909F908F907F906F905F906F
S11315404F903F902F9008954F925F926F927F92A9
S11315508F929F92AF92BF92CF92DF92EF92FF92BF
S11315600F931F93CF93DF9300D000D000D0CDB75B
S1131570DEB79E838D8349835A836B837C832801E2
S1131580390120E030E0A90169817A818B819C8155
S11315900E946B1687FD97C020E030E0A901C301CB
S11315A0B2010E946B1687FD8EC020E030E0A901D5
S11315B0C701B6010E946B1687FD85C0AD81BE814F
S11315C05B96BC92AE925A9781E0AA94AB2809F03C
S11315D080E0ED81FE8183AF89819A81AB81BC81FA
S11315E080839183A283B383448255826682778207
S11315F0C086D186E286F38666A577A580A991A9DF
S11316000E94181720E030E04AE754E40E94701664
S11316104B015C0189819A81AB81BC81ED81FE81A2
S113162084879587A687B787A5019401C301B20172
S11316300E94FE172B013C01AD81BE8150966D9333
S11316407D938D939C935397A5019401C701B60193
S11316500E9470166B017C01ED81FE81648B758B99
S1131660868B978B808D918D019769F529813A81BD
S11316704B815C8160E070E0CB010E948C15AD81F0
S1131680BE811C966D937D938D939C931F97A301AC
S1131690920160E070E0CB010E948C15ED81FE8127
S11316A0608B718B828B938BA701960160E070E055
S11316B0CB010E948C15AD81BE8154966D937D93B0
S11316C08D939C93579726960FB6F894DEBF0FBE62
S11316D0CDBFDF91CF911F910F91FF90EF90DF90DD
S11316E0CF90BF90AF909F908F907F906F905F90BE
S11316F04F900895AF92BF92CF92DF92EF92FF92F4
S11317000F931F93FC01A28CB38C0E94A40A1F9117
S11317100F91FF90EF90DF90CF90BF90AF9008951E
S11317208F929F92AF92BF92CF92DF92EF92FF92ED
S1131730CF93DF9316161706B4F56B01EC010D2C4D
S1131740000CEE08FF08C701B6010E941A174B01EE
S11317505C016EA57FA588A999A90E9418179B0111
S1131760AC01C501B4010E9470164B015C019B01E0
S1131770AC01688979898A899B890E94FE17688BE4
S1131780798B8A8B9B8BA50194016C897D898E89C9
S11317909F890E9470166C8B7D8B8E8B9F8BCEA63F
S11317A0DFA6E8AAF9AADF91CF91FF90EF90DF902E
S11317B0CF90BF90AF909F908F9008952F923F92BB
S11317C04F925F926F927F928F929F92AF92BF924D
S11317D0CF92DF92EF92FF920F931F93CF93DF93F9
S11317E0EC016A017B0148015901A9019801C70173
S11317F0B6010E94F11787FF4EC0CAAADBAAECAA61
S1131800FDAA8EAA9FAAA8AEB9AE8AAD882309F410
S113181042C02E8C3F8CF1014080518062807380E5
S1131820A3019201C501B4010E946B1687FF06C093
S1131830F10180829182A282B3820DC0A301920140
S1131840C701B6010E94F11718162CF4F101C082E9
S1131850D182E282F3828EA09FA0A8A4B9A4CEA8CC
S1131860DFA8E8ACF9ACA7019601C501B4010E9458
S1131870F117181664F0CAA8DBA8ECA8FDA8A70104
S11318809601C501B4010E946B1687FF04C0CEA265
S1131890DFA2E8A6F9A6DF91CF911F910F91FF90E7
S11318A0EF90DF90CF90BF90AF909F908F907F90FC
S11318B06F905F904F903F902F9008958F929F92DA
S11318C0AF92BF92CF92DF92EF92FF92CF93DF93CA
S11318D0EC01EE8DFF8DC080D180E280F380CEA23A
S11318E0DFA2E8A6F9A6EC8DFD8D80819181A2810D
S11318F0B3818AA79BA7ACA7BDA78EA89FA8A8ACB5
S1131900B9ACA5019401C701B6010E94F1171816DC
S113191064F08AA89BA8ACA8BDA8A5019401C7013E
S1131920B6010E946B1687FF04C08EA29FA2A8A6D0
S1131930B9A6DF91CF91FF90EF90DF90CF90BF9049
S1131940AF909F908F9008951F93CF93DF93EC01F6
S113195011E06130710509F010E06130710531F476
S11319608AAD811103C0CE010E945E0C1AAFDF91D3
S1131970CF911F9108950F931F93CF93DF93EC01A1
S11319808B018AAD882361F1888D998D861797071D
S113199039F12C853D854E855F8560E070E0CB0193
S11319A00E948C156C877D878E879F87288939894B
S11319B04A895B8960E070E0CB010E948C15688BDA
S11319C0798B8A8B9B8B2C893D894E895F8960E05A
S11319D070E0CB010E948C156C8B7D8B8E8B9F8B62
S11319E0198F088FDF91CF911F910F9108954F9216
S11319F05F926F927F928F929F92AF92BF92CF929B
S1131A00DF92EF92FF920F931F93CF93DF9300D057
S1131A1000D0CDB7DEB74C0127013801A982BA82C4
S1131A20CB82DC82FC01578F468F758F648F31A384
S1131A3020A312AE12AA13AA14AA15AA80E090E059
S1131A40AFE7B3E486AB97ABA0AFB1AF84E690E069
S1131A50A0E0B0E086A797A7A0ABB1AB6D8D7E8D5B
S1131A60C4010E94BB0CAB8CBC8CCF88D88CE98C95
S1131A70FA8C09811A812B813C81B301A201C40132
S1131A800E94A40A0E94761CF40146A457A460A8EC
S1131A9071A8DC01CB0184199509A609B70982A3B1
S1131AA093A3A4A3B5A30F900F900F900F90DF9171
S1131AB0CF911F910F91FF90EF90DF90CF90BF9047
S1131AC0AF909F908F907F906F905F904F9008950C
S1131AD0FF920F931F93CF93DF93C62F142FF22EF1
S1131AE0032F682F87EC93E00E9402136C2F87EC7E
S1131AF093E00E94C312CF2DD02FCE01810F911DF0
S1131B008C01C017D10731F0699187EC93E00E94F2
S1131B10C312F7CF87EC93E00E94861391E0811102
S1131B2090E0892FDF91CF911F910F91FF9008953D
S1131B30CF93DF931F92CDB7DEB749839E012F5F0A
S1131B403F4F41E00E94680D0F90DF91CF910895BF
S1131B50CF92DF92FF920F931F93CF93DF93C62F01
S1131B60042F6901682F87EC93E00E9402136C2F05
S1131B7087EC93E00E94C31210E0000F111FF12CB8
S1131B80CF2DD0E0C017D1078CF4CC0FDD1FCC0DC6
S1131B90DD1D698187EC93E00E94C312688187ECA4
S1131BA093E00E94C312F394F394EACF87EC93E09A
S1131BB00E94861391E0811190E0892FDF91CF91EB
S1131BC01F910F91FF90DF90CF900895CF93DF93F3
S1131BD000D0CDB7DEB75A8349839E012F5F3F4FB4
S1131BE041E00E94A80D0F900F90DF91CF910895CE
S1131BF03F924F925F926F927F928F929F92AF9299
S1131C00BF92CF92DF92EF92FF920F931F93CF93E5
S1131C10DF9300D000D000D0CDB7DEB7D82EC62ECB
S1131C204D8379010E94761C4B015C01312C1E828C
S1131C309D81892F90E09C838B832801612C712CDA
S1131C40ED813E16C8F56D2D87EC93E00E940213DA
S1131C506C2D87EC93E00E94C31287EC93E00E9402
S1131C6086136D2D87EC93E00E9402134B815C81F7
S1131C70431951094132510514F040E250E06D2DF1
S1131C8087EC93E00E94831387EC93E00E946A122E
S1131C90892B09F443C00115110569F10E94761CD2
S1131CA0DC01CB0188199909AA09BB09841595059A
S1131CB0A605B70500F132C001151105A9F10E946E
S1131CC0761CDC01CB0188199909AA09BB0920E01B
S1131CD030E080179107A207B30730F1FD812F2F61
S1131CE030E04E81842F440F990B82179307E4F45C
S1131CF08FEF8E8319C0F7012E81E20FF11D27FDAE
S1131D00FA95FA83E98387EC93E00E947212E981E1
S1131D10FA818083FE81FF5FFE83B6CF8D8181329D
S1131D2008F080E2380E8CCF8E8126960FB6F89498
S1131D30DEBF0FBECDBFDF91CF911F910F91FF90FA
S1131D40EF90DF90CF90BF90AF909F908F907F9057
S1131D506F905F904F903F9008950F931F93890168
S1131D609A0141E00E94F80D1F910F910895EF929E
S1131D70FF920F931F93CF93DF931F92CDB7DEB7DC
S1131D80182F062FF42EE22E20910701309108011E
S1131D90AE014F5F5F4F0E94AD0E898141E050E07C
S1131DA001C0440FFA94EAF7EE2011F0482B02C068
S1131DB0409548234983602F812F0E94980D0F90EE
S1131DC0DF91CF911F910F91FF90EF900895DF92D3
S1131DD0EF92FF920F931F93CF93DF931F92CDB790
S1131DE0DEB7182FF62EE42ED22E20910701309163
S1131DF00801AE014F5F5F4F0E94AD0E882339F199
S1131E002E2D30E02D1931092F5F3F4F81E090E0F6
S1131E1002C0880F991FDA94E2F70197022E01C0DD
S1131E20880F0A94EAF7402F50E0BA0102C0660F07
S1131E30771F2A95E2F7482F4095998149238623F5
S1131E40482B49836F2D812F0E94980D01C080E09B
S1131E500F90DF91CF911F910F91FF90EF90DF9042
S1131E60089528E6FC0120830895FC016083089509
S1131E700F93062F22E044E06BE1FC0180810E9475
S1131E80E70E0F9108950F93062F22E044E06CE1D2
S1131E90FC0180810E94E70E0F9108950F931F9318
S1131EA0CF93DF93EC0100910701109108019C018D
S1131EB02F5F3F4F42E06DE388810E94F80D8981D6
S1131EC09A81982789279827DF91CF911F910F91A5
S1131ED008950F931F93CF93DF93EC0100910701B3
S1131EE0109108019C012F5F3F4F42E06FE388810E
S1131EF00E94F80D89819A81982789279827DF9174
S1131F00CF911F910F9108950F931F93CF93DF9358
S1131F10EC0100910701109108019C012F5F3F4FD4
S1131F2042E063E488810E94F80D89819A819827B0
S1131F3089279827DF91CF911F910F910895262F1C
S1131F4046E06BE6FC0180810C94B70E0F93062FDC
S1131F5023E042E06BE6FC0180810E94E70E0F91D2
S1131F600895CF93DF93EC0161E00E94A60F60E037
S1131F70CE010E94380F60E0CE010E94430F60E062
S1131F80CE01DF91CF910C949F0FAB0166E0FC0171
S1131F9080810C94E60DAB0168E0FC0180810C9417
S1131FA0E60DAB016AE0FC0180810C94E60DAB0107
S1131FB063E1FC0180810C94E60DAB0165E1FC0159
S1131FC080810C94E60DAB0167E1FC0180810C94E7
S1131FD0E60D6F5F7F4F49E3469F9001479F300DA9
S1131FE011242E384FE6340710F02DE83FE6FC01AB
S1131FF0358724870895DC0170E0FB01E75FFE4F1D
S1132000E4911496EC93149750E0FA01E75FFE4FC5
S1132010E4911596EC931597635E7E4FFB018491D2
S1132020E82FF0E0EE0FFF1FE55CFE4F85919491E1
S113203017969C938E931697FA01E35EFE4FE491F4
S1132040F0E0EE0FFF1FEF5CFE4F8591949119961F
S11320509C938E931897FB016491E62FF0E0EE0FAA
S1132060FF1FEB5BFE4F859194911B969C938E937F
S11320701A97B901CD010C94E90F1F920F920FB674
S11320800F9211242F933F934F935F936F937F93FA
S11320908F939F93AF93BF93EF93FF93E091570375
S11320A0F09158030995FF91EF91BF91AF919F91E2
S11320B08F917F916F915F914F913F912F910F90ED
S11320C00FBE0F901F901895413208F043C09091B5
S11320D0C6039111FCCF91E09093C6032093C403EF
S11320E02FEF2093590310929E03240F20939D03F6
S11320F09093C5039091C503880F892B8093C503E2
S11321008091C303813061F41092C3038091C503AD
S11321108093BB008091BC0083FDF8CF85EC01C0A7
S113212085EE8093BC008091C6038130E1F38091F9
S11321309E03841710F440919E03AFE9B3E0962FF9
S1132140FB018E2F891B841718F48D918193F9CF8D
S1132150842F089580E008950F93413208F04AC017
S11321609091C6039111FCCF32E03093C6030093E3
S1132170C4033FEF3093590310929E0340939D0391
S1132180562FAFE9B3E0FB013E2F351B341718F48B
S113219031913D93F9CF1092C5033091C503880F57
S11321A0832B8093C5038091C303813061F4109223
S11321B0C3038091C5038093BB008091BC0083FD61
S11321C0F8CF85EC01C085EE8093BC00222321F07A
S11321D08091C6038230D1F3809159038F3F79F007
S11321E080915903803241F080915903803331F05A
S11321F094E005C091E003C092E001C093E0892F10
S11322000F91089540917B03262F30E0240F311D58
S113221021323105DCF42091C6032430C9F4FC01D9
S113222080E090E0861758F430917B032191DC0123
S1132230A358BC4FA30FB11D2C930196F3CF8091EB
S11322407B03680F60937B0380E0089581E0089529
S113225082E0089585ED8093BC008091BC0084FDEC
S1132260FCCF1092C603089585EC8093BC001092B5
S1132270C60308951F920F920FB60F9211242F9345
S11322803F934F935F936F937F938F939F93AF93FA
S1132290BF93EF93FF938091B900887F803609F450
S11322A09EC078F5883209F45DC090F4803109F459
S11322B056C038F4882309F4F5C0883009F44FC0B7
S11322C0F5C0883109F44EC0803209F45FC0EEC015
S11322D0803409F46AC058F4803309F457C0883351
S11322E009F0E4C0809359030E943411DFC08035A3
S11322F009F44FC0883509F45DC0883409F0D6C0AC
S1132300D3C0883909F4C4C0A8F4883709F467C075
S113231038F4883609F463C0803709F460C0C6C055
S1132320883809F4B5C0803909F45FC0803809F0F1
S1132330BDC05BC0803B09F483C038F4803A09F423
S113234066C0883A09F47CC0B1C0803C09F4A4C0DA
S1132350883C09F4A1C0883B09F487C0A7C08091D8
S1132360C50310C090919E0380919D03981770F54A
S1132370E0919E0381E08E0F80939E03F0E0E1568E
S1132380FC4F80818093BB0085EC83C0809359030C
S11323908BC0E0919E0381E08E0F80939E03809119
S11323A0BB00F0E0E156FC4F808390919E03809146
S11323B09D036BC0E0919E0381E08E0F80939E038A
S11323C08091BB00F0E0E156FC4F80838091C40310
S11323D081116AC081E08093C30384EA5EC083E014
S11323E08093C60310925A03CFCF80915A03803250
S11323F008F04EC0E0915A0381E08E0F80935A0397
S11324008091BB00F0E0E55AFC4F8083BDCF0E9471
S1132410341180915A03803230F4E0915A03F0E091
S1132420E55AFC4F108260915A0370E0E091BF03BB
S1132430F091C0038BE593E0099510925A0336C0DE
S113244084E08093C60310927C0310927B03E09196
S1132450C103F091C203099580917B03811105C0EA
S113246081E080937B0310927D03E0917C0381E003
S11324708E0F80937C03F0E0E358FC4F80818093BF
S1132480BB0090917C0380917B03981708F47CCF68
S113249085E88093BC000AC085EC8093BC00109250
S11324A0C60304C0109259030E942A11FF91EF91B0
S11324B0BF91AF919F918F917F916F915F914F9158
S11324C03F912F910F900FBE0F901F90189580E0B1
S11324D090E008958091F70390E02091F803821B27
S11324E0910908959091F8038091F703981750F497
S11324F0E92FF0E0E750FC4F208130E09F5F90939C
S1132500F80302C02FEF3FEFC9010895E091F803EB
S11325108091F703E81730F4F0E0E750FC4F808136
S113252090E008958FEF9FEF08950895CF92DF9282
S1132530EF92FF920F931F93CF93DF937C01CB0114
S11325408A012091D303222389F0EB016B01C40E8D
S1132550D51ECC15DD0569F06991D701ED91FC918B
S11325600190F081E02DC7010995F3CF642F0E94FB
S11325700211C801DF91CF911F910F91FF90EF904D
S1132580DF90CF900895CF93DF931F92CDB7DEB73E
S113259069832091D3032223D1F02091D4032032E4
S11325A040F021E030E0FC013383228380E090E0BE
S11325B015C08091D503E82FF0E0EA52FC4F9981D1
S11325C090838F5F8093D5038093D40305C061E02B
S11325D0CE0101960E94021181E090E00F90DF91FC
S11325E0CF910895FC011382128288EE93E0A0E05B
S11325F0B0E084839583A683B78383E792E09183D5
S11326008083089581E08093D3036093F60310924E
S1132610D5031092D40308950F93062F21E040911F
S1132620D40366ED73E08091F6030E94AC1010921F
S1132630D5031092D4031092D3030F9108954F92AF
S11326405F926F927F92AF92BF92CF92EF92FF927E
S11326500F931F93CF93DF935C01F62ED42F2801A1
S11326603901EE2021F10E940213CE2DC43008F06E
S1132670C3E0C150C0F028E0C29FC0011124A301EF
S1132680920104C056954795379527958A95D2F7B8
S1132690CA01B901D501ED91FC910190F081E02DC1
S11326A0C5010995E6CF60E0C5010E940C134D2FCA
S11326B0D13208F040E22C2D69EF73E08F2D0E9497
S11326C064101092F8038093F703DF91CF911F9168
S11326D00F91FF90EF90CF90BF90AF907F906F904D
S11326E05F904F900895CF92EF920F931F93C22E55
S11326F0E12C00E010E098010E941F131F910F913C
S1132700EF90CF90089521E00C94731361E00C9442
S11327100C1387EC93E00C94F21268E689E194E0E0
S11327200C94350F62E08FE00E94DF1C62E08EE0C3
S11327300E94DF1C62E08DE00E94DF1C62E08CE0FE
S11327400E94DF1C83E080936800ABE6B0E080E188
S11327508C93ECE6F0E082E080838C9180628C9331
S113276080818160808308951F920F920FB60F922B
S113277011242F938F939F93AF93BF93EF93FF9362
S113278023B125FB222720F920932E0483B18295BF
S1132790817080932D0490912F049370211198607F
S11327A090932C04882329F080912C0484608093D6
S11327B02C04E0912C048E2F90E0959587959595A7
S11327C0879580932F048E2F90E0FC013197EE3093
S11327D0F105D8F5EC5CFF4F0C94B21D80913004E8
S11327E090913104A0913204B09133040196A11D5B
S11327F0B11D23C08091300490913104A091320422
S1132800B09133040197A109B10917C08091300434
S113281090913104A0913204B09133040296A11D29
S1132820B11D0BC08091300490913104A091320409
S1132830B09133040297A109B109809330049093B5
S11328403104A0933204B0933304FF91EF91BF910C
S1132850AF919F918F912F910F900FBE0F901F906A
S113286018951F920F920FB60F9211242F938F93E6
S11328709F93AF93BF93EF93FF9396B19695917007
S113288090932A0426B121702093290480912B046B
S113289083709111846080932804222329F080910D
S11328A02804886080932804E09128048E2F90E007
S11328B0959587959595879580932B048E2F90E019
S11328C0FC013197EE30F105D8F5EE5BFF4F0C9427
S11328D0B21D8091340490913504A0913604B091D6
S11328E037040196A11DB11D23C080913404909139
S11328F03504A0913604B09137040197A109B109B8
S113290017C08091340490913504A0913604B0919D
S113291037040296A11DB11D0BC08091340490911F
S11329203504A0913604B09137040297A109B10986
S11329308093340490933504A0933604B093370401
S1132940FF91EF91BF91AF919F918F912F910F9034
S11329500FBE0F901F901895CF93C82F0E94471554
S11329608C2F80950E9457150E9453155D9ACF9124
S11329700895CF93C82F0E946E158C2F80950E94C6
S113298086150E9480155B9ACF9108950E94531575
S11329900E944B155D985E9808950E94371561E07A
S11329A085E00E94DF1C61E086E00E94DF1C0C943D
S11329B0C6140E9480150E9474155B982B98089584
S11329C00E945B1561E08BE00E94DF1C61E083E004
S11329D00E94DF1C0C94D914CF9381110BC0C62F15
S11329E00E944F158C2F80950E9459150E944B15FB
S11329F05E9A06C0813021F4862FCF910C94AC14DA
S1132A00CF910895CF9381110BC0C62F0E947A15E0
S1132A108C2F80950E9489150E9474152B9A06C0EC
S1132A20813021F4862FCF910C94B914CF9108955D
S1132A30CF93DF93EB0197FD03C00E94AC1407C052
S1132A4066277727681B790B80E00E94EC14D7FD7A
S1132A5005C08C2FDF91CF910C94B914662777278A
S1132A606C1B7D0B80E0DF91CF910C940215E4E6A2
S1132A70F0E080818F7D808383EA84BD82E085BD20
S1132A8081E080936E0017BC18BC80E0089584B583
S1132A90806884BD089584B58F7384BD089584B51A
S1132AA0806284BD089584B58F7C84BD089587BDFC
S1132AB0089588BD0895E4E6F0E080818F7B8083EB
S1132AC083EA8093B00082E08093B100109270009A
S1132AD01092B3001092B40080E00895E0EBF0E0AF
S1132AE08081806880830895E0EBF0E080818F73BB
S1132AF080830895E0EBF0E0808180628083089514
S1132B00E0EBF0E080818F7C808308958093B300B4
S1132B1008958093B40008955058BB27AA270E94B3
S1132B20A4150C94B7170E94A91738F00E94B01787
S1132B3020F039F49F3F19F426F40C947F170EF417
S1132B40E095E7FB0C947917E92F0E94C81758F316
S1132B50BA17620773078407950720F079F4A6F57E
S1132B600C94EA170EF4E0950B2EBA2FA02D0B014E
S1132B70B90190010C01CA01A0011124FF27591BBE
S1132B8099F0593F50F4503E68F11A16F040A22FC4
S1132B90232F342F4427585FF3CF46953795279535
S1132BA0A795F0405395C9F77EF41F16BA0B620B34
S1132BB0730B840BBAF09150A1F0FF0FBB1F661F7B
S1132BC0771F881FC2F70EC0BA0F621F731F841FBE
S1132BD048F4879577956795B795F7959E3F08F0E4
S1132BE0B0CF9395880F08F09927EE0F97958795A6
S1132BF008950E94A91760F080E891E009F49EEF1F
S1132C000E94B01728F040E851E071F45EEF0CC068
S1132C100C947F170C94EA17E92FE0780E94C817E8
S1132C2040F3092E052AB1F3261737074807590739
S1132C3038F00E2E07F8E02569F0E025E0640AC0BC
S1132C40EF6307F8009407FADB01B9019D01DC0189
S1132C50CA01AD01EF930E9487160E94B7170E9424
S1132C603C165F91552339F02BED3FE049E450FDCC
S1132C7049EC0C948D150895DF93DD27B92FBF77A8
S1132C8040E85FE31616170648075B0718F4D92FC8
S1132C900E94F6179F938F937F936F930E946B18F4
S1132CA0E0EAF0E00E9482170E94B7172F913F914B
S1132CB04F915F910E941118DD2351F09058A2EAC0
S1132CC02AED3FE049EC5FE3D0785D270E94A4152C
S1132CD0DF910C94B7170E94551708F481E008950A
S1132CE00E9484160C94B7170E94B01758F00E94E3
S1132CF0A91740F029F45F3F29F00C94791751117A
S1132D000C94EB170C947F170E94C81768F399234F
S1132D10B1F3552391F3951B550BBB27AA276217D3
S1132D207307840738F09F5F5F4F220F331F441FE0
S1132D30AA1FA9F335D00E2E3AF0E0E832D0915014
S1132D405040E695001CCAF72BD0FE2F29D0660F01
S1132D50771F881FBB1F261737074807AB07B0E844
S1132D6009F0BB0B802DBF01FF2793585F4F3AF04A
S1132D709E3F510578F00C9479170C94EB175F3F44
S1132D80E4F3983ED4F3869577956795B795F795D0
S1132D909F5FC9F7880F911D9695879597F90895B8
S1132DA0E1E0660F771F881FBB1F62177307840754
S1132DB0BA0720F0621B730B840BBA0BEE1F88F763
S1132DC0E09508950E94E9166894B1110C94EB17EC
S1132DD008950E94D01788F09F5798F0B92F99272B
S1132DE0B751B0F0E1F0660F771F881F991F1AF0F2
S1132DF0BA95C9F714C0B13091F00E94EA17B1E056
S1132E0008950C94EA17672F782F8827B85F39F054
S1132E10B93FCCF3869577956795B395D9F73EF48A
S1132E2090958095709561957F4F8F4F9F4F089532
S1132E30E89409C097FB3EF4909580957095619550
S1132E407F4F8F4F9F4F9923A9F0F92F96E9BB2706
S1132E509395F695879577956795B795F111F8CF82
S1132E60FAF4BB0F11F460FF1BC06F5F7F4F8F4FED
S1132E709F4F16C0882311F096E911C0772321F0E3
S1132E809EE8872F762F05C0662371F096E8862F7B
S1132E9070E060E02AF09A95660F771F881FDAF7D2
S1132EA0880F9695879597F90895990F0008550FFF
S1132EB0AA0BE0E8FEEF16161706E807F907C0F0BC
S1132EC012161306E407F50798F0621B730B840BC4
S1132ED0950B39F40A2661F0232B242B252B21F49E
S1132EE008950A2609F4A140A6958FEF811D811D3E
S1132EF0089597F99F6780E870E060E008959FEF78
S1132F0080EC0895DF93CF931F930F93FF92EF927A
S1132F10DF927B018C01689406C0DA2EEF010E94D7
S1132F201118FE01E894A59125913591459155918B
S1132F30A6F3EF010E94A415FE019701A801DA94FB
S1132F4069F7DF90EF90FF900F911F91CF91DF9180
S1132F50089500240A9416161706180609060895FB
S1132F6000240A9412161306140605060895092E61
S1132F700394000C11F4882352F0BB0F40F4BF2BD0
S1132F8011F460FF04C06F5F7F4F8F4F9F4F089510
S1132F9057FD9058440F551F59F05F3F71F0479506
S1132FA0880F97FB991F61F09F3F79F087950895EB
S1132FB0121613061406551FF2CF4695F1DF08C00A
S1132FC0161617061806991FF1CF86957105610527
S1132FD008940895E894BB2766277727CB0197F9CF
S1132FE008950E94551708F48FEF08959B01AC01D2
S1132FF060E070E080E89FE30C9470160E94111862
S11330000C94B7170E94A91738F00E94B01720F04B
S1133010952311F00C9479170C947F1711240C94B8
S1133020EB170E94C81770F3959FC1F3950F50E0FA
S1133030551F629FF001729FBB27F00DB11D639F66
S1133040AA27F00DB11DAA1F649F6627B00DA11D0C
S1133050661F829F2227B00DA11D621F739FB00DB2
S1133060A11D621F839FA00D611D221F749F332722
S1133070A00D611D231F849F600D211D822F762FBB
S11330806A2F11249F5750409AF0F1F088234AF098
S1133090EE0FFF1FBB1F661F771F881F9150504004
S11330A0A9F79E3F510580F00C9479170C94EB1707
S11330B05F3FE4F3983ED4F3869577956795B7958B
S11330C0F795E7959F5FC1F7FE2B880F911D9695A5
S11330D0879597F908959B01AC010C94FE17FC01A8
S11330E0918D228D892F90E0805C9F4F821B9109E6
S11330F08F7399270895FC01918D828D981731F073
S1133100828DE80FF11D858D90E008958FEF9FEF7C
S11331100895FC01918D828D981761F0828DDF01F5
S1133120A80FB11D5D968C91928D9F5F9F73928FB6
S113313090E008958FEF9FEF0895FC01538D448D27
S1133140252F30E0842F90E0821B930B541710F04E
S1133150CF9608950197089581E09AE1892B49F06B
S113316080E090E0892B29F00E94011A81110C94CF
S113317000000895FC01848DDF01A80FB11DA35A3E
S1133180BF4F2C91848D90E001968F739927848F83
S1133190A689B7892C93A089B1898C9180648C937A
S11331A0938D848D981306C00288F389E02D808165
S11331B08F7D80830895EF92FF920F931F93CF9397
S11331C0DF93EC0181E0888F9B8D8C8D981305C073
S11331D0E889F989808185FD24C0F62E0B8D10E0E5
S11331E00F5F1F4F0F731127E02E8C8DE8120CC058
S11331F00FB607FCFACFE889F989808185FFF5CFFE
S1133200CE010E94BA18F1CF8B8DFE01E80FF11D9B
S1133210E35AFF4FF0820B8FEA89FB898081806239
S113322007C0EE89FF896083E889F9898081806419
S1133230808381E090E0DF91CF911F910F91FF9007
S1133240EF900895CF93DF93EC01888D8823C9F024
S1133250EA89FB89808185FD05C0A889B9898C919B
S113326086FD0FC00FB607FCF5CF808185FFF2CF36
S1133270A889B9898C9185FFEDCFCE010E94BA1837
S1133280E7CFDF91CF910895CF92DF92EF92FF9233
S11332901F93CF93DF93EC016A017B01122FE8891E
S11332A0F98982E080834115514E61057105B1F0C1
S11332B060E079E08DE390E0A70196010E94711D22
S11332C0DA01C9010197A109B109B695A7959795A6
S11332D087959C01211580E13807A8F0E889F989D0
S11332E0108260E874E88EE190E0A70196010E94E4
S11332F0711DDA01C9010197A109B109B695A79514
S1133300979587959C01EC85FD853083EE85FF8537
S11333102083188EEC89FD891083EA89FB898081DA
S113332080618083EA89FB89808188608083EA895F
S1133330FB89808180688083EA89FB8980818F7D15
S11333408083DF91CF911F91FF90EF90DF90CF901A
S113335008951F920F920FB60F9211242F938F93FB
S11333609F93EF93FF93E0914804F0914904808187
S1133370E0914E04F0914F0482FD12C0908180913F
S113338051048F5F8F7320915204821751F0E091A2
S11333905104F0E0E85CFB4F958F8093510401C029
S11333A08081FF91EF919F918F912F910F900FBE8C
S11333B00F901F9018951F920F920FB60F92112421
S11333C02F933F934F935F936F937F938F939F9329
S11333D0AF93BF93EF93FF9388E394E00E94BA18EE
S11333E0FF91EF91BF91AF919F918F917F916F91D9
S11333F05F914F913F912F910F900FBE0F901F90AF
S1133400189588E394E00E946F1821E0892B09F451
S113341020E0822F0895E8E3F4E01382128288EE1C
S113342093E0A0E0B0E084839583A683B78385E826
S113343092E09183808385EC90E09587848784EC87
S113344090E09787868780EC90E0918B808B81EC6D
S113345090E0938B828B82EC90E0958B848B86EC4E
S113346090E0978B868B118E128E138E148E089596
S113347008950E94A41C0E94381A0E94D506CCEA22
S1133480D8E10E9487072097E1F30E94AC18F9CF96
S11334900C94D21DCF92DF92EF92FF920F931F9361
S11334A0CF93DF936C017A018B01C0E0D0E0CE159D
S11334B0DF0581F0D8016D918D01D601ED91FC916C
S11334C00190F081E02DC6010995892B11F0219618
S11334D0EECF7E01C701DF91CF911F910F91FF9035
S11334E0EF90DF90CF9008956115710579F0FB019D
S11334F001900020E9F73197AF01461B570BDC011F
S1133500ED91FC910280F381E02D099480E090E03C
S113351008950C94741ADC01ED91FC910190F081F2
S1133520E02D099463E972E00C94741A0F931F93CD
S1133530CF93DF93EC010E94741A8C01CE010E9498
S1133540921A800F911FDF91CF911F910F910895CF
S11335508F929F92AF92BF92EF92FF920F931F931D
S1133560CF93DF93CDB7DEB7A1970FB6F894DEBF44
S11335700FBECDBF7C01FA01CB0119A2223008F4A1
S11335802AE08E010F5D1F4F822E912CA12CB12CAD
S1133590BF01A50194010E94711DF901CA010150E6
S11335A011096A3010F4605D01C0695CD8016C9344
S11335B0232B242B252B61F7B801C7010E94741A11
S11335C0A1960FB6F894DEBF0FBECDBFDF91CF91A9
S11335D01F910F91FF90EF90BF90AF909F908F90AD
S11335E008952115310541F4DC01ED91FC91019020
S11335F0F081E02D642F09940C94A81A9A01AB0170
S113360060E070E00C94F11ACF92DF92EF92FF9297
S11336100F931F93CF93DF932115310581F4DC01C0
S1133620ED91FC910190F081E02D642FDF91CF9119
S11336301F910F91FF90EF90DF90CF9009942A3063
S1133640310501F577FF1DC06A017B01EC016DE2D4
S11336500E948B1A8C0144275527BA014C195D0925
S11336606E097F092AE0CE010E94A81A800F911FDB
S1133670DF91CF911F910F91FF90EF90DF90CF904A
S113368008952AE0DF91CF911F910F91FF90EF9061
S1133690DF90CF900C94A81A9A01AB01770F660BB8
S11336A0770B0C94041B7F928F929F92AF92BF92E0
S11336B0CF92DF92EF92FF920F931F93CF93DF93FA
S11336C08C016A017B01722E9A01AB01C701B6011C
S11336D00E945C1D882319F066E972E027C0460148
S11336E05701E894B7F82FEF3FEF4FE75FE7C501C5
S11336F0B4010E945C1D81110DC02FEF3FEF4FE715
S11337005FE7C501B4010E946B1618161CF46AE940
S113371072E00CC02FEF3FEF4FE75FE4C701B60143
S11337200E94F117181694F46EE972E0C801DF9153
S1133730CF911F910F91FF90EF90DF90CF90BF90AA
S1133740AF909F908F907F900C94741A2FEF3FEF5F
S11337504FE75FECC701B6010E946B1687FDE4CF0B
S113376020E030E0A901C701B6010E946B1687FF73
S11337700AC06DE2C8010E948B1AEC01F7FAF094BA
S1133780F7F8F09402C0C0E0D0E0B12C60E070E043
S113379080E09FE37B1441F020E030E040E251E41C
S11337A00E947016B394F6CFA70196010E948D155E
S11337B06B017C010E94E9164B015C012AE0AB011C
S11337C0BC01C8010E94A81AC80FD91F7720B9F1FB
S11337D0C501B4010E9418179B01AC01C701B601D1
S11337E00E948C156B017C016EE2C8010E948B1A49
S11337F0C80FD91F20E030E040E251E4C701B60110
S11338000E94FE174B015C010E94E9166B017C01CA
S11338104AE050E0C8010E94FE1AC80FD91FB60141
S113382080E090E00E9418179B01AC01C501B4012F
S11338300E948C156B017C017A947110DBCFCE0150
S1133840DF91CF911F910F91FF90EF90DF90CF9078
S1133850BF90AF909F908F907F9008950C94531BCE
S11338601F920F920FB60F9211242F933F938F93B1
S11338709F93AF93BF938091D6049091D704A09166
S1133880D804B091D9043091D50420E1230F2D3709
S113389028F023E9230F0196A11DB11D2093D5041F
S11338A08093D6049093D704A093D804B093D904FA
S11338B08091DA049091DB04A091DC04B091DD04E2
S11338C00196A11DB11D8093DA049093DB04A093AB
S11338D0DC04B093DD04BF91AF919F918F913F9130
S11338E02F910F900FBE0F901F9018952FB7F8943B
S11338F06091D6047091D7048091D8049091D90432
S11339002FBF08953FB7F8948091DA049091DB04B7
S1133910A091DC04B091DD0426B5A89B05C02F3F1F
S113392019F00196A11DB11D3FBFBA2FA92F982FE1
S11339308827820F911DA11DB11DBC01CD01969553
S11339408795779567950895789484B5826084BD4A
S113395084B5816084BD85B5826085BD85B581608F
S113396085BDEEE6F0E0808181608083E1E8F0E0EF
S11339701082808182608083808181608083E0E81E
S1133980F0E0808181608083E1EBF0E080818460FD
S11339908083E0EBF0E0808181608083EAE7F0E0FF
S11339A08081846080838081826080838081816063
S11339B080838081806880831092C1000895CF93B2
S11339C0DF9390E0FC01E75FFE4F2491FC01E35E8E
S11339D0FE4F8491882361F190E0880F991FFC01C8
S11339E0EB5BFE4FC591D491FC01E55CFE4FA591C4
S11339F0B491611109C09FB7F894888120958223FE
S1133A008883EC912E230BC0623061F49FB7F89445
S1133A108881322F309583238883EC912E2B2C932D
S1133A209FBF06C08FB7F894E8812E2B28838FBFE1
S1133A30DF91CF9108954F925F926F927F92AF92F0
S1133A40BF92CF92DF92EF92FF920F931F93CF9387
S1133A50DF93CDB7DEB729013A019B01AC012419EC
S1133A6035094609570989899A89AB89BC89BC01FA
S1133A70CD016A197B098C099D090E94611DA80169
S1133A80970124193509460957090E94931DCA0153
S1133A90B9016A0D7B1D8C1D9D1DDF91CF911F9176
S1133AA00F91FF90EF90DF90CF90BF90AF907F90F9
S1133AB06F905F904F9008950E945517880B990B53
S1133AC00895DB018F939F930E94B81DBF91AF911E
S1133AD0A29F800D911DA39F900DB29F900D112464
S1133AE00895A1E21A2EAA1BBB1BFD010DC0AA1F3B
S1133AF0BB1FEE1FFF1FA217B307E407F50720F053
S1133B00A21BB30BE40BF50B661F771F881F991FCD
S1133B101A9469F760957095809590959B01AC0116
S1133B20BD01CF010895052E97FB1EF400940E9459
S1133B30AA1D57FD07D00E94711D07FC03D04EF447
S1133B400C94AA1D50954095309521953F4F4F4FA9
S1133B505F4F089590958095709561957F4F8F4F35
S1133B609F4F0895EE0FFF1F0590F491E02D0994E7
S1133B700E94C31DA59F900DB49F900DA49F800D1E
S1133B80911D11240895A29FB001B39FC001A39F6A
S1133B90700D811D1124911DB29F700D811D112482
S1133BA0911D08950F931F93CF93DF938230910556
S1133BB010F482E090E0E091E004F091E10420E070
S1133BC030E0A0E0B0E0309719F1408151810281EA
S1133BD0138148175907C8F08417950769F410979B
S1133BE031F012960C93129713961C9327C00093EE
S1133BF0E0041093E10422C02115310519F04217A5
S1133C00530718F49A01BD01EF01DF01F801DBCF7E
S1133C1021153105F9F0281B390B2430310580F4C6
S1133C208A819B816115710521F0FB019383828355
S1133C3004C09093E1048093E004FE01329644C0F2
S1133C40FE01E20FF31F81939193225031093983CE
S1133C5028833AC02091DE043091DF04232B41F401
S1133C6020910201309103013093DF042093DE049C
S1133C7020910001309101012115310541F42DB746
S1133C803EB74091040150910501241B350BE0918E
S1133C90DE04F091DF04E217F307A0F42E1B3F0BC0
S1133CA02817390778F0AC014E5F5F4F24173507AA
S1133CB048F04E0F5F1F5093DF044093DE0481935E
S1133CC0919302C0E0E0F0E0CF01DF91CF911F912A
S1133CD00F910895CF93DF93009709F481C0FC01FD
S1133CE0329713821282A091E004B091E1041097FC
S1133CF081F420813181820F931F2091DE04309161
S1133D00DF042817390751F5F093DF04E093DE044C
S1133D1067C0ED0120E030E0CE17DF0740F44A81B0
S1133D205B819E0141155105F1F0EA01F5CFD38382
S1133D30C28340815181840F951FC817D90759F454
S1133D4088819981840F951F0296918380838A814B
S1133D509B81938382832115310529F4F093E10437
S1133D60E093E0043DC0E901FB83EA834991599162
S1133D70C40FD51FEC17FD0761F480819181840F76
S1133D80951F0296E90199838883828193819B839D
S1133D908A83E0E0F0E012968D919C91139700974E
S1133DA019F0FD01DC01F7CF8D919C9111979D01D4
S1133DB02E5F3F4F820F931F2091DE043091DF046A
S1133DC02817390769F4309729F41092E104109206
S1133DD0E00402C013821282B093DF04A093DE04D5
S1133DE0DF91CF910895662777270C94331F42EA19
S1133DF052E00E940C1F0895FB01DC018D9101909B
S1133E0080190110D9F3990B0895FB01DC0101908D
S1133E100D920020E1F70895FA01A191B081009775
S1133E2019F41097E1F0CD01DC01CD010D900020D3
S1133E3011F4C00113C0FB012191222319F02015B4
S1133E40D9F7F3CFFB012191201519F41E92119695
S1133E5006C02223C1F70D900020A1F7D001FA017A
S1133E60A193B0830895A0E0B0E0E9E3FFE10C94EE
S1133E70AB20EC016B016115710519F0FB01918315
S1133E8080837E01FFEFEF1AFF0A0881802F90E004
S1133E900E948120892B11F0E701F3CF0D3239F410
S1133EA07E0182E0E80EF11C098111E008C00B32AA
S1133EB029F47E0192E0E90EF11C098110E0E7018A
S1133EC0219743E050E066ED70E0CE010E948A2025
S1133ED0892BC1F4239645E050E061ED70E0CE01FA
S1133EE00E948A20892B09F42596C114D10419F063
S1133EF0F601D183C0831111F6C060E070E080E860
S1133F009FE7FAC043E050E06EEC70E0CE010E94FF
S1133F108A20892B59F4C114D10409F4E9C0F2E0D0
S1133F20EF0EF11CF601F182E082E2C020E030E005
S1133F30A901C0E0D0E0F70180EDA82EA00E89E031
S1133F408A1530F1912F9260B92E812F887012FF5B
S1133F5004C0811124C0219622C081112197A5E0BB
S1133F60B0E00E94B81DDC01CB01880F991FAA1F85
S1133F70BB1F9C01AD012A0D311D411D511D283966
S1133F8089E93807480789E1580748F0166006C0F0
S1133F909EEFA9120AC013FD40C01860B12E8FEF26
S1133FA0E81AF80A00811B2DC6CF802F8F7D853437
S1133FB0A1F580818D3211F4106106C08B3221F09D
S1133FC0319661E070E004C08181329662E070E075
S1133FD080538A3018F0E61BF70B1FC060E070E0D6
S1133FE060389CE079075CF4DB01AA0FBB1FAA0FC1
S1133FF0BB1F6A0F7B1F660F771F680F711D3196F9
S1134000DF0111978C9180538A3050F314FF03C061
S1134010719561957109C60FD71F11FF08C0C114AE
S1134020D10429F0CF010197F60191838083CA015D
S1134030B9010E941817212F2370233019F04B0166
S11340405C0106C04B015C01B7FAB094B7F8B094B8
S113405020E030E0A901C501B4010E946B16882359
S113406009F43EC0D7FF06C0D195C195D1090DEE24
S113407010E002C005E011E06801F8E1CF1AD108B0
S113408090E2E92EF12CCE15DF0574F0F8012591AC
S1134090359145915491C501B4010E94FE174B011D
S11340A05C01CE19DF09EFCF04501109F594E794B0
S11340B00C151D0541F78A2D880F8B2D881F8F3F06
S11340C049F020E030E0A901C501B4010E946B165B
S11340D0811106C082E290E09093E3048093E204AD
S11340E0C501B40109C060E070E080E89FEF04C03E
S11340F060E070E080EC9FE7CDB7DEB7ECE00C94B5
S1134100C72091110C94A220803219F08950855057
S1134110C8F70895FB01DC014150504088F08D91AF
S113412081341CF08B350CF4805E659161341CF095
S11341306B350CF4605E861B611171F3990B089565
S1134140881BFCCF9927882708952F923F924F927E
S11341505F926F927F928F929F92AF92BF92CF9213
S1134160DF92EF92FF920F931F93CF93DF93CDB71C
S1134170DEB7CA1BDB0B0FB6F894DEBF0FBECDBF94
S113418009942A88398848885F846E847D848C8465
S11341909B84AA84B984C884DF80EE80FD800C816E
S11341A01B81AA81B981CE0FD11D0FB6F894DEBF51
S10F41B00FBECDBFED010895F894FFCFC1
S11341BC0000E404200001E8034D30004D310047B9
S11341CC690044443A2000454E433A2000203020F4
S11341DC005049443A20005345543A2000535000AF
S11341EC44656275673A20535020537461727400AD
S11341FC44656275673A20535020446F6E650047DE
S113420C440044656275673A2047442053746172D4
S113421C740044656275673A20474420446F6E65A8
S113422C0053530044656275673A2053532053740A
S113423C6172740044656275673A20535320446F6D
S113424C6E650047435F4F4E0047435F4F46460041
S113425C4752505F4F4E004752505F4F4646004DF9
S113426C505F4F4E004D505F4F46460047505F4FD6
S113427C4E0047505F4F464600585500584400586E
S113428C5200584C004752443A200047494F3A20B8
S113429C0053657475703A53657269616C20496E8C
S11342AC697469616C697A65640053657475703AF4
S11342BC204D70753630353020496E697469616CE7
S11342CC697A65640053657475703A204D6F746F28
S11342DC727320496E697469616C697A6564005300
S11342EC657475703A20456E636F6465727320490A
S11342FC6E697469616C697A656400536574757070
S113430C3A205069647320696E697469616C697AC6
S113431C65640053657475703A20446F6E650000D3
S113432C000000C3129612671295126A127212865A
S113433C1200000000DB184A1A9D1822196F188904
S113434C187B180D0A006E616E00696E66006F763C
S105435C6600F5
S9030000FC
