:100000000C94AC000C94D4000C94D4000C946013A9
:100010000C94DD130C94D4000C94D4000C945E0F5B
:100020000C94D4000C94D4000C94D4000C94D40000
:100030000C94D4000C94D4000C94D4000C94D400F0
:100040000C94611B0C94D4000C94CA180C94FC18EA
:100050000C94D4000C94D4000C94D4000C94D400D0
:100060000C945B100C94D4009A13A613B213A6132D
:10007000D113BE139A139A13BE13D113A613B2133E
:10008000A6139A13151421142D1421144C14391489
:100090001514151439144C1421142D14211415148D
:1000A000084AD73B3BCE016E84BCBFFDC12F3D6CDF
:1000B00074319ABD56833DDA3D00C77F11BED9E445
:1000C000BB4C3E916BAAAABE000000803F004E418F
:1000D0004E494E495459494E46CDCCCC3D0AD723C2
:1000E0003C17B7D13877CC2B329595E6241FB14F0A
:1000F0000A000020410000C84200401C4620BCBE4F
:100100004CCA1B0E5AAEC59D740102040810204053
:1001100080010204081020010204081020040404D5
:1001200004040404040202020202020303030303A0
:100130000300000000230026002900000000002525
:100140000028002B0000000000240027002A0000E7
:10015000D605AA12AE122C1911241FBECFEFD8E07B
:10016000DEBFCDBF12E0A0E0B1E0ECEDFDE302C0E8
:1001700005900D92AA39B107D9F725E0AAE9B2E0B6
:1001800001C01D92AF3DB207E1F710E0CCEAD0E02C
:1001900004C02197FE010E94E31CC83AD107C9F7A9
:1001A0000E945A190C94EC1E0C940000CF93DF931C
:1001B000EC0167E071E087E395E00E94A819BE01B9
:1001C00087E395E00E94A81964E171E087E395E078
:1001D0000E94A8194D815E816F81788522E030E010
:1001E00087E395E00E945F1B64E171E087E395E09F
:1001F0000E94A81949855A856B857C8522E030E0EC
:1002000087E395E00E945F1B64E171E087E395E07E
:100210000E94A8194D855E856F85788922E030E0BF
:1002200087E395E00E945F1B64E171E087E395E05E
:100230000E94A81949895A896B897C8922E030E09B
:1002400087E395E00E945F1B64E171E087E395E03E
:10025000DF91CF910C94B5196CE071E087E395E0E4
:100260000E94A81940910C0450910D0460910E0455
:1002700070910F0422E030E087E395E00E945F1B5D
:1002800062E171E087E395E00E94A8194091EF03D5
:100290005091F0036091F1037091F20322E030E09D
:1002A00087E395E00E945F1B62E171E087E395E0E0
:1002B0000E94A81964E171E087E395E00C94B519F8
:1002C0000F931F93CF93DF9366E171E087E395E08F
:1002D0000E94A81907EF13E0F801418D528D638D3C
:1002E000748D22E030E087E395E00E945F1B64E1BB
:1002F00071E087E395E00E94A819CAEDD3E0498D2B
:100300005A8D6B8D7C8D22E030E087E395E00E9472
:100310005F1B64E171E087E395E00E94B5196CE131
:1003200071E087E395E00E94A819F801418952899C
:100330006389748922E030E087E395E00E945F1BC7
:1003400064E171E087E395E00E94A81949895A8920
:100350006B897C8922E030E087E395E00E945F1B97
:1003600064E171E087E395E0DF91CF911F910F91F8
:100370000C94B519CF92DF92EF92FF920F931F93D7
:10038000CF93DF938091B802882309F48AC164E196
:1003900071E089EB92E00E94071DEC0162E271E0DE
:1003A0000E940C1D892B09F088C065E271E087E38B
:1003B00095E00E94B51964E171E080E090E00E9450
:1003C000071DEC0165E371E00E940C1D892B49F4C7
:1003D00087EF93E09093B7028093B60281E893E0B1
:1003E0001FC068E371E0CE010E940C1D892B49F407
:1003F0008AED93E09093B7028093B60285E493E090
:100400000FC06BE371E0CE010E940C1D892B61F4DB
:100410008DEB93E09093B7028093B60289E093E06E
:100420009093B5028093B40264E171E080E090E0C3
:100430000E94071DC091B602D091B7020E94031D11
:100440006D837E838F83988764E171E080E090E024
:100450000E94071DC091B602D091B7020E94031DF1
:1004600069877A878B879C8764E171E080E090E000
:100470000E94071DC091B602D091B7020E94031DD1
:100480006D877E878F87988BE091B602F091B702D7
:10049000C584D684E784F088018512852385348558
:1004A00045815681678170858091B4029091B50233
:1004B0000E949B0A6EE371E03CC06DE471E0CE01E6
:1004C0000E940C1D892BD1F560E571E087E395E072
:1004D0000E94B51964E171E080E090E00E94071D80
:1004E000EC0165E371E00E940C1D892B19F487EF84
:1004F00093E013C068E371E0CE010E940C1D892BCC
:1005000019F48AED93E009C06BE371E0CE010E941B
:100510000C1D892B31F48DEB93E09093B7028093FF
:10052000B6028091B6029091B7020E94D60060E6B2
:1005300071E087E395E00E94B519B1C06FE671E004
:10054000CE010E940C1D892B09F046C062E771E0C4
:1005500087E395E00E94B51964E171E080E090E0E6
:100560000E94071DEC0165E371E00E940C1D892BC0
:1005700019F487EF93E013C068E371E0CE010E94A5
:100580000C1D892B19F48AED93E009C06BE371E02F
:10059000CE010E940C1D892B61F48DEB93E09093AA
:1005A000B7028093B60281E893E09093B5028093FE
:1005B000B40264E171E080E090E00E94071DC09108
:1005C000B602D091B7020E94031D698B7A8B8B8B88
:1005D0009C8B62E871E0ADCF61E971E0CE010E94D1
:1005E0000C1D892B21F481E08093040158C067E938
:1005F00071E0CE010E940C1D892B99F41092040128
:10060000109208041092090410920A0410920B042C
:100610001092EB031092EC031092ED031092EE0394
:100620003EC06EE971E0CE010E940C1D892B21F4C1
:1006300081E08093B30233C065EA71E0CE010E948D
:100640000C1D892B19F41092B30229C06DEA71E0D8
:10065000CE010E940C1D892B21F481E08093B2020F
:100660001EC063EB71E0CE010E940C1D892B19F4B2
:100670001092B20214C06AEB71E0CE010E940C1D10
:10068000892B21F481E08093B10209C060EC71E014
:10069000CE010E940C1D892B11F41092B102109210
:1006A000B802DF91CF911F910F91FF90EF90DF90F3
:1006B000CF900895CF93DF93C0910201D0910301B1
:1006C0006091330570913405809135059091360520
:1006D0000E943B16688379838A839B83C0910001C3
:1006E000D091010160912F05709130058091310505
:1006F000909132050E943B16688379838A839B839D
:10070000109233051092340510923505109236057B
:1007100010922F051092300510923105109232057B
:10072000DF91CF9108958F929F92AF92BF92CF9217
:10073000DF92EF92FF920F931F93CF93DF930E946C
:10074000A71B6093AD027093AE028093AF029093AB
:10075000B002C090A502D090A602E090A702F0904F
:10076000A8029B01AC012C193D094E095F09209399
:10077000A9023093AA024093AB025093AC0260935B
:10078000A5027093A6028093A7029093A80285E326
:1007900094E00E946F0E909334048093330485E3B9
:1007A00094E00E948A0E909332048093310485E392
:1007B00094E00E94A50EEC019093300480932F04E6
:1007C0006091310470913204072E000C880B990B54
:1007D0000E943B166B017C016091330470913404DC
:1007E000072E000C880B990B0E943B16A70196015F
:1007F0000E942D1521EE3EE245E652E40E941F17AD
:100800006093290470932A0480932B0490932C0402
:10081000BE01DD0F880B990B1F921F921F922AEFCA
:100820002F9326E0A22EBB24BA94CB2CDB2CEE24F3
:10083000EA941FE7F12E00E010E020E030E84FEFEF
:100840005FEF0E944C1C70932E0460932D04C091A6
:100850002D04D0912E046091A9027091AA0280917A
:10086000AB029091AC020E9439166B017C01BE0173
:10087000DD0F880B990B0E943B169B01AC01C70151
:10088000B6010E941F1720E030E04AE754E40E94BE
:100890009115609325047093260480932704909308
:1008A000280460911D0470911E0480911F04909192
:1008B0002004209125043091260440912704509172
:1008C00028048090290490902A04A0902B04B090D2
:1008D0002C040E94AE1426E73FE44EE75FE30E943B
:1008E0001F176B017C0120ED34E448ED5BE3C5018B
:1008F000B4010E941F179B01AC01C701B6010E9401
:10090000AE14609321047093220480932304909387
:1009100024048091210490912204A0912304B09199
:10092000240480931D0490931E04A0931F04B0938D
:1009300020048091210490912204A0912304B0917D
:100940002404B0588093D2039093D303A093D4038C
:10095000B093D5030F900F900F900F90DF91CF9130
:100960001F910F91FF90EF90DF90CF90BF90AF90CD
:100970009F908F90089567EC71E087E395E00E9467
:10098000A81960913304709134044AE050E087E381
:1009900095E00E947D1A64E171E087E395E00E9492
:1009A000A81960913104709132044AE050E087E365
:1009B00095E00E947D1A64E171E087E395E00E9472
:1009C000A81960912F04709130044AE050E087E349
:1009D00095E00E947D1A64E171E087E395E00C9454
:1009E000B519CF93DF936DEC71E087E395E00E943A
:1009F000A819CDEBD3E04D895E896F89788D22E00F
:100A000030E087E395E00E945F1B64E171E087E3DB
:100A100095E00E94A819498D5A8D6B8D7C8D22E03E
:100A200030E087E395E00E945F1B64E171E087E3BB
:100A300095E0DF91CF910C94B5190F931F9326E0A9
:100A400040E950ED63E070E087E395E00E946518AF
:100A500063ED71E087E395E00E94B51985E394E0CA
:100A60000E94D20E65EF71E085E394E00E94E60EED
:100A700061E176E085E394E00E94EC0E68E275E0C7
:100A800085E394E00E94F20E66E970E085E394E06D
:100A90000E94F80E6AEF7FEF85E394E00E94FE0E5D
:100AA00063E170E085E394E00E94040F6CEE71E076
:100AB00087E395E00E94B5190E94D4120E94E712C4
:100AC00060E070E080E090E00E941F1367E072E059
:100AD00087E395E00E94B5190E943E1361E272E03F
:100AE00087E395E00E94B51987EF93E00E94D60056
:100AF0008AED93E00E94D6008DEB93E00E94D60031
:100B000065E070E081E893E00E94B10A00E010E047
:100B10002FE733E440E050E06FE773EC81E893E0C7
:100B20000E94FF0A61E070E081E893E00E94C50B3B
:100B300065E070E085E493E00E94B10A00E010E017
:100B40002FE733E440E050E06FE773EC85E493E097
:100B50000E94FF0A61E070E085E493E00E94C50B0B
:100B600065E070E089E093E00E94B10A61E070E026
:100B700089E093E00E94C50B00E010E02CE132E434
:100B800040E050E06CE172EC89E093E00E94FF0AE3
:100B90006DE372E087E395E00E94B51965E572E0C8
:100BA00087E395E01F910F910C94B5197F928F9276
:100BB0009F92AF92BF92CF92DF92EF92FF920F93EC
:100BC0001F93CF93DF932BE430E048E069E084E4A7
:100BD00094E00E941C0F85E394E00E94520E65E3AE
:100BE00071E087EF93E00E94151DE7EFF3E0C12C61
:100BF000D12C80EAE82E81E4F82EC582D682E782E5
:100C0000F086158616861786108AC186D286E386F8
:100C1000F486118A128A138A148A68E371E08AEDD5
:100C200093E00E94151D9AED892E93E0992EF40110
:100C3000C582D682E782F086158616861786108AC8
:100C4000C186D286E386F486118A128A138A148AB0
:100C50006BE371E08DEB93E00E94151DCDEBD3E0CB
:100C600080E090E0A0E8BFE38D839E83AF83B887E8
:100C70001D861E861F86188A80E090E0A0E0BFE3F4
:100C800089879A87AB87BC8780E090E0A0E8BFEBBC
:100C9000898B9A8BAB8BBC8B1F921F921F927724F0
:100CA00073947F921F921F921F921F9256016701A9
:100CB0008601750128E034E040E154E06CE074E026
:100CC00081E893E00E94180CF401A184B284C384EB
:100CD000D484E580F680078110851F921F921F92B1
:100CE0007F9280898F9387858F9386858F93858563
:100CF0008F932BEE33E043EF53E06FEE73E085E428
:100D000093E00E94180CA984BA84CB84DC84ED8023
:100D1000FE800F8118851F921F921F927F928889F3
:100D20008F938F858F938E858F938D858F932EECE8
:100D300033E046ED53E062ED73E089E093E00E941A
:100D4000180C8DB79EB748960FB6F8949EBF0FBE8D
:100D50008DBFDF91CF911F910F91FF90EF90DF90AA
:100D6000CF90BF90AF909F908F907F900895CF933A
:100D7000DF93C1E0DFE487E395E00E949017181647
:100D800019061CF58091B80281111FC087E395E018
:100D90000E94AA17E0919C028A3071F0AE2FB0E059
:100DA000A754BD4F8C93EF5FE03518F4E0939C029D
:100DB000E2CFD0939C02DFCFF0E0E754FD4F1082EA
:100DC00010929C02C093B802D6CFDF91CF910895C4
:100DD0008F929F92AF92BF92CF92DF92EF92FF924B
:100DE0000E94B31B6093A1027093A2028093A3029E
:100DF0009093A4020E94A71B6B017C0180911904AF
:100E000090911A04A0911B04B0911C04A7019601B3
:100E1000281B390B4A0B5B0B253031054105510569
:100E200050F0C0921904D0921A04E0921B04F09280
:100E30001C040E945A030E94930320919D0230914A
:100E40009E0240919F025091A0026091D203709146
:100E5000D3038091D4039091D5030E94AE14609384
:100E6000D2037093D3038093D4039093D50389E086
:100E700093E00E945E08809104018823C1F0809174
:100E8000D6039091D703A091D803B091D903809352
:100E9000080490930904A0930A04B0930B04809370
:100EA000EB039093EC03A093ED03B093EE0381E882
:100EB00093E00E945E0885E493E00E945E088091C2
:100EC000140481111FC08090D2039090D303A0908E
:100ED000D403B090D50320E030E040E850ECC501E9
:100EE000B4010E94121718166CF420E030E040E0C4
:100EF00050E4C501B4010E948C1587FF03C081E056
:100F00008093140480910401882309F44DC08091DA
:100F100014048823C1F18090D2039090D303A09051
:100F2000D403B090D50320E030E048E452E4C5019A
:100F3000B4010E941217181634F120E030E048E4A2
:100F400052ECC501B4010E948C1587FD1CC0809035
:100F5000D6039090D703A090D803B090D90320E097
:100F600030E040E85FE3C501B4010E941217181693
:100F7000DCF420E030E040E85FE3C501B4010E940A
:100F80008C1587FF11C060E070E080E090E00E9467
:100F90001F131092140410929D0210929E02109240
:100FA0009F021092A0021BC06091F3037091F403A2
:100FB0008091F5039091F6030E9403164B015C01AA
:100FC00060911004709111048091120490911304A7
:100FD0000E940316DC01CB01B4010E941F13809113
:100FE000150490911604A0911704B0911804A7015C
:100FF0009601281B390B4A0B5B0B24363105410542
:10100000510508F452C0C0921504D0921604E09223
:101010001704F09218048091B30281110E94BB045E
:101020008091B10281110E94F1048091B202882363
:1010300021F00E942C010E9460010E94B7060E94CC
:10104000BA010E94B31BC090A102D090A202E0900E
:10105000A302F090A402DC01CB018C199D09AE091A
:10106000BF098093A1029093A202A093A302B09320
:10107000A40261E672E087E395E00E94A81940911E
:10108000A1025091A2026091A3027091A4022AE0F1
:1010900030E087E395E0FF90EF90DF90CF90BF9036
:1010A000AF909F908F900C94231AFF90EF90DF9059
:1010B000CF90BF90AF909F908F9008952F923F92C6
:1010C0004F925F926F927F928F929F92AF92BF9258
:1010D000CF92DF92EF92FF920F931F93CF93DF9304
:1010E000CDB7DEB760970FB6F894DEBF0FBECDBFA9
:1010F000DC01DA96BC91B983B11102C019822BC10F
:10110000988B8F870E94A71B6E837F838887998720
:10111000EF85F88982A193A1A4A1B5A14E815F8139
:1011200068857985481B590B6A0B7B0B86A597A5AB
:10113000A0A9B1A9481759076A077B07F8F2048CE0
:10114000F58DE02D80819181A281B3818A839B837B
:10115000AC83BD83AF85B8899096ED91FC91919752
:101160002A813B814C815D81608171818281938183
:101170000E94AD144B015C01EF85F88922A533A5CF
:1011800044A555A56A817B818C819D810E94AD1407
:101190006B017C01AF85B88950962D913D914D91A1
:1011A0005C915397C501B4010E941F17EF85F88920
:1011B00026A137A140A551A50E94AE142B013C01E8
:1011C000AF85B88996966D937D938D939C939997EF
:1011D000DB96BC91BA87B11118C0EF85F8892485D8
:1011E000358546855785C701B6010E941F179B01AB
:1011F000AC01C301B2010E94AD14AF85B8899696C7
:101200006D937D938D939C939997EF85F88946A074
:1012100057A060A471A416A907A930AC21AC212F56
:10122000302F432D522DC301B2010E941217181600
:101230002CF4812F902FA32DB22D18C0AF85B88923
:10124000D2968D919D910D90BC91A02D8B879C87FE
:10125000AD87BE879C01AD01C301B2010E948C1510
:1012600087FF0AC08B859C85AD85BE85EF85F88993
:1012700086A397A3A0A7B1A7FA85FF2379F0AF852E
:10128000B8891C962D913D914D915C911F97C50198
:10129000B4010E941F174B015C0103C0812C912CEB
:1012A0005401EF85F8892489358946895789C70112
:1012B000B6010E941F179B01AC01AF85B8899696B5
:1012C0006D917D918D919C9199970E94AD14A5018E
:1012D00094010E94AE146B017C019B01AC01612F53
:1012E000702F832D922D0E948C1587FD14C0EF85E1
:1012F000F88912A903A934A825A8212F302F432D3E
:10130000522DB601C7010E948C1587FD04C01C2D0B
:101310000D2D3E2C2F2CAF85B8895E96ED91FC915A
:101320005F97812F902FA32DB22D80839183A2836D
:10133000B3838A819B81AC81BD81EF85F88982A7C7
:1013400093A7A4A7B5A78E819F81A885B98582A3FD
:1013500093A3A4A3B5A3898160960FB6F894DEBFCA
:101360000FBECDBFDF91CF911F910F91FF90EF90F6
:10137000DF90CF90BF90AF909F908F907F906F90B5
:101380005F904F903F902F9008954F925F926F9291
:101390007F928F929F92AF92BF92CF92DF92EF9205
:1013A000FF920F931F93CF93DF9300D000D000D014
:1013B000CDB7DEB79E838D8349835A836B837C834D
:1013C0002801390120E030E0A90169817A818B810F
:1013D0009C810E948C1587FD97C020E030E0A90118
:1013E000C301B2010E948C1587FD8EC020E030E061
:1013F000A901C701B6010E948C1587FD85C0AD818A
:10140000BE815B96BC92AE925A9781E0AA94AB28BB
:1014100009F080E0ED81FE8183AF89819A81AB8103
:10142000BC8180839183A283B38344825582668288
:101430007782C086D186E286F38666A577A580A9E5
:1014400091A90E94391620E030E04AE754E40E9456
:1014500091154B015C0189819A81AB81BC81ED8141
:10146000FE8184879587A687B787A5019401C3016C
:10147000B2010E941F172B013C01AD81BE81509625
:101480006D937D938D939C935397A5019401C70110
:10149000B6010E9491156B017C01ED81FE81648B88
:1014A000758B868B978B808D918D019769F529813E
:1014B0003A814B815C8160E070E0CB010E94AD1409
:1014C000AD81BE811C966D937D938D939C931F97E8
:1014D000A301920160E070E0CB010E94AD14ED81A8
:1014E000FE81608B718B828B938BA701960160E0EC
:1014F00070E0CB010E94AD14AD81BE8154966D9316
:101500007D938D939C93579726960FB6F894DEBFE4
:101510000FBECDBFDF91CF911F910F91FF90EF9044
:10152000DF90CF90BF90AF909F908F907F906F9003
:101530005F904F900895AF92BF92CF92DF92EF925B
:10154000FF920F931F93FC01A28CB38C0E94C509DC
:101550001F910F91FF90EF90DF90CF90BF90AF90D1
:1015600008958F929F92AF92BF92CF92DF92EF92A7
:10157000FF92CF93DF9316161706B4F56B01EC01BB
:101580000D2C000CEE08FF08C701B6010E943B16A7
:101590004B015C016EA57FA588A999A90E94391607
:1015A0009B01AC01C501B4010E9491154B015C0186
:1015B0009B01AC01688979898A899B890E941F17E0
:1015C000688B798B8A8B9B8BA50194016C897D89B3
:1015D0008E899F890E9491156C8B7D8B8E8B9F8B42
:1015E000CEA6DFA6E8AAF9AADF91CF91FF90EF90EF
:1015F000DF90CF90BF90AF909F908F9008952F92E3
:101600003F924F925F926F927F928F929F92AF9292
:10161000BF92CF92DF92EF92FF920F931F93CF93DF
:10162000DF93EC016A017B0148015901A90198018E
:10163000C701B6010E94121787FF4EC0CAAADBAAD3
:10164000ECAAFDAA8EAA9FAAA8AEB9AE8AAD88233D
:1016500009F442C02E8C3F8CF101408051806280A1
:101660007380A3019201C501B4010E948C1587FF0C
:1016700006C0F10180829182A282B3820DC0A301D3
:101680009201C701B6010E94121718162CF4F1013D
:10169000C082D182E282F3828EA09FA0A8A4B9A4C6
:1016A000CEA8DFA8E8ACF9ACA7019601C501B4014A
:1016B0000E941217181664F0CAA8DBA8ECA8FDA8AF
:1016C000A7019601C501B4010E948C1587FF04C0D3
:1016D000CEA2DFA2E8A6F9A6DF91CF911F910F91CC
:1016E000FF90EF90DF90CF90BF90AF909F908F9042
:1016F0007F906F905F904F903F902F9008958F92C2
:101700009F92AF92BF92CF92DF92EF92FF92CF93D0
:10171000DF93EC01EE8DFF8DC080D180E280F380FD
:10172000CEA2DFA2E8A6F9A6EC8DFD8D8081918185
:10173000A281B3818AA79BA7ACA7BDA78EA89FA8AB
:10174000A8ACB9ACA5019401C701B6010E9412175B
:10175000181664F08AA89BA8ACA8BDA8A50194019E
:10176000C701B6010E948C1587FF04C08EA29FA2FC
:10177000A8A6B9A6DF91CF91FF90EF90DF90CF9010
:10178000BF90AF909F908F9008951F93CF93DF935A
:10179000EC0111E06130710509F010E06130710574
:1017A00031F48AAD811103C0CE010E947F0B1AAFC4
:1017B000DF91CF911F9108950F931F93CF93DF93E4
:1017C000EC018B018AAD882361F1888D998D861794
:1017D000970739F12C853D854E855F8560E070E087
:1017E000CB010E94AD146C877D878E879F872889E7
:1017F00039894A895B8960E070E0CB010E94AD14B1
:10180000688B798B8A8B9B8B2C893D894E895F896C
:1018100060E070E0CB010E94AD146C8B7D8B8E8BF1
:101820009F8B198F088FDF91CF911F910F91089592
:101830004F925F926F927F928F929F92AF92BF92E0
:10184000CF92DF92EF92FF920F931F93CF93DF938C
:1018500000D000D0CDB7DEB74C0127013801A982F6
:10186000BA82CB82DC82FC01578F468F758F648FE2
:1018700031A320A312AE12AA13AA14AA15AA80E0BB
:1018800090E0AFE7B3E486AB97ABA0AFB1AF84E62F
:1018900090E0A0E0B0E086A797A7A0ABB1AB6D8DBC
:1018A0007E8DC4010E94DC0BAB8CBC8CCF88D88CA5
:1018B000E98CFA8C09811A812B813C81B301A20148
:1018C000C4010E94C5090E94A71BF40146A457A4A5
:1018D00060A871A8DC01CB0184199509A609B70994
:1018E00082A393A3A4A3B5A30F900F900F900F9082
:1018F000DF91CF911F910F91FF90EF90DF90CF90EC
:10190000BF90AF909F908F907F906F905F904F901F
:101910000895FF920F931F93CF93DF93C62F142F39
:10192000F22E032F682F86EC94E00E9423126C2F76
:1019300086EC94E00E94E411CF2DD02FCE01810FD0
:10194000911D8C01C017D10731F0699186EC94E0AC
:101950000E94E411F7CF86EC94E00E94A71291E078
:10196000811190E0892FDF91CF911F910F91FF900E
:101970000895CF93DF931F92CDB7DEB749839E01C1
:101980002F5F3F4F41E00E94890C0F90DF91CF9174
:101990000895CF92DF92FF920F931F93CF93DF931F
:1019A000C62F042F6901682F86EC94E00E94231251
:1019B0006C2F86EC94E00E94E41110E0000F111FE0
:1019C000F12CCF2DD0E0C017D1078CF4CC0FDD1F48
:1019D000CC0DDD1D698186EC94E00E94E4116881E4
:1019E00086EC94E00E94E411F394F394EACF86EC41
:1019F00094E00E94A71291E0811190E0892FDF917D
:101A0000CF911F910F91FF90DF90CF900895CF93CA
:101A1000DF9300D0CDB7DEB75A8349839E012F5F95
:101A20003F4F41E00E94C90C0F900F90DF91CF9182
:101A300008953F924F925F926F927F928F929F9202
:101A4000AF92BF92CF92DF92EF92FF920F931F93CC
:101A5000CF93DF9300D000D000D0CDB7DEB7D82E23
:101A6000C62E4D8379010E94A71B4B015C01312CCE
:101A70001E829D81892F90E09C838B832801612C9D
:101A8000712CED813E16C8F56D2D86EC94E00E9418
:101A900023126C2D86EC94E00E94E41186EC94E015
:101AA0000E94A7126D2D86EC94E00E9423124B81B8
:101AB0005C81431951094132510514F040E250E074
:101AC0006D2D86EC94E00E94A41286EC94E00E94B6
:101AD0008B11892B09F443C00115110569F10E948E
:101AE000A71BDC01CB0188199909AA09BB09841538
:101AF0009505A605B70500F132C001151105A9F13C
:101B00000E94A71BDC01CB0188199909AA09BB090E
:101B100020E030E080179107A207B30730F1FD8184
:101B20002F2F30E04E81842F440F990B821793079B
:101B3000E4F48FEF8E8319C0F7012E81E20FF11DBF
:101B400027FDFA95FA83E98386EC94E00E949311CD
:101B5000E981FA818083FE81FF5FFE83B6CF8D81AC
:101B6000813208F080E2380E8CCF8E8126960FB637
:101B7000F894DEBF0FBECDBFDF91CF911F910F91C3
:101B8000FF90EF90DF90CF90BF90AF909F908F909D
:101B90007F906F905F904F903F9008950F931F93A9
:101BA00089019A0141E00E94190D1F910F9108953A
:101BB000EF92FF920F931F93CF93DF931F92CDB7B6
:101BC000DEB7182F062FF42EE22E2091050130915A
:101BD0000601AE014F5F5F4F0E94CE0D898141E04B
:101BE00050E001C0440FFA94EAF7EE2011F0482BC0
:101BF00002C0409548234983602F812F0E94B90C71
:101C00000F90DF91CF911F910F91FF90EF9008956A
:101C1000DF92EF92FF920F931F93CF93DF931F9268
:101C2000CDB7DEB7182FF62EE42ED22E2091050167
:101C300030910601AE014F5F5F4F0E94CE0D8823A9
:101C400039F12E2D30E02D1931092F5F3F4F81E002
:101C500090E002C0880F991FDA94E2F70197022EF4
:101C600001C0880F0A94EAF7402F50E0BA0102C081
:101C7000660F771F2A95E2F7482F409599814923EF
:101C80008623482B49836F2D812F0E94B90C01C0F8
:101C900080E00F90DF91CF911F910F91FF90EF9017
:101CA000DF90089528E6FC0120830895FC016083FD
:101CB00008950F93062F22E044E06BE1FC01808140
:101CC0000E94080E0F9108950F93062F22E044E022
:101CD0006CE1FC0180810E94080E0F9108950F9322
:101CE0001F93CF93DF93EC01009105011091060142
:101CF0009C012F5F3F4F42E06DE388810E94190DE8
:101D000089819A81982789279827DF91CF911F9100
:101D10000F9108950F931F93CF93DF93EC010091E0
:101D20000501109106019C012F5F3F4F42E06FE3D8
:101D300088810E94190D89819A819827892798277F
:101D4000DF91CF911F910F9108950F931F93CF9320
:101D5000DF93EC0100910501109106019C012F5FBA
:101D60003F4F42E063E488810E94190D89819A8186
:101D7000982789279827DF91CF911F910F91089578
:101D8000262F46E06BE6FC0180810C94D80D0F9362
:101D9000062F23E042E06BE6FC0180810E94080EE2
:101DA0000F910895CF93DF93EC0161E00E94C70E7D
:101DB00060E0CE010E94590E60E0CE010E94640EE8
:101DC00060E0CE01DF91CF910C94C00EAB0166E0D4
:101DD000FC0180810C94070DAB0168E0FC0180815F
:101DE0000C94070DAB016AE0FC0180810C94070D97
:101DF000AB0163E1FC0180810C94070DAB0165E14F
:101E0000FC0180810C94070DAB0167E1FC0180812E
:101E10000C94070D6F5F7F4F49E3469F9001479FEA
:101E2000300D11242E384FE6340710F02DE83FE630
:101E3000FC01358724870895DC0170E0FB01E75F32
:101E4000FE4FE4911496EC93149750E0FA01E75F8B
:101E5000FE4FE4911596EC931597635E7E4FFB0160
:101E60008491E82FF0E0EE0FFF1FE55CFE4F8591B7
:101E7000949117969C938E931697FA01E35EFE4F0A
:101E8000E491F0E0EE0FFF1FEF5CFE4F859194911F
:101E900019969C938E931897FB016491E62FF0E0BE
:101EA000EE0FFF1FEB5BFE4F859194911B969C9369
:101EB0008E931A97B901CD010C940A0F1F920F92BD
:101EC0000FB60F9211242F933F934F935F936F930D
:101ED0007F938F939F93AF93BF93EF93FF93E09183
:101EE0005604F09157040995FF91EF91BF91AF917E
:101EF0009F918F917F916F915F914F913F912F9122
:101F00000F900FBE0F901F901895413208F043C0FC
:101F10009091C5049111FCCF91E09093C50420935A
:101F2000C3042FEF2093580410929D04240F209394
:101F30009C049093C4049091C404880F892B8093CF
:101F4000C4048091C204813061F41092C204809173
:101F5000C4048093BB008091BC0083FDF8CF85EC66
:101F600001C085EE8093BC008091C5048130E1F30F
:101F700080919D04841710F440919D04AEE9B4E073
:101F8000962FFB018E2F891B841718F48D91819356
:101F9000F9CF842F089580E008950F93413208F01F
:101FA0004AC09091C5049111FCCF32E03093C50432
:101FB0000093C3043FEF3093580410929D04409364
:101FC0009C04562FAEE9B4E0FB013E2F351B3417BD
:101FD00018F431913D93F9CF1092C4043091C404A8
:101FE000880F832B8093C4048091C204813061F4F4
:101FF0001092C2048091C4048093BB008091BC0005
:1020000083FDF8CF85EC01C085EE8093BC002223D0
:1020100021F08091C5048230D1F3809158048F3F24
:1020200079F080915804803241F0809158048033D7
:1020300031F094E005C091E003C092E001C093E06C
:10204000892F0F91089540917A04262F30E0240FB4
:10205000311D21323105DCF42091C5042430C9F44E
:10206000FC0180E090E0861758F430917A042191C9
:10207000DC01A458BB4FA30FB11D2C930196F3CFE5
:1020800080917A04680F60937A0480E0089581E07B
:10209000089582E0089585ED8093BC008091BC0096
:1020A00084FDFCCF1092C504089585EC8093BC009C
:1020B0001092C50408951F920F920FB60F9211242B
:1020C0002F933F934F935F936F937F938F939F9340
:1020D000AF93BF93EF93FF938091B900887F8036D1
:1020E00009F49EC078F5883209F45DC090F480311F
:1020F00009F456C038F4882309F4F5C0883009F48F
:102100004FC0F5C0883109F44EC0803209F45FC079
:10211000EEC0803409F46AC058F4803309F457C023
:10212000883309F0E4C0809358040E945510DFC042
:10213000803509F44FC0883509F45DC0883409F052
:10214000D6C0D3C0883909F4C4C0A8F4883709F4CC
:1021500067C038F4883609F463C0803709F460C07A
:10216000C6C0883809F4B5C0803909F45FC080382A
:1021700009F0BDC05BC0803B09F483C038F4803AED
:1021800009F466C0883A09F47CC0B1C0803C09F407
:10219000A4C0883C09F4A1C0883B09F487C0A7C04B
:1021A0008091C40410C090919D0480919C04981764
:1021B00070F5E0919D0481E08E0F80939D04F0E026
:1021C000E256FB4F80818093BB0085EC83C08093F7
:1021D00058048BC0E0919D0481E08E0F80939D0494
:1021E0008091BB00F0E0E256FB4F808390919D040C
:1021F00080919C046BC0E0919D0481E08E0F8093E0
:102200009D048091BB00F0E0E256FB4F80838091FB
:10221000C30481116AC081E08093C20484EA5EC075
:1022200083E08093C50410925904CFCF8091590464
:10223000803208F04EC0E091590481E08E0F809307
:1022400059048091BB00F0E0E65AFB4F8083BDCF7C
:102250000E94551080915904803230F4E091590465
:10226000F0E0E65AFB4F10826091590470E0E09173
:10227000BE04F091BF048AE594E0099510925904D8
:1022800036C084E08093C50410927B0410927A04D7
:10229000E091C004F091C104099580917A04811104
:1022A00005C081E080937A0410927C04E0917B0465
:1022B00081E08E0F80937B04F0E0E458FB4F808137
:1022C0008093BB0090917B0480917A04981708F466
:1022D0007CCF85E88093BC000AC085EC8093BC006D
:1022E0001092C50404C0109258040E944B10FF9134
:1022F000EF91BF91AF919F918F917F916F915F917E
:102300004F913F912F910F900FBE0F901F901895F6
:1023100080E090E008958091F60490E02091F70429
:10232000821B910908959091F7048091F604981703
:1023300050F4E92FF0E0E850FB4F208130E09F5F40
:102340009093F70402C02FEF3FEFC9010895E09189
:10235000F7048091F604E81730F4F0E0E850FB4F02
:10236000808190E008958FEF9FEF08950895CF92B8
:10237000DF92EF92FF920F931F93CF93DF937C0135
:10238000CB018A012091D204222389F0EB016B0159
:10239000C40ED51ECC15DD0569F06991D701ED910C
:1023A000FC910190F081E02DC7010995F3CF642FD6
:1023B0000E942310C801DF91CF911F910F91FF90D0
:1023C000EF90DF90CF900895CF93DF931F92CDB71A
:1023D000DEB769832091D2042223D1F02091D30467
:1023E000203240F021E030E0FC013383228380E0A2
:1023F00090E015C08091D404E82FF0E0EB52FB4F41
:10240000998190838F5F8093D4048093D30405C017
:1024100061E0CE0101960E94231081E090E00F90D0
:10242000DF91CF910895FC011382128288EE93E030
:10243000A0E0B0E084839583A683B7838AE692E028
:1024400091838083089581E08093D2046093F504A2
:102450001092D4041092D30408950F93062F21E014
:102460004091D30465ED74E08091F5040E94CD0F96
:102470001092D4041092D3041092D2040F910895B4
:102480004F925F926F927F92AF92BF92CF92EF92F4
:10249000FF920F931F93CF93DF935C01F62ED42FFF
:1024A00028013901EE2021F10E942312CE2DC430E3
:1024B00008F0C3E0C150C0F028E0C29FC001112461
:1024C000A301920104C056954795379527958A95A3
:1024D000D2F7CA01B901D501ED91FC910190F081CB
:1024E000E02DC5010995E6CF60E0C5010E942D12DF
:1024F0004D2FD13208F040E22C2D68EF74E08F2D83
:102500000E94850F1092F7048093F604DF91CF911B
:102510001F910F91FF90EF90CF90BF90AF907F9061
:102520006F905F904F900895CF92EF920F931F930B
:10253000C22EE12C00E010E098010E9440121F9191
:102540000F91EF90CF90089521E00C94941261E0E8
:102550000C942D1286EC94E00C94131268E688E13A
:1025600095E00C94560ECF93C82F0E9468148C2FC0
:1025700080950E9478140E9474145D9ACF910895FA
:10258000CF93C82F0E948F148C2F80950E94A71480
:102590000E94A1145B9ACF9108950E9474140E9426
:1025A0006C145D985E9808950E94581461E085E06F
:1025B0000E94101C61E086E00E94101C0C94CD1259
:1025C0000E94A1140E9495145B982B9808950E9474
:1025D0007C1461E08BE00E94101C61E083E00E94AB
:1025E000101C0C94E012CF9381110BC0C62F0E94D7
:1025F00070148C2F80950E947A140E946C145E9A3D
:1026000006C0813021F4862FCF910C94B312CF9164
:102610000895CF9381110BC0C62F0E949B148C2F5D
:1026200080950E94AA140E9495142B9A06C08130AE
:1026300021F4862FCF910C94C012CF910895CF939F
:10264000DF93EB0197FD03C00E94B31207C066271A
:102650007727681B790B80E00E94F312D7FD05C035
:102660008C2FDF91CF910C94C012662777276C1BBB
:102670007D0B80E0DF91CF910C94091362E08FE035
:102680000E94101C62E08EE00E94101C62E08DE04F
:102690000E94101C62E08CE00E94101C83E080937A
:1026A0006800ABE6B0E080E18C93ECE6F0E082E01D
:1026B00080838C9180628C93808181608083089577
:1026C0001F920F920FB60F9211242F938F939F9307
:1026D000AF93BF93EF93FF9323B125FB222720F9FC
:1026E00020932D0583B18295817080932C05909164
:1026F0002E0593702111986090932B05882329F063
:1027000080912B05846080932B05E0912B058E2F03
:1027100090E0959587959595879580932E058E2FBA
:1027200090E0FC013197EE30F105D8F5EC5CFF4FFD
:102730000C94E31C80912F0590913005A0913105F8
:10274000B09132050196A11DB11D23C080912F05C6
:1027500090913005A0913105B09132050197A10902
:10276000B10917C080912F0590913005A0913105D6
:10277000B09132050296A11DB11D0BC080912F05AD
:1027800090913005A0913105B09132050297A109D1
:10279000B10980932F0590933005A0933105B09334
:1027A0003205FF91EF91BF91AF919F918F912F9142
:1027B0000F900FBE0F901F9018951F920F920FB69B
:1027C0000F9211242F938F939F93AF93BF93EF9307
:1027D000FF9396B1969591709093290526B121703B
:1027E0002093280580912A0583709111846080933D
:1027F0002705222329F080912705886080932705EB
:10280000E09127058E2F90E0959587959595879572
:1028100080932A058E2F90E0FC013197EE30F10570
:10282000D8F5EE5BFF4F0C94E31C8091330590913B
:102830003405A0913505B09136050196A11DB11D55
:1028400023C08091330590913405A0913505B09156
:1028500036050197A109B10917C080913305909100
:102860003405A0913505B09136050296A11DB11D24
:102870000BC08091330590913405A0913505B0913E
:1028800036050297A109B109809333059093340569
:10289000A0933505B0933605FF91EF91BF91AF91AD
:1028A0009F918F912F910F900FBE0F901F901895B1
:1028B000E4E6F0E080818F7D808383EA84BD82E05E
:1028C00085BD81E080936E0017BC18BC80E0089540
:1028D00084B5806884BD089584B58F7384BD0895E0
:1028E00084B5806284BD089584B58F7C84BD0895CD
:1028F00087BD089588BD0895E4E6F0E080818F7B70
:10290000808383EA8093B00082E08093B1001092CC
:1029100070001092B3001092B40080E00895E0EBD4
:10292000F0E08081806880830895E0EBF0E08081B2
:102930008F7380830895E0EBF0E080818062808374
:102940000895E0EBF0E080818F7C80830895809390
:10295000B30008958093B40008955058BB27AA2768
:102960000E94C5140C94D8160E94CA1638F00E9412
:10297000D11620F039F49F3F19F426F40C94A016D8
:102980000EF4E095E7FB0C949A16E92F0E94E916E5
:1029900058F3BA17620773078407950720F079F494
:1029A000A6F50C940B170EF4E0950B2EBA2FA02D64
:1029B0000B01B90190010C01CA01A0011124FF27EC
:1029C000591B99F0593F50F4503E68F11A16F040E7
:1029D000A22F232F342F4427585FF3CF46953795E6
:1029E0002795A795F0405395C9F77EF41F16BA0BAB
:1029F000620B730B840BBAF09150A1F0FF0FBB1F59
:102A0000661F771F881FC2F70EC0BA0F621F731FA1
:102A1000841F48F4879577956795B795F7959E3FFE
:102A200008F0B0CF9395880F08F09927EE0F97958F
:102A3000879508950E94CA1660F080E891E009F435
:102A40009EEF0E94D11628F040E851E071F45EEF4D
:102A50000CC00C94A0160C940B17E92FE0780E9480
:102A6000E91640F3092E052AB1F326173707480760
:102A7000590738F00E2E07F8E02569F0E025E064EC
:102A80000AC0EF6307F8009407FADB01B9019D0162
:102A9000DC01CA01AD01EF930E94A8150E94D8166F
:102AA0000E945D155F91552339F02BED3FE049E41D
:102AB00050FD49EC0C94AE140895DF93DD27B92F37
:102AC000BF7740E85FE31616170648075B0718F460
:102AD000D92F0E9417179F938F937F936F930E9414
:102AE0008C17E0EAF0E00E94A3160E94D8162F91FE
:102AF0003F914F915F910E943217DD2351F0905822
:102B0000A2EA2AED3FE049EC5FE3D0785D270E941E
:102B1000C514DF910C94D8160E94761608F481E053
:102B200008950E94A5150C94D8160E94D11658F04D
:102B30000E94CA1640F029F45F3F29F00C949A16BF
:102B400051110C940C170C94A0160E94E91668F30E
:102B50009923B1F3552391F3951B550BBB27AA2756
:102B600062177307840738F09F5F5F4F220F331F90
:102B7000441FAA1FA9F335D00E2E3AF0E0E832D058
:102B800091505040E695001CCAF72BD0FE2F29D05B
:102B9000660F771F881FBB1F261737074807AB072D
:102BA000B0E809F0BB0B802DBF01FF2793585F4FA2
:102BB0003AF09E3F510578F00C949A160C940C173D
:102BC0005F3FE4F3983ED4F3869577956795B79584
:102BD000F7959F5FC9F7880F911D9695879597F98F
:102BE0000895E1E0660F771F881FBB1F6217730708
:102BF0008407BA0720F0621B730B840BBA0BEE1F1D
:102C000088F7E09508950E940A166894B1110C9413
:102C10000C1708950E94F11688F09F5798F0B92F6D
:102C20009927B751B0F0E1F0660F771F881F991F01
:102C30001AF0BA95C9F714C0B13091F00E940B1781
:102C4000B1E008950C940B17672F782F8827B85F91
:102C500039F0B93FCCF3869577956795B395D9F759
:102C60003EF490958095709561957F4F8F4F9F4F63
:102C70000895E89409C097FB3EF49095809570956F
:102C800061957F4F8F4F9F4F9923A9F0F92F96E9B8
:102C9000BB279395F695879577956795B795F1112D
:102CA000F8CFFAF4BB0F11F460FF1BC06F5F7F4FCA
:102CB0008F4F9F4F16C0882311F096E911C07723DC
:102CC00021F09EE8872F762F05C0662371F096E8E5
:102CD000862F70E060E02AF09A95660F771F881FB4
:102CE000DAF7880F9695879597F90895990F000858
:102CF000550FAA0BE0E8FEEF16161706E807F907CE
:102D0000C0F012161306E407F50798F0621B730B68
:102D1000840B950B39F40A2661F0232B242B252BE9
:102D200021F408950A2609F4A140A6958FEF811D8C
:102D3000811D089597F99F6780E870E060E008952D
:102D40009FEF80EC0895DF93CF931F930F93FF9233
:102D5000EF92DF927B018C01689406C0DA2EEF01BE
:102D60000E943217FE01E894A59125913591459175
:102D70005591A6F3EF010E94C514FE019701A80129
:102D8000DA9469F7DF90EF90FF900F911F91CF9148
:102D9000DF91089500240A941616170618060906EE
:102DA000089500240A9412161306140605060895C1
:102DB000092E0394000C11F4882352F0BB0F40F449
:102DC000BF2B11F460FF04C06F5F7F4F8F4F9F4F89
:102DD000089557FD9058440F551F59F05F3F71F00B
:102DE0004795880F97FB991F61F09F3F79F0879572
:102DF0000895121613061406551FF2CF4695F1DFFB
:102E000008C0161617061806991FF1CF869571058A
:102E1000610508940895E894BB2766277727CB01BE
:102E200097F908950E94761608F48FEF08959B0194
:102E3000AC0160E070E080E89FE30C9491150E9483
:102E400032170C94D8160E94CA1638F00E94D11678
:102E500020F0952311F00C949A160C94A0161124CE
:102E60000C940C170E94E91670F3959FC1F3950F0F
:102E700050E0551F629FF001729FBB27F00DB11DFE
:102E8000639FAA27F00DB11DAA1F649F6627B00D8E
:102E9000A11D661F829F2227B00DA11D621F739F77
:102EA000B00DA11D621F839FA00D611D221F749F85
:102EB0003327A00D611D231F849F600D211D822FCC
:102EC000762F6A2F11249F5750409AF0F1F08823F3
:102ED0004AF0EE0FFF1FBB1F661F771F881F915020
:102EE0005040A9F79E3F510580F00C949A160C941F
:102EF0000C175F3FE4F3983ED4F38695779567957A
:102F0000B795F795E7959F5FC1F7FE2B880F911D49
:102F10009695879597F908959B01AC010C941F171E
:102F2000FC01918D228D892F90E0805C9F4F821B48
:102F300091098F7399270895FC01918D828D9817BF
:102F400031F0828DE80FF11D858D90E008958FEFAF
:102F50009FEF0895FC01918D828D981761F0828D0D
:102F6000DF01A80FB11D5D968C91928D9F5F9F73BD
:102F7000928F90E008958FEF9FEF0895FC01538D9D
:102F8000448D252F30E0842F90E0821B930B541743
:102F900010F0CF9608950197089582E299E1892B68
:102FA00049F080E090E0892B29F00E9422198111DC
:102FB0000C9400000895FC01848DDF01A80FB11D61
:102FC000A35ABF4F2C91848D90E001968F7399275F
:102FD000848FA689B7892C93A089B1898C9180644C
:102FE0008C93938D848D981306C00288F389E02D0D
:102FF00080818F7D80830895EF92FF920F931F93BE
:10300000CF93DF93EC0181E0888F9B8D8C8D98139B
:1030100005C0E889F989808185FD24C0F62E0B8DD5
:1030200010E00F5F1F4F0F731127E02E8C8DE812F9
:103030000CC00FB607FCFACFE889F989808185FFBB
:10304000F5CFCE010E94DB17F1CF8B8DFE01E80F8B
:10305000F11DE35AFF4FF0820B8FEA89FB898081D3
:10306000806207C0EE89FF896083E889F9898081E1
:103070008064808381E090E0DF91CF911F910F9178
:10308000FF90EF900895CF93DF93EC01888D882314
:10309000C9F0EA89FB89808185FD05C0A889B989C5
:1030A0008C9186FD0FC00FB607FCF5CF808185FFA0
:1030B000F2CFA889B9898C9185FFEDCFCE010E940E
:1030C000DB17E7CFDF91CF910895CF92DF92EF9298
:1030D000FF921F93CF93DF93EC016A017B01122FC4
:1030E000E889F98982E080834115514E61057105B7
:1030F000B1F060E079E08DE390E0A70196010E94D5
:10310000A21CDA01C9010197A109B109B695A795D9
:10311000979587959C01211580E13807A8F0E889EB
:10312000F989108260E874E88EE190E0A7019601C9
:103130000E94A21CDA01C9010197A109B109B69543
:10314000A795979587959C01EC85FD853083EE8545
:10315000FF852083188EEC89FD891083EA89FB891D
:10316000808180618083EA89FB8980818860808397
:10317000EA89FB89808180688083EA89FB89808174
:103180008F7D8083DF91CF911F91FF90EF90DF9033
:10319000CF9008951F920F920FB60F9211242F9384
:1031A0008F939F93EF93FF93E0914705F09148052C
:1031B0008081E0914D05F0914E0582FD12C0908115
:1031C000809150058F5F8F7320915105821751F0C8
:1031D000E0915005F0E0E95CFA4F958F809350053F
:1031E00001C08081FF91EF919F918F912F910F905E
:1031F0000FBE0F901F9018951F920F920FB60F924F
:1032000011242F933F934F935F936F937F938F93EB
:103210009F93AF93BF93EF93FF9387E395E00E9453
:10322000DB17FF91EF91BF91AF919F918F917F91AC
:103230006F915F914F913F912F910F900FBE0F9023
:103240001F90189587E395E00E94901721E0892B45
:1032500009F420E0822F0895E7E3F5E0138212825B
:1032600088EE93E0A0E0B0E084839583A683B783E3
:103270008CE792E09183808385EC90E0958784874A
:1032800084EC90E09787868780EC90E0918B808B30
:1032900081EC90E0938B828B82EC90E0958B848B19
:1032A00086EC90E0978B868B118E128E138E148E87
:1032B000089508950E94D51B0E9459190E941D056A
:1032C000CDECD7E10E94E8062097E1F30E94CD17EC
:1032D000F9CFCF92DF92EF92FF920F931F93CF938C
:1032E000DF936C017A018B01C0E0D0E0CE15DF05E1
:1032F00081F0D8016D918D01D601ED91FC91019085
:10330000F081E02DC6010995892B11F02196EECFB1
:103310007E01C701DF91CF911F910F91FF90EF9038
:10332000DF90CF9008956115710579F0FB01019050
:103330000020E9F73197AF01461B570BDC01ED91F7
:10334000FC910280F381E02D099480E090E00895E3
:103350000C949319DC01ED91FC910190F081E02D2A
:1033600009946AE872E00C9493190F931F93CF931A
:10337000DF93EC010E9493198C01CE010E94B119D8
:10338000800F911FDF91CF911F910F9108958F9220
:103390009F92AF92BF92EF92FF920F931F93CF93A2
:1033A000DF93CDB7DEB7A1970FB6F894DEBF0FBE9F
:1033B000CDBF7C01FA01CB0119A2223008F42AE02A
:1033C0008E010F5D1F4F822E912CA12CB12CBF01BD
:1033D000A50194010E94A21CF901CA010150110922
:1033E0006A3010F4605D01C0695CD8016C93232BD6
:1033F000242B252B61F7B801C7010E949319A196D0
:103400000FB6F894DEBF0FBECDBFDF91CF911F91F5
:103410000F91FF90EF90BF90AF909F908F90089585
:103420002115310541F4DC01ED91FC910190F08111
:10343000E02D642F09940C94C7199A01AB0160E048
:1034400070E00C94101A0F931F93CF93DF93EC014D
:103450000E94101A8C01CE010E94B119800F911F99
:10346000DF91CF911F910F910895CF92DF92EF924C
:10347000FF920F931F93CF93DF932115310581F4B2
:10348000DC01ED91FC910190F081E02D642FDF9142
:10349000CF911F910F91FF90EF90DF90CF90099403
:1034A0002A30310501F577FF1DC06A017B01EC016F
:1034B0006DE20E94AA198C0144275527BA014C19C4
:1034C0005D096E097F092AE0CE010E94C719800FAD
:1034D000911FDF91CF911F910F91FF90EF90DF909F
:1034E000CF9008952AE0DF91CF911F910F91FF9027
:1034F000EF90DF90CF900C94C7199A01AB01770F32
:10350000660B770B0C94351A7F928F929F92AF9235
:10351000BF92CF92DF92EF92FF920F931F93CF93C0
:10352000DF938C016A017B01722E9A01AB01C70106
:10353000B6010E948D1C882319F06DE872E027C047
:1035400046015701E894B7F82FEF3FEF4FE75FE7E9
:10355000C501B4010E948D1C81110DC02FEF3FEFFA
:103560004FE75FE7C501B4010E948C1518161CF4E3
:1035700061E972E00CC02FEF3FEF4FE75FE4C70156
:10358000B6010E941217181694F465E972E0C8019A
:10359000DF91CF911F910F91FF90EF90DF90CF902F
:1035A000BF90AF909F908F907F900C9493192FEFC6
:1035B0003FEF4FE75FECC701B6010E948C1587FD16
:1035C000E4CF20E030E0A901C701B6010E948C15CC
:1035D00087FF0AC06DE2C8010E94AA19EC01F7FA40
:1035E000F094F7F8F09402C0C0E0D0E0B12C60E0B5
:1035F00070E080E09FE37B1441F020E030E040E2A7
:1036000051E40E949115B394F6CFA70196010E9450
:10361000AE146B017C010E940A164B015C012AE08A
:10362000AB01BC01C8010E94C719C80FD91F772080
:10363000B9F1C501B4010E9439169B01AC01C70163
:10364000B6010E94AD146B017C016EE2C8010E94BC
:10365000AA19C80FD91F20E030E040E251E4C701A9
:10366000B6010E941F174B015C010E940A166B01F4
:103670007C014AE050E0C8010E941D1AC80FD91F02
:10368000B60180E090E00E9439169B01AC01C501B3
:10369000B4010E94AD146B017C017A947110DBCFF0
:1036A000CE01DF91CF911F910F91FF90EF90DF90AE
:1036B000CF90BF90AF909F908F907F9008950C9483
:1036C000841A1F920F920FB60F9211242F933F93DB
:1036D0008F939F93AF93BF938091D5059091D6051B
:1036E000A091D705B091D8053091D40520E1230FE2
:1036F0002D3728F023E9230F0196A11DB11D20933A
:10370000D4058093D5059093D605A093D705B093A3
:10371000D8058091D9059091DA05A091DB05B0918B
:10372000DC050196A11DB11D8093D9059093DA05A2
:10373000A093DB05B093DC05BF91AF919F918F9172
:103740003F912F910F900FBE0F901F9018952FB79C
:10375000F8946091D5057091D6058091D705909128
:10376000D8052FBF08953FB7F8948091D90590915F
:10377000DA05A091DB05B091DC0526B5A89B05C054
:103780002F3F19F00196A11DB11D3FBFBA2FA92FE0
:10379000982F8827820F911DA11DB11DBC01CD015D
:1037A00096958795779567950895789484B5826006
:1037B00084BD84B5816084BD85B5826085BD85B5D5
:1037C000816085BDEEE6F0E0808181608083E1E884
:1037D000F0E01082808182608083808181608083BC
:1037E000E0E8F0E0808181608083E1EBF0E08081BF
:1037F00084608083E0EBF0E0808181608083EAE791
:10380000F0E0808184608083808182608083808119
:10381000816080838081806880831092C1000895D8
:10382000CF93DF9390E0FC01E75FFE4F2491FC0112
:10383000E35EFE4F8491882361F190E0880F991F29
:10384000FC01EB5BFE4FC591D491FC01E55CFE4FA2
:10385000A591B491611109C09FB7F8948881209512
:1038600082238883EC912E230BC0623061F49FB7D2
:10387000F8948881322F309583238883EC912E2B06
:103880002C939FBF06C08FB7F894E8812E2B288316
:103890008FBFDF91CF9108954F925F926F927F9289
:1038A000AF92BF92CF92DF92EF92FF920F931F934E
:1038B000CF93DF93CDB7DEB729013A019B01AC016D
:1038C000241935094609570989899A89AB89BC8920
:1038D000BC01CD016A197B098C099D090E94921CCB
:1038E000A801970124193509460957090E94C41CEB
:1038F000CA01B9016A0D7B1D8C1D9D1DDF91CF9101
:103900001F910F91FF90EF90DF90CF90BF90AF90FD
:103910007F906F905F904F9008950E947616880B6D
:10392000990B0895DB018F939F930E94E91CBF912F
:10393000AF91A29F800D911DA39F900DB29F900DFE
:1039400011240895A1E21A2EAA1BBB1BFD010DC074
:10395000AA1FBB1FEE1FFF1FA217B307E407F5073F
:1039600020F0A21BB30BE40BF50B661F771F881F1B
:10397000991F1A9469F760957095809590959B01B1
:10398000AC01BD01CF010895052E97FB1EF40094F4
:103990000E94DB1C57FD07D00E94A21C07FC03D02D
:1039A0004EF40C94DB1C50954095309521953F4F7B
:1039B0004F4F5F4F089590958095709561957F4F1B
:1039C0008F4F9F4F0895EE0FFF1F0590F491E02D4C
:1039D00009940E94F41CA59F900DB49F900DA49F84
:1039E000800D911D11240895A29FB001B39FC001C5
:1039F000A39F700D811D1124911DB29F700D811D1B
:103A00001124911D0895662777270C94431D4AE9D8
:103A100052E00E941C1D0895FB01DC018D91019074
:103A200080190110D9F3990B0895FB01DC01019075
:103A30000D920020E1F70895FA01A191B08100975D
:103A400019F41097E1F0CD01DC01CD010D900020BB
:103A500011F4C00113C0FB012191222319F020159C
:103A6000D9F7F3CFFB012191201519F41E9211967D
:103A700006C02223C1F70D900020A1F7D001FA0162
:103A8000A193B0830895A0E0B0E0E9E4FDE10C94D7
:103A9000BB1EEC016B016115710519F0FB019183EF
:103AA00080837E01FFEFEF1AFF0A0881802F90E0EC
:103AB0000E94911E892B11F0E701F3CF0D3239F4EA
:103AC0007E0182E0E80EF11C098111E008C00B3292
:103AD00029F47E0192E0E90EF11C098110E0E70172
:103AE000219743E050E066ED70E0CE010E949A1EFF
:103AF000892BC1F4239645E050E061ED70E0CE01E2
:103B00000E949A1E892B09F42596C114D10419F03C
:103B1000F601D183C0831111F6C060E070E080E847
:103B20009FE7FAC043E050E06EEC70E0CE010E94E7
:103B30009A1E892B59F4C114D10409F4E9C0F2E0AA
:103B4000EF0EF11CF601F182E082E2C020E030E0ED
:103B5000A901C0E0D0E0F70180EDA82EA00E89E019
:103B60008A1530F1912F9260B92E812F887012FF43
:103B700004C0811124C0219622C081112197A5E0A3
:103B8000B0E00E94E91CDC01CB01880F991FAA1F3D
:103B9000BB1F9C01AD012A0D311D411D511D28394E
:103BA00089E93807480789E1580748F0166006C0D8
:103BB0009EEFA9120AC013FD40C01860B12E8FEF0E
:103BC000E81AF80A00811B2DC6CF802F8F7D85341F
:103BD000A1F580818D3211F4106106C08B3221F085
:103BE000319661E070E004C08181329662E070E05D
:103BF00080538A3018F0E61BF70B1FC060E070E0BE
:103C000060389CE079075CF4DB01AA0FBB1FAA0FA8
:103C1000BB1F6A0F7B1F660F771F680F711D3196E0
:103C2000DF0111978C9180538A3050F314FF03C049
:103C3000719561957109C60FD71F11FF08C0C11496
:103C4000D10429F0CF010197F60191838083CA0145
:103C5000B9010E943916212F2370233019F04B012E
:103C60005C0106C04B015C01B7FAB094B7F8B094A0
:103C700020E030E0A901C501B4010E948C15882321
:103C800009F43EC0D7FF06C0D195C195D1090DEE0C
:103C900010E002C005E011E06801F8E1CF1AD10898
:103CA00090E2E92EF12CCE15DF0574F0F801259194
:103CB000359145915491C501B4010E941F174B01E4
:103CC0005C01CE19DF09EFCF04501109F594E79498
:103CD0000C151D0541F78A2D880F8B2D881F8F3FEE
:103CE00049F020E030E0A901C501B4010E948C1523
:103CF000811106C082E290E09093DE058093DD059D
:103D0000C501B40109C060E070E080E89FEF04C025
:103D100060E070E080EC9FE7CDB7DEB7ECE00C949C
:103D2000D71E91110C94B21E803219F08950855023
:103D3000C8F70895FB01DC014150504088F08D9197
:103D400081341CF08B350CF4805E659161341CF07D
:103D50006B350CF4605E861B611171F3990B08954D
:103D6000881BFCCF9927882708952F923F924F9266
:103D70005F926F927F928F929F92AF92BF92CF92FB
:103D8000DF92EF92FF920F931F93CF93DF93CDB704
:103D9000DEB7CA1BDB0B0FB6F894DEBF0FBECDBF7C
:103DA00009942A88398848885F846E847D848C844D
:103DB0009B84AA84B984C884DF80EE80FD800C8156
:103DC0001B81AA81B981CE0FD11D0FB6F894DEBF39
:0C3DD0000FBECDBFED010895F894FFCFA9
:103DDC00EF030C0401E80344443A2000454E433AF7
:103DEC002000203020005049443A20005345543ADA
:103DFC00200053500044656275673A20535020539D
:103E0C0074617274004D30004D3100476900446597
:103E1C006275673A20535020446F6E65004744002A
:103E2C0044656275673A204744205374617274008C
:103E3C0044656275673A20474420446F6E650053B1
:103E4C00530044656275673A205353205374617272
:103E5C00740044656275673A20535320446F6E6555
:103E6C000047435F4F4E0047435F4F464600475263
:103E7C00505F4F4E004752505F4F4646004D505FCB
:103E8C004F4E004D505F4F46460047505F4F4E001F
:103E9C0047505F4F4646004752443A200047494F2F
:103EAC003A200053657475703A53657269616C20E1
:103EBC00496E697469616C697A65640053657475DF
:103ECC00703A204D70753630353020496E69746902
:103EDC00616C697A65640053657475703A204D6F36
:103EEC00746F727320496E697469616C697A656468
:103EFC000053657475703A20456E636F6465727318
:103F0C0020496E697469616C697A656400536574E3
:103F1C0075703A205069647320696E697469616CBC
:103F2C00697A65640053657475703A20446F6E65E8
:103F3C00004D433A200000000000E411B711881135
:103F4C00B6118B119311A71100000000FC17691911
:103F5C00BE1743189017AA179C170D0A006E616EB6
:0A3F6C0000696E66006F76660000C3
:00000001FF
